:020000040800F2
:1000000000500020896F0008E16F0008E16F0008D0
:10001000E16F0008E16F0008E16F000800000000D8
:10002000000000000000000000000000E16F000878
:10003000E16F000800000000E16F0008E16F0008B8
:10004000E16F0008E16F0008E16F0008E16F000850
:10005000E16F0008E16F0008E16F0008E16F000840
:10006000E16F0008E16F0008E16F00083D630008E0
:10007000E16F0008E16F0008E16F0008E16F000820
:10008000E16F000875630008E16F0008E16F000888
:1000900081600008E16F0008E16F0008E16F00086F
:1000A000E16F0008E16F0008E16F0008E16F0008F0
:1000B000B9630008E16F0008E16F0008E16F000814
:1000C000E16F0008E16F0008E16F0008E16F0008D0
:1000D000E16F0008E16F0008E16F0008E16F0008C0
:1000E000E16F0008E16F0008E16F00080000000008
:1000F0000000000000000000000000000000000000
:0C01000000000000000000005FF808F1A3
:1001100050534B2053657020313020323032330041
:10012000BFF34F8F0549064BCA6802F4E0621343E0
:10013000CB60BFF34F8F00BFFDE700BF00ED00E0D5
:100140000400FA05F8B510F13F0448BF00F17E0441
:10015000174B1848184D1B1A48BF3F339A110023FC
:1001600019466D01A4119A4205EB830701DCFFF7E4
:10017000D7FF55F82360BEB901318C4215D1012259
:100180008E420DDB0D4A5B1A013300EB831013889E
:10019000518823449BB29942138000D25380F8BD0A
:1001A00047F804290136EBE700210133DBE700BF04
:1001B0000048002040110020241110018800002078
:1001C0000C4B10B511F13F0448BF01F17E04C01A79
:1001D000094BA411800900EBC30024EAE4729200E9
:1001E0000021800006F0FDFE044A13881B1B1380CB
:1001F00010BD00BF40110020241110018800002014
:10020000102310B5064A11460C68043224B903685D
:100210000B600023036010BD013BF4D1F9E700BF80
:100220008C000020054BD0E90212D3E9120388426A
:1002300093412CBF01200020704700BF88000020A0
:100240000C4B30B5D3E91254D0E90223954274EB3C
:10025000030307D200200CE043685B1842F1000260
:10026000C0E90232D0E902128D4274EB0203F3D2EC
:10027000012030BD8800002010B50446006808B198
:10028000436898470023236010BD48230022584349
:100290004FF0E02358619A611A69D203FCD5704788
:1002A000036823B11868B0FA80F040097047012054
:1002B00070470268531C0360527812B94268934237
:1002C000F7D1704700F1614000F58010400150F80F
:1002D0002100003818BF01207047002202804280B0
:1002E0008280C2807047054B00F1100250F8041B59
:1002F000904243F8041BF9D1704700BFD80000209A
:10030000037943B904308B79012B0AD1CB79012BC6
:1003100018BF00207047437F0BB91D30F3E7002062
:10032000F1E70020704700F1080300F5B470834244
:1003300001D1002070471A7A0AB91846704758331D
:10034000F5E7002330B580F8683197B000F1080573
:1003500000F5E0745835A54201D117B030BD5822E0
:100360000021684606F03DFE0DF12E00FFF7B5FFB7
:100370000DF13600FFF7B1FF0DF13E00FFF7ADFFC5
:1003800069465722A5F1580006F082FEE2E70B7A93
:10039000002B14BF08460020704710B50B7A0C469E
:1003A00096B02BB191F8483013B191F84930CBB9E0
:1003B00058220021684606F014FE0DF12E00FFF7CA
:1003C0008CFF0DF13600FFF788FF0DF13E00FFF7BF
:1003D00084FF69462046572206F05AFE0024204634
:1003E00016B010BD01234B77F9E7027A034652B9E4
:1003F000086958B18179012905D1C179022904D14F
:1004000003F108007047002070471046704730B570
:100410008FB032220446002101A806F0E2FDAA2393
:100420000DF10E00FFF759FF0DF11600FFF755FF14
:100430000DF11E00FFF751FFADF82630552301AA3C
:10044000ADF828300DAD04F10803144603CCAC42DE
:1004500018605960224603F10803F6D122781A7019
:100460000FB030BD0B880A8A03800B7A30B58370D9
:100470008B78CC89C37000234D8AC3718B8A9442D8
:1004800018BF5B1B42711BBF121B93FBF2F30123CE
:10049000DBB20471837130BDA0F1040005F0B6BF7A
:1004A000A0F1040006F00CB882880346032A10B5B8
:1004B00013D8D1E9040478B17CB1C968097901B9CC
:1004C0004179092909D1511C9980A17803EBC20017
:1004D00001F00F01C171063010BD0020FCE70021C2
:1004E00020228180063006F07CBD38B5D1E9044574
:1004F00094B18DB1CB681B7903B96379032B0BD110
:10050000036821461B69984728B1AB7803F00F03B5
:100510004370A378037138BD0020FCE770B5D1E9C2
:100520000456CC69CDB1C6B1BCB1CB681B7903B957
:100530006B79032B11D103681B69984760B1AB78C5
:100540004372E379227A43EA0223C380A3790371D9
:10055000B37803F00F03437070BD0020FCE7002365
:100560002DE9F047294C7022A44618464FF00E0E94
:1005700043F22007264EDFF89C80274D4FEA0319EF
:1005800006EB031126F8092091F80490087191F800
:10059000059094F8029094F803A04A44BAF13F0FF2
:1005A00092B2487101F108090A8185BF4FEA9A1198
:1005B00048EA81214FEA4A2189B298BF01F47C417F
:1005C000A9F804100EFB03F13CF801105244194342
:1005D000394345F823100133072B2073607392B21F
:1005E00004F10E04CAD10D4BA3F8620042F22703B6
:1005F000EB614FF40C43A5F840308023A5F844008C
:10060000A5F85000A5F84C30BDE8F08700000020A8
:10061000006000400080FFFF005C00408800002078
:100620000A4B03EB001082890389D2B25B0003F10D
:10063000804303F5C04301EB4202914200D1704771
:1006400033F8040B21F8020BF7E700BF006000400D
:10065000F0B50E27144A040107FB0025A968AB7802
:10066000994228BF1946114B1FFA81FC03EB001673
:10067000A6F804C01B5B4C1C5B0003F1804303F530
:10068000C043641003EB8404A34205D107FB00239D
:100690009A68521A9A60F0BD6E6836F802CB43F839
:1006A00004CB6E60F0E700BF000000200060004057
:1006B00040F64532094B0A491A604FF400120A61AC
:1006C000D8609A6802F08302032AFAD1DA682022FD
:1006D0000A6140F211321A60704700BF00300140D9
:1006E000000C014070B54FF453754FF480161C4C4C
:1006F00083F00103C000256040EA4300194D1A4B06
:100700002E61E0609A62DA6319625963A36803F0AC
:100710008303032BFAD1E26801226360134BC3F811
:100720008023C3F80026104A1368DB4313F40873D0
:10073000FAD14FF4887151600C4AC2F88033C2F884
:100740000036074B9A6802F08202022AFAD1002290
:100750005A6010222A6140F211321A6070BD00BF47
:10076000003001400008014000000240000040420B
:100770004FF45372174B18491A604FF480120A61F4
:100780002222DA60154AD063082050639A6802F08A
:100790008302032AFAD1D8685A600122104BC3F8A9
:1007A00000265A6A002AFCD04FF480700B4A506031
:1007B0000022C3F80026074B9A6802F08302032A3E
:1007C000FAD100225A6010220A6140F211321A60F6
:1007D000704700BF003001400008014000000240A7
:1007E000000040424FF4801340F64C3208490B6140
:1007F000084B1A60D8609A6802F08302032AFAD183
:100800001022D8680A6140F2113280B21A60704733
:100810000008014000300140C00208B500F47840F3
:10082000FFF7E0FFC0B208BD08B51F20FFF7F4FFD7
:1008300000F00F0008BD41EAC02040F4007080B213
:10084000D0E7837810B513F0040FC3F38002094B8F
:10085000044693F868300CBFC921CB2113B90AB103
:1008600041F004011B20FFF7E6FF21781C20BDE8C2
:100870001040E0E788000020194B10B58401C0F358
:100880008700D860986800F083000328FAD104F04C
:10089000C004D868DC60124CA36803F08303032B08
:1008A000FAD1E0680F4892018162C163026242633B
:1008B000012263600C4BC3F88023C3F80026036851
:1008C000DB4313F40873FAD14FF488724260044A90
:1008D0005360054AC2F88033C2F8003610BD00BF2D
:1008E0000030014000000240000040424FF400137D
:1008F0004FF457720F4910B50B610F4B1A60052268
:10090000DA609A6802F08302032AFAD1DA680022D8
:10091000DA60094B9A6802F08302032AFAD1202296
:10092000DC680A6140F2113201201A60FFF7ADFC69
:10093000E0B210BD00100140003001402DE9F0414F
:1009400005460E461746FFF7D1FFC307FBD44FF409
:100950000013DFF838800E4CC8F810304FF457738E
:1009600023600323E360A36803F08303032BFAD11E
:100970003A4631462846E368FFF77EFF2023C8F851
:10098000103040F211332360BDE8F08100100140C7
:10099000003001400122D1E7F8B506460F46FFF7C7
:1009A000A5FFC307FBD44FF40013164D164C2B6163
:1009B0004FF4577323600623E360A36803F08303B7
:1009C000032BFAD1E368202301202B61FFF75DFCA4
:1009D0004FF400132B614FF4577323600223E3603D
:1009E000094CA36803F08303032BFAD10122394693
:1009F0003046E368FFF740FF20232B6140F21133BC
:100A00002360F8BD00100140003001404FF08042EB
:100A100000231360BFF34F8F53601362D3605362A0
:100A20001361D36102F11072C2F8003102F58052F5
:100A30001360BFF34F8F024B024A5A60704700BFEA
:100A400000000240010000014FF40030194B10B5C6
:100A50001861FFF7DBFF47244FF08043002216495F
:100A6000A1F86C20A1F86E209C624FF6FF74DC6246
:100A70004FF481745A639A63DA631A64DC614FF449
:100A800044541C6241F20104DC6040F20F149C6487
:100A90004FF480740344C3F88440BFF34F8F0123A5
:100AA000064C23604FF084442360054B81F870208E
:100AB000186010BD000C014088000020001040426A
:100AC00000E100E010B504461022002106F089FA8A
:100AD000204610BDF0B5051D85B000F13604A542D5
:100AE00001D105B0F0BD6E466846FFF7EBFF192255
:100AF0000021284606F075FA04AF05F108023346D6
:100B000003CBBB42106051601E4602F10802F6D1D1
:100B10001935E4E7F0B50025431E01F10F040F304D
:100B2000834200D1F0BD13F8012F002AF8D04A1EED
:100B3000A242F5D01F7812F8016FB74208BF1D70AE
:100B4000F6E7F0B54FF6FD754FF6FD7C90F81148CD
:100B500082F00106C4F340131E4001F1080300EBCC
:100B60004101B1F810225F00013A92B2AA42B1F8F5
:100B7000102400EB430302F1FF3298BF07F5007524
:100B800092B294BF2D181D4662454FF6FD7C88BF7A
:100B90001A46B1F8101698BF07F5806201F1FF31CF
:100BA00089B298BF121861458EBF104607F5C0671D
:100BB000C0194FF6FD770188013989B2B94288BF63
:100BC0002846C4F3001126B1002908BF2846008832
:100BD000F0BD002914BF10461846F8E7002389012C
:100BE00070B58C1E0144421ECD1E12F8016FAA4240
:100BF0003344FAD103551B1201F8013C70BD0023A8
:100C0000890130B58C1E0144421E033912F8015F80
:100C10002B448A429BB2F9D1005BC31A5842584117
:100C200030BD0428A8BF002038B514460B4DC0EBDA
:100C3000001005442022B5F88200FFF77FFE22460F
:100C400005F182038E3553F8041BAB4242F8041BB6
:100C5000F9D1198811809B78937038BD88000020E5
:100C60000A460023014602203CE510B5114C002045
:100C7000B4F8103923F46F6323F00F03A4F810398C
:100C8000FFF716FD4FF48060FFF712FD4FF4006090
:100C9000FFF70EFD4FF44060FFF70AFD94F878006F
:100CA00004F58072042804F5887128BF0020BDE88F
:100CB0001040B6E78800002001230A460146184686
:100CC00010E5084A52F8203083F4405323F0F00333
:100CD0009B049B0C43F4004343F0800342F8203014
:100CE000704700BF005C0040F0B504462D4D91B048
:100CF000B5F93829B5F86E30002A9BB2A8BF013487
:100D0000C3F1A003B3EB540F34D3002AB4BF6E4633
:100D10000DF1010631464FF00400A8BF8DF8002008
:100D2000FFF77EFC0022204B042083F84420FFF7CD
:100D3000C8FFE30752BF4FF0FF3304F1FF34335DC8
:100D40006946472648F69F47B5F86E20A5F838391A
:100D5000164B92B203EB820364080433DFF850C0F1
:100D600003EB8400834207D1B5F86E301C44A4B273
:100D7000A5F86E4011B0F0BD31F8022B2AB9DCF8AD
:100D8000002043F8042C0433ECE712F4004F1ABFA0
:100D9000C2F30E0223F8047C23F8046C23F8022C1F
:100DA000F1E700BF8800002000000020C2090020F9
:100DB000C0700008074A52F8203083F0300323F057
:100DC000C0031B051B0D43F4004343F0800342F8AE
:100DD00020307047005C004070B4114B96B203EBBA
:100DE00000150401AE801B5B00245B00013203F19F
:100DF000804302EBD27203F5C0435210A24208DCDA
:100E000070BC0E22074B02FB00330122C0B25A73A2
:100E1000D0E731F81450013443F8045BEEE700BF2B
:100E2000006000400000002010B5094CA160606027
:100E300041B10020FFF70CFC0020FFF7BBFF0123AE
:100E4000637310BD034B1A7919715A795971F3E71D
:100E50000000002000600040024BD3F8BC3B03B10F
:100E60001860704788000020F0B5054696B29DF8DE
:100E700014001BB12C789C4223D1013570B101279D
:100E80004C1E3444C4F3CC03EB5C04F0070407FAB3
:100E900004F413EA04001CBF9740784201230E4477
:100EA000B6B2B14200D1F0BDCA08AA5C01F0070495
:100EB0002241D20701F1010148BF184389B25B000A
:100EC000EFE70020EFE710B500F110029042044672
:100ED00003D010F8013B0BB9217010BD8B42F5D146
:100EE000FAE770B511F03F0405468EB213D0A4F1B5
:100EF0003103012B0FD9320602D50121FFF7E3FFA1
:100F0000730603D525212846FFF7DDFF2146284635
:100F1000BDE87040D7E770BD38B58B0705460C4675
:100F200002D5E121FFF7CFFFA10603D5E521284631
:100F3000FFF7C9FFE20703D5E0212846FFF7C3FF0B
:100F4000E30603D5E4212846FFF7BDFF600703D57C
:100F5000E2212846FFF7B7FF610603D5E6212846C0
:100F6000FFF7B1FF220703D5E3212846FFF7ABFFC8
:100F7000230604D52846BDE83840E721A3E738BD5D
:100F800038B54FF48023184D18492B6140F2653372
:100F9000174C81EA8021014323600120FFF775F996
:100FA0000B0CE360A36803F08303032BFAD1E3681F
:100FB000C1F30723E3600E4CA36803F08303032B04
:100FC000FAD1C9B2E368E160A36803F08303032B9D
:100FD000FAD10120E368FFF758F904232B6140F2AE
:100FE0001133236038BD00BF0010014000FC9F009A
:100FF00000300140006808B1436818477047C0E9F5
:1010000000120368197829B99A4203D001339A4231
:101010000360F6D170471FB501F11002044668461F
:10102000FFF7EDFF114602A8FFF7E9FF009B029AC8
:10103000934201D104B010BD20461978FFF743FF59
:101040006846FFF736F9F1E7054B064A0360D2E937
:1010500012325B1842F10002C0E90232704700BF51
:10106000CC70000888000020F8B50446002625460C
:10107000A46864B9074F2B682846C7F8BC1B98477B
:101080002B68C7F8BC4B0BB906B1B460F8BD2E464F
:10109000EDE700BF8800002038B504680546E06829
:1010A00038B92146002341F80C3F2868BDE8384094
:1010B000DAE703681B6898470028F2D138BD38B5D5
:1010C0000546FFF73FF804462A46002105F089FF50
:1010D000204638BD38B50D46FFF720FA0446B8B1B2
:1010E000EB681B7C0BB92B689B7984F8463004F1C4
:1010F0000C0310220021184605F073FF0346EA682E
:1011000002F1100152F8040B8A4243F8040BF9D1A2
:10111000204638BDF8B5164D0746B5F86E40B5F80F
:101120006C30A4B29BB2E41A8C42A8BF0C46002CCF
:101130000E4613DDB5F86C3005F63A119BB201EBA3
:101140008301A20005F0A4FFB5F86C3023449BB2E4
:10115000A5F86C30074BB44204DBF8BD012385F8D9
:10116000C03BF7E71A6847F824200134F3E700BFD3
:1011700088000020D070000838B5038B0446DA07D9
:101180000CD5013B9BB2082B07D8012240F2151168
:101190009A400A426AD1062B65D0FFDE082BFCD8A4
:1011A00001A252F823F000BFCD1100089B110008E6
:1011B000D51100089B110008F31100089B110008CD
:1011C000431200089B1100086D12000802236061A1
:1011D000238335E04FF4FA610222294B016320306A
:1011E00083F8C12BFFF730FF04232383BDE8384089
:1011F00032E61920FFF710FB830605D50023237480
:10120000002323600823E3E71E4BC4E90F331033A8
:101210006364D4E91032934201D10123EFE71968E6
:10122000A3630B6804F148052846DB689847284605
:10123000FFF736F828B90623A26C238363699A6006
:1012400038BDA36C04F148001B7B83F0010384F8D4
:101250003430FFF711F894F83430002BCED1236CE2
:1012600004332364D5E74830FFF706F8A37E002B4C
:10127000E6D02046BDE838405021FEF7A1BF00BFB0
:1012800088000020D4700008028B42F00102028323
:1012900072E7438C10B5D907044607D5072B04D84D
:1012A000AA2222FA03F3DA0764D4FFDE062BFCD865
:1012B00001A252F823F000BFD5120008AB120008BB
:1012C000D7120008AB120008FB120008AB1200088E
:1012D0007513000820610022E3691A706369A36234
:1012E00042F21073E385E3691A78237E9A421ED294
:1012F0001E2094F82110FFF79EFA1920FFF78CFAB0
:1013000003061BD580211920FFF795FAFFF78CFA09
:10131000062884F82C00E6D0042812D194F8203056
:101320002BB9E38D013B9BB2E385002BDBD194F815
:101330002C30237300232360062300E004236384FE
:1013400010BD0028F3D10620FFF766FA206310B124
:10135000A16AFFF7B1FC04211920FFF76CFA226B98
:10136000002AE4D0A36AE1691344A3620B78134412
:101370000B70B8E794F82430002BE1D02046BDE88C
:1013800010403821FEF71CBF2DE9F04105463820FA
:10139000884617461E46FFF792FE18B92860284671
:1013A000BDE8F081012380F824300B4BC0F8148095
:1013B00003600A4B077643609DF81830C66180F8D9
:1013C00020309DF81C3080F8213000238360286095
:1013D0004384FFF75EFFE2E793120008E113000881
:1013E000428C42F00102428453E7038C70B5DE0761
:1013F000044608D5132B05D8654A22FA03F3DD0706
:1014000000F1BA80FFDE122BFCD801A252F823F0C3
:101410005D14000805140008651400080514000890
:101420007514000805140008BD1400080514000810
:10143000F5140008051400085D15000805140008DF
:101440003915000805140008871400080514000861
:101450007115000805140008791500080223606161
:10146000238470BD0023C269137042F21072C284DB
:1014700084F82830E3691A78237E9A4212D3A02197
:101480001E20FFF7D8F91920FFF7C6F903066DD51E
:1014900080211920FFF7CFF90023E268237413603D
:1014A0001023DDE794F8281029B10023E2682374A3
:1014B00013600423D4E71E20FFF7BDF91920FFF7BE
:1014C000ABF9000621D580211920FFF7B4F9FFF709
:1014D000ABF90628054684F82400CBD0042816D1A1
:1014E000E38C013B9BB2E384002BC3D1A0211E20DF
:1014F000FFF7A1F91920FFF78FF9010623D5802105
:101500001920FFF798F90123B2E70623A8E700287E
:10151000ECD10620FFF780F984F8290094F82960BF
:101520002563AE4211DC04211920FFF784F9C6B906
:10153000A0211E20FFF77FF91920FFF76DF90206A1
:10154000DDD40C238CE708238AE70120FFF764F938
:101550000022E36820741A600A2381E7056B0135D5
:10156000DCE7E3691A7816441E7083E70E2377E7F9
:1015700000230360122373E794F82230002B3FF41A
:1015800070AF2046BDE870403C21FEF719BE00BF99
:10159000AAAA0A00028C42F00102028425E7038B0A
:1015A00010B5D90704460AD5013B9BB2082B05D8D4
:1015B00040F2551222FA03F3DA0738D4FFDE082B83
:1015C000FCD801A252F823F0ED150008BD15000863
:1015D000EF150008BD150008EF150008BD1500083F
:1015E00005160008BD1500082F1600082061FFF73A
:1015F0001BF9012816D06069FFF7BAF810211E20E8
:10160000FFF719F91920FFF707F903060DD5802117
:101610001920FFF710F9FFF707F900232073236063
:10162000082300E00423238310BD0623FBE7A37EE9
:10163000002BF9D02046BDE810402021FEF7C0BDA8
:1016400038B5044620200D46FFF739FD10B920605B
:10165000204638BD01228276054A45610260054A6E
:1016600042600022826020600283FFF798FFEFE76C
:101670009F15000879160008028B42F001020283D0
:101680008DE7838B73B5DE0704461CD5013B162B13
:1016900018D8DFE813F0F4001700F40017008300F7
:1016A0001700F4001700E0001700F4001700F10025
:1016B0001700F4001700400117005B011700F40049
:1016C0001700F400FFDE162BFCD801A252F823F01D
:1016D0002D170008C51600082F170008C5160008AA
:1016E00063170008C51600083F170008C516000854
:1016F000F7170008C51600081F180008C5160008CF
:1017000061180008C516000895180008C5160008DD
:10171000CD180008C51600081B190008C5160008DA
:101720002B190008C51600087F180008206128231F
:1017300084F823304FF40023864DC4E9095304F1A3
:101740003005284604F12401FFF77AFF2846FEF70A
:10175000A7FD30B90423226BA38323699A6002B0EA
:1017600070BD236B04F130001B7B84F822300D3BED
:1017700018BF012384F82030FEF77EFD94F8203056
:10178000F3B994F82330013BDBB284F823304BB932
:10179000002323730023236016235FE03030FEF71D
:1017A0006BFD6CE046F2A81104F13800A164FFF76C
:1017B0004BFC0623A38302B0BDE87040FFF74CBB8F
:1017C00094F82260002EE3D120211D2004F14C0565
:1017D000FFF731F828460822CDE90066616904F177
:1017E0002103FFF7D1FD2846FEF75AFD18B908235B
:1017F000E26CA383B1E7E36C04F14C001B7B84F83B
:101800002230FEF739FD94F82230002BC0D194F835
:101810002130002BBCD0A0211E20FFF70CF819208E
:10182000FEF7FAFF000618D580211920FFF703F80C
:101830006369A1691B7804F1540584F82C300B68A6
:1018400028461B6898472846FEF72AFD40B90C2316
:10185000626DA38381E74C30A1E70A23A3837EE76F
:1018600004F15400FEF708FD3B4904F15800A1665D
:10187000FFF7EAFB0E239DE75430FEF7FDFCA37F44
:10188000002B3FF46CAF8021204602B0BDE87040D1
:10189000FEF796BC00211C20FEF7CDFF2D4B04F176
:1018A0006C0523670023A4F8743094F82C30284684
:1018B000A4F8763004F17001FFF7C2FE2846FEF767
:1018C000EFFC18B91023E26EA38346E7E36E04F140
:1018D0006C001B7B84F82230FEF7CEFC94F822606B
:1018E000002E7FF455AF20211D2004F17805FEF76E
:1018F000A2FF2846CDE9006694F82C20616904F126
:101900002103FFF741FD2846FEF7CAFC28B9122340
:10191000A26FA38321E76C3041E704F17800FEF762
:10192000ABFCA0211E20FEF786FF1920FEF774FFF6
:1019300001060DD580211920FEF77DFF94F8213096
:1019400094F82C209A1A5342534122E7783026E724
:10195000142383E780060001A0860100828B42F0F9
:10196000010282838DE6038B2DE9F341DE070446F5
:101970002CD5013B262B28D8DFE813F00F012700D8
:101980000F012700CB0027000F0127000C012700C3
:101990000F0127000F012700850127000F012700F5
:1019A0000F012700CC012700E80127000F012700C5
:1019B000300227007E0227000F012700FD022700CA
:1019C0000F0127000A0327000F01FFDE262BFCD89A
:1019D00001A252F823F000BF751A0008CB190008C5
:1019E000771A0008CB190008EF1A0008CB19000875
:1019F0001B1B0008CB190008691B0008CB19000845
:101A0000851A0008CB190008E71B0008CB1900084D
:101A10002B1C0008CB190008551C0008CB19000826
:101A2000931C0008CB190008D11C0008CB19000832
:101A3000191D0008CB190008331D0008CB19000838
:101A4000A11D0008CB190008E11D0008CB190008F2
:101A5000F11D0008CB1900080B1F0008CB19000866
:101A60001B1F0008CB190008811F0008CB190008B4
:101A70009B1B0008206104234FF48070A383FEF7B2
:101A800061FB2062A38B013B9BB2A3832BB9002394
:101A90002373002323602623C5E06669BB4932799E
:101AA00091F86810002A0CBFC923CB23C4F88430F6
:101AB00021B91AB143F00403C4F884301B2094F810
:101AC0008410FEF7B8FE336804F1880528463146D5
:101AD0001B6898472846FEF7E3FB40B90423D4F877
:101AE0008820238323699A6002B0BDE8F08104F165
:101AF0008800FEF7C1FBA64904F19000C4F8A010CD
:101B0000FFF7A2FA0623238302B0BDE8F041FFF7F6
:101B1000A3B98830FEF7B0FB3FE01C200021FEF7A0
:101B20008AFE8020276A666904F1A405FFF7C7FAD8
:101B300050B9C4F8A4002846FEF7B2FBA0B90823A8
:101B4000D4F8A4202383CDE701228277914AC0E90B
:101B500005760260904A426000228260C4F8A400C8
:101B60008283FFF78EFDE6E7D4F8A43004F1A400E9
:101B70001B7B84F88030FEF77FFB94F88030BBB984
:101B80004CF2503104F1A800C4F8B810FFF75CFA29
:101B90000A23B8E7A430FEF76FFBA37E002BA3D087
:101BA0004FF4A071204602B0BDE8F041FEF708BB3B
:101BB000A38B002B3FF46BAF236A04F1240203F1E3
:101BC0001006154618685968083303C5B3422A46FB
:101BD000F7D11B886D4A2B8092F8C23B591C82F8C2
:101BE000C21B84F83630FEF71FFE01281AD04FF4CE
:101BF000A063A4F8C43094F8363004F1C005A4F80A
:101C0000C63000232846C4F8C83004F1C401FFF7E9
:101C100017FD2846FEF744FB38B90E23D4F8C02040
:101C200023835FE70C2323835EE7D4F8C03004F1FD
:101C3000C0001B7B84F83730FEF71EFB4FF47A732D
:101C4000A383A38B013B9BB2A38393B180211E206E
:101C5000FEF7F1FD1920FEF7DFFD050617D58021FF
:101C60001920FEF7E8FDFEF7DFFD84F837000028B5
:101C7000E7D142F2107104F1D000C4F8E010FFF790
:101C8000E3F912233FE7C030FEF7F6FA85E71023A9
:101C9000C9E790F83730002B7FF4F9AE90F8361092
:101CA0001C20FEF7C8FD4FF410233C4804F1E40566
:101CB000C4E93A0304F1E8012846FFF7C1FC2846CD
:101CC000FEF7EEFA20B91423D4F8E420238309E7C1
:101CD000D4F8E43004F1E4001B7B04F1F00584F84F
:101CE0003730FEF7C9FA20211D20FEF7A4FD00239E
:101CF0002846CDE900330922216A04F11E03FFF7CB
:101D000043FB2846FEF7CCFA30B91623D4F8F0206E
:101D10002383E7E6E430B7E7D4F8F03004F1F000CD
:101D20001B7B84F83730FEF7A7FAA0211E20FEF7B0
:101D300082FD1920FEF770FD010609D580211920CA
:101D4000FEF779FDA37F2BB90123A1E6F0309BE7D5
:101D5000182368E7236A114A5B88C4F8FC20002234
:101D600004F1F80528462387A4F80021A4F80231DD
:101D700004F1FC01FFF764FC2846FEF791FA78B9FC
:101D80001A23D4F8F8202383ACE600BF8800002093
:101D9000A0860100831600085D1900088006000275
:101DA00004F1F800FEF768FA20211D20FEF743FD3C
:101DB000002304F582752846CDE9003394F83820D5
:101DC000216A04F11E03FFF7DFFA2846FEF768FADE
:101DD00030B91C23D4F80421238383E6F83053E779
:101DE00004F58270FEF748FAA0211E20FEF723FDBD
:101DF0001920FEF711FD020641D580211920FEF7BA
:101E00001AFDA37F002B9FD00025236A624E5A88BB
:101E1000C4E90F331344636404F1240304F13C0761
:101E2000A364E56706F11008C4E91355C4E9155524
:101E3000606C236CE26C834250D312BBE36F002BC7
:101E400074DD4FF41063A4F82431E36B04F590754E
:101E50005B792846A4F82631C4F8282104F592714C
:101E6000FFF7EEFB2846FEF71BFA00284DD1202392
:101E7000D4F82021238335E600F5827004E71E2381
:101E8000D1E6C4E94466C4F81881D4E945329342E6
:101E9000CAD01868C4F80C31036839461B689847E3
:101EA000C4F81C01A0B1E36F032B11D894F83620BD
:101EB000817802706269127962F382015A1C817022
:101EC000E267D4F80C2104EBC3031268C3E91720BE
:101ED000D4F814310433C4F81431D6E759780429FE
:101EE00006D1002ACDD1E3641A7813442364A0E715
:101EF000052906D193F90220002AB4BF2365636542
:101F0000F2E7212908BFA365EEE704F59070FEF71C
:101F1000B3F980211E20FEF78EFC1920FEF77CFC11
:101F200003062BD580211920FEF785FC4FF4807124
:101F3000206AFEF745F90023E26FC4F830319A4277
:101F40007FF702AF04EBC30204EBC303D96D5C322D
:101F5000C4F834210A6804F59C75566828461A6E40
:101F6000B047D4F838215AB12846FEF799F938B964
:101F700024232383B6E500F5907085E6222352E6FC
:101F800004F59C70FEF778F9D4F830310133D3E7CB
:101F900000F59C70BEE500BFD470000838B504465B
:101FA0004FF4A0700D46FFF78AF810B92060204664
:101FB00038BD01228276064A45610260054A4260C8
:101FC0000022826020600283FFF7CDFCEFE700BFB4
:101FD00067190008D91F0008028B42F00102028332
:101FE000C1E4F8B5038B0446DA070CD50F2B09D8EA
:101FF000012248F6AA219A400A4240F0BF800D2BE8
:1020000000F0B980FFDE0E2BFCD801A252F823F0BD
:102010004D20000805200008552000080520000874
:10202000AF20000805200008C72000080520000890
:10203000E3200008052000083121000805200008E1
:1020400053210008052000087D210008022360615B
:1020500023837DE00023574D85F8C13B564BC0E9F3
:1020600009331033C362D4E90A32934216D10123F3
:102070001021112085F8C23BFEF7DDFB20210F2047
:10208000FEF7D9FB4D4904F130002164FEF7DCFF77
:1020900004232383BDE8F840FEF7DEBE1868236200
:1020A00003689B689847A36A0433A362DBE70021B7
:1020B0000F20FEF7C0FB414904F14800A165FEF77F
:1020C000C3FF0623E5E7C1211B20FEF7B4FB202157
:1020D0001920FEF7B0FB04211D20FEF7ACFB6423A2
:1020E0006377637F013BDBB26377002B4FD01F2008
:1020F000FEF792FB00F0C003A377002B4DD14FF405
:10210000FA6104F160002167FEF79EFF0823C0E733
:102110001B20CB21FEF78FFB3846284986F8680044
:10212000C4F8881004F17800FEF78EFF0A23B0E7A8
:1021300000F18C0528462249FFF730FF2846FEF7BC
:10214000AFF830B90C23D4F88C20238363699A60EC
:10215000F8BDD4F88C3004F18C001B7B83F00103B4
:102160002377FEF789F8237F8BB920211920FEF70A
:1021700062FB01230CE08C30FEF77EF8A37E002B7F
:10218000E6D02046BDE8F8409821FEF719B80023B4
:102190002374002323600E235AE70127054E10F015
:1021A000400586F8C17BB3D11B20C921FEF743FB54
:1021B0002846B2E788000020D4700008400D0300D4
:1021C000EC00002038B505469820FEF778FF04465D
:1021D00010B928462C6038BD01238376054B036077
:1021E000054B43600023C0E902330383FFF7F9FE88
:1021F000EFE700BFE31F0008FD210008028B42F05B
:1022000001020283EDE638B5838B0446DA070CD56C
:10221000013B9BB2082B07D8012240F245119A409E
:102220000A424FD1042B4AD0FFDE082BFCD801A272
:1022300052F823F059220008292200085B220008E6
:10224000292200088122000829220008992200087A
:1022500029220008C52200082061606904F12405D4
:10226000FEF7EFFA2846A169FFF7EAF92846FEF7DC
:1022700017F828B90423626AA38323699A6038BDDA
:10228000636A04F124001B7B84F82030FDF7F4FF1F
:1022900080211E20FEF7CFFA1920FEF7BDFA0306B3
:1022A00019D580211920FEF7C6FA94F82030B3FA28
:1022B00083F35B0923730023236008230CE024309D
:1022C000FDF7DAFFA37F002BD9D02046BDE83840C8
:1022D0002C21FDF775BF0623A383D0E770B5044614
:1022E0002C200E461546FEF7EAFE10B92060204667
:1022F00070BD01228277064AC0E905650260054A81
:1023000042600022826020608283FFF77CFFEEE75C
:102310000722000819230008828B42F00102828301
:1023200071E7438C37B5DA0704460DD50B2B0AD875
:10233000012240F60A219A400A425CD1072B00F0A4
:102340008380052B54D0FFDE0A2BFCD801A252F863
:1023500023F000BF812300084723000883230008DF
:1023600047230008AB230008472300080D2400087A
:10237000472300082524000847230008F723000806
:102380002061606904F12805FEF75BFA2846E169DF
:10239000FFF756F92846FDF783FF30B90423A26AF8
:1023A000638423699A6003B030BDA36A04F12800F6
:1023B0001B7B04F12C0584F82730FDF75DFF2021FD
:1023C0001D20FEF738FAE36928469A790023019325
:1023D00094F82030A169009304F12603FEF7D4FF9E
:1023E0002846FDF75DFF88B90623E26A6384D8E7D3
:1023F0002830FDF741FF94F82430002BD3D034214E
:10240000204603B0BDE83040FDF7DABEE36A04F1D0
:102410002C001B7B84F82730FDF72EFFA0211E2007
:10242000FEF709FA1920FEF7F7F903060ED5802109
:102430001920FEF700FA94F8262000234AB1A26979
:102440002360E2600A2302E02C30D2E70823638491
:10245000A9E71A46F4E7428C42F00102428460E7A1
:102460002DE9F04105463420884617461E46FEF702
:1024700026FE18B928602846BDE8F081012380F8BF
:102480002430084BC0E905870360074BC6614360F1
:10249000002380F82030836028604384FFF741FFE9
:1024A000E9E700BF232300085724000838B5038B51
:1024B0000446DA0709D5013B062B05D8DFE803F00F
:1024C0003C043C0439043C00FFDE062BFCD801A28E
:1024D00052F823F0F1240008C9240008F32400086E
:1024E000C924000819250008C92400083925000856
:1024F000E060206904F11C05FEF7A3F92846616934
:10250000FFF79EF82846FDF7CBFE28B90423E269C1
:102510002383E3689A6038BD04F11C00FDF7ACFE2C
:1025200020211D20FEF787F9002323600623238343
:10253000F1E71C30FDF7A0FEA37E002BEBD0204678
:10254000BDE838402421FDF73BBE028B42F001027A
:102550000283ABE7038C10B5DA07044609D50F2BCD
:1025600006D84AF6AA2222FA03F3D80700F182809D
:10257000FFDE0E2BFCD801A252F823F0B92500088B
:1025800071250008BB25000871250008CB2500082F
:102590007125000807260008712500080726000895
:1025A0007125000839260008712500085326000807
:1025B0007125000875260008E0602069FEF741F9E2
:1025C0006269136863625368A362FEF72DF90128FC
:1025D00014D004F12400FEF7CBF810211E20FEF7E2
:1025E0002AF94FF47A7104F130002164FEF72CFDD2
:1025F00006232384BDE81040FEF72EBC0423238469
:1026000010BD0823FBE71920FEF706F90106F8D5EF
:1026100080211920FEF70FF980211D20FEF70BF90C
:10262000E169207EFEF71CFB0720217EFEF703F9FF
:1026300020211E20FEF7FFF81920FEF7EDF8020614
:1026400014D580211920FEF7F6F880211E20FEF710
:10265000F2F81920FEF7E0F8030609D580211920C9
:10266000FEF7E9F8002323600E23C8E70A23C6E734
:102670000C23C4E794F82230002BC1D02046BDE8DB
:1026800010404821FDF79CBD028C42F001020284FB
:1026900060E72DE9F04105464820884617461E466A
:1026A000FEF70DFD18B928602846BDE8F08101232A
:1026B00080F8223003760023064AC0E904870260CE
:1026C000054AC6614260836028600384FFF742FFC9
:1026D000EAE700BF5525000889260008C38B73B5BB
:1026E000DA07044609D5013B062B05D8DFE803F0DD
:1026F0006604660463046600FFDE062BFCD801A2B4
:1027000052F823F021270008F926000823270008A3
:10271000F926000879270008F9260008BD270008D7
:102720002061666904F124053046FEF78AF8B37823
:102730001D2013F0010F14BF2021102113F0020FF0
:1027400014BF802340231943FEF775F87378284699
:1027500001930123227F0093A16904F12203FEF774
:1027600013FE2846FDF79CFD30B90423626AE3831B
:1027700023699A6002B070BD636A04F124001B7B78
:1027800084F82330FDF778FD1F206569FEF744F8D3
:10279000AB78C0F3011023F003031843A87094F83A
:1027A0002330042B4FF0000313D11A462360062375
:1027B000E260E383DEE72430FDF75EFD94F820302D
:1027C000002BD7D02C21204602B0BDE87040FDF789
:1027D000F7BCA269EAE72DE9F04105462C208846BE
:1027E00017461E46FEF76BFC18B928602846BDE860
:1027F000F081012380F82030064BC0E90587036093
:10280000054B06774360002383602860C383FFF78E
:1028100065FFEBE7DD2600081D280008C28B42F0AB
:102820000102C2835AE7838A10B5DA07044607D546
:10283000072B04D8AA2222FA03F3DB0730D4FFDEE9
:10284000062BFCD801A252F823F000BF692800082B
:102850003F2800086B2800083F280008732800085C
:102860003F280008A1280008E06001211D20FDF795
:10287000E2FF1D20FDF7D0FF10F0010003D1062379
:102880002060A38210BD4CF2503104F11800A16207
:10289000FEF7DAFB0423A382BDE81040FEF7DCBAA2
:1028A000A37D002BEED02046BDE810403021FDF77F
:1028B00087BC38B5044630200D46FEF700FC10B941
:1028C0002060204638BD01228275064A05610260FB
:1028D000054A42600022826020608282FFF7A3FFE7
:1028E000EFE700BF27280008ED280008828A42F0A1
:1028F0000102828297E7838B70B50446D80709D519
:102900000B2B06D840F6AA2222FA03F3D90700F1CE
:10291000CE80FFDE0A2BFCD801A252F823F000BFC4
:102920004D2900081329000855290008132900081B
:102930008B290008132900087B2A000813290008A6
:102940008B29000813290008AF2A000802232461FC
:10295000A38370BD04F12001D4E905521D2AC4F8F7
:10296000A0102CD8574B03EB820393F8C90BC20776
:1029700025D593F8C82B022A21DCC0F3400085F846
:102980001208B3F8C60BFDF7D9FFD4F8A06033786E
:102990006BB104F1A4052846FEF794F8626992F839
:1029A0001138D90915D06FF3C71382F8113863694C
:1029B00093F811286FF3861283F8112805E095F833
:1029C00011386FF3861385F81138002323600A232A
:1029D000BEE7334613F8012B284684F8B420C4F828
:1029E000A030317884F8B510FEF76DFAD4F8A03035
:1029F0005A1CC4F8A0201A7894F8B53084F8B62090
:102A0000482B03D0462B01D09A2B1CD12E4B12F011
:102A1000010F4CF2503108BF19462C4B12F0020F37
:102A200018BF19462A4B12F0200F18BF194604F19F
:102A3000C000C4F8B810FEF707FB0423A383BDE869
:102A40007040FEF709BA11462846FEF765FA214A9A
:102A500004F1B4062B4603CBB342106051601D460F
:102A600002F10802F6D14CF2503104F1D000C4F862
:102A7000E010FEF7E9FA0623E0E7102200211548EE
:102A800004F0AFFA4CF25031134BD4F8A020C4E953
:102A90003F13107894F8B420904208BF194604F10F
:102AA000E800C4F8F810FEF7CFFA0823C6E7A37FC2
:102AB000002B3FF44EAF2046BDE870404FF48471C8
:102AC000FDF77EBB8800002020A10700A086010042
:102AD000400D0300C60C0020B0AD0100828B42F017
:102AE0000102828307E7F8B5038B0446DA070BD5AA
:102AF000013B9BB2082B06D840F2551222FA03F391
:102B0000DF0700F16381FFDE082BFCD801A252F839
:102B100023F000BF392B0008072B00083B2B0008CF
:102B2000072B0008DB2C0008072B00083B2D0008B2
:102B3000072B0008CD2D0008E0600023616904F137
:102B4000210204F14005C4E90923284601F11002DD
:102B5000E3612384E163FEF752FA114604F1480071
:102B6000FEF74DFA012604F15007236CD4F848C053
:102B700094F829009C4594F82A1094F82B2040F0F2
:102B8000838094F82830002B14BF01254FF4803542
:102B9000934B00281D6114BF4FF080754FF4807572
:102BA000002914BF4FF000714FF40071002A14BFC8
:102BB0004FF080724FF480728A48A3F580630561FC
:102BC000C3F810141A6194F820302169C3F300127D
:102BD00084F82C20227F03F0100502F0010084F815
:102BE0002D0091F81068F60744BF42F001022277E9
:102BF00091F81028920744BF43F0100384F8203066
:102C0000A38B627FC3F30903E385A37F920842EAA3
:102C10008312C2F309022286E27F1B0943EA0213F0
:102C2000C3F30903638694F82030920942EA8302D1
:102C30000023A28684F8363035B191F810389F070A
:102C40005CBF022384F8363048B191F81038DE07B3
:102C50005EBF94F8363043F0010384F8363094F8C0
:102C60003600002839D040F4A050FDF721FD4FF484
:102C7000FA6104F15800A166FEF7E6F90423238304
:102C8000BDE8F840FEF7E8B81B78A763302B08BF13
:102C900042F001022E2B08BF40F001002F2B08BF8D
:102CA00041F0010184F85030013B84F82B20DAB266
:102CB0002C2A84F8290084F82A100AD804EBE302AD
:102CC00084F82860117F03F0070306FA03F30B432F
:102CD00013772846FDF7EDFA47E7E08DFDF7E8FCAE
:102CE000208E40F48060FDF7E3FC608E40F40060CD
:102CF000FDF7DEFCA08E40F44060FDF7D9FC94F8AF
:102D00002D3094F82C1084F8373019B143F00202BA
:102D100084F83720226992F81028950700D511B160
:102D2000D20710D57BB94FF4FA6104F17000C4F8F2
:102D30008010FEF789F90623A1E790F8370040F4E8
:102D4000A050FDF7B5FC626A137813F0100F14BFA2
:102D50004FF400414FF00041224B1961117811F0FE
:102D6000010F14BF4FF480634FF0806311F0020F26
:102D700014BF4FF400604FF0006011F0080F14BF53
:102D80004FF480514FF0805103430B4314490B61C2
:102D90001378216913F0040F14BF04224FF480222A
:102DA000114B1A6194F82C2094F82D3043EA420319
:102DB00091F8102803F0030322F00302134381F873
:102DC00010380023236008232383F8BDA37E002B43
:102DD000FBD02046BDE8F8408821FDF7F1B900BFDF
:102DE000001001400008014000140140028B42F035
:102DF0000102028377E638B5038B0446D9070DD567
:102E0000013B0E2B09D8DFE803F08C088C088908F9
:102E10008C08A5088C08CA088C00FFDE0E2BFCD895
:102E200001A252F823F000BF652E00081B2E0008F7
:102E3000672E00081B2E0008FB2E00081B2E000822
:102E4000352F00081B2E00083D2F00081B2E000800
:102E50005D2F00081B2E0008892F00081B2E00087C
:102E6000232F0008E060656904F120031022184652
:102E70000021E56104F0B5F840F62132228440F6E5
:102E8000212222852A7904F13003A2842A79C4E917
:102E90001000A285A364626CA36CE1699A421CD104
:102EA0004FF480333F4A04F16405C4E90C230B79E5
:102EB0002846A386072304F1300284F8383004F151
:102EC0003803FFF7E6FB2846FDF7EAF9002835D17D
:102ED0000823626E2383E3680DE004F14C05284665
:102EE000E263FFF7FBF92846FDF7DAF928B9042376
:102EF000E26C2383E3689A6038BD04F14C00FDF76F
:102F0000BBF94FF4FA6104F150002166FEF79CF81A
:102F100006232383BDE83840FDF79EBF4C30FDF704
:102F2000ABF9A37E002BE7D02046BDE838408821CE
:102F3000FDF746B9436C08334364ACE704F1640021
:102F4000FDF79AF9184904F16800A167FEF77CF8CB
:102F50000A23DEE76430FDF78FF9E2E7002300F192
:102F60007C0580F83930C16900F1390300F1300285
:102F70002846FFF78EFB2846FDF792F920B90C236F
:102F8000E26F2383E368B6E704F17C00FDF774F990
:102F90000023E269137623600E232383ACE77C30A1
:102FA000D9E700BF2109000290D0030070B50446A4
:102FB00088200E461546FEF782F810B9206020469C
:102FC00070BD01228276064AC0E904650260054AA6
:102FD00042600022826020600283FFF70CFFEEE770
:102FE000F72D0008E92F0008028B42F0010202834E
:102FF00001E7038B70B5D90704460AD5013B082BBE
:1030000006D8DFE803F06905690566057F056900F4
:10301000FFDE082BFCD801A252F823F04130000853
:10302000113000084330000811300008A7300008B4
:1030300011300008EB30000811300008D9300008CA
:10304000206163691A1DC4E908223633A362D4E9FA
:103050000913994206D10123237300232360082317
:1030600023831FE0E1610B78002B47D04FF48033BE
:10307000394A04F15C05C4E90B230B792846238601
:103080000B7E04F12C0284F8343004F13403FFF792
:1030900000FB2846FDF704F928B90423E26D2383D9
:1030A00023699A6070BD04F15C0004F16005FDF7CE
:1030B000E3F828460823E16904F13502FFF78BFBAA
:1030C0002846FDF7EDF880B90623226E2383236995
:1030D000E7E75C30FDF7D0F8A37E002BE2D0204676
:1030E000BDE870406C21FDF76BB8236E04F1600001
:1030F000DB68A364FDF7C0F8A36C3BB9636A1933BE
:103100006362A4E76030FDF7B7F8E5E704F14C052A
:103110002846FDF7D7FC284694F83510FDF7FCFE4D
:103120000123042B63660DDDE36904F15C060833BB
:103130002A4603CAB24218605960154603F10803D3
:10314000F6D1DBE7234493F8351011B12846FDF79B
:10315000BAFE636E0133E4E72109000238B5044684
:103160006C200D46FDF7ABFF10B92060204638BD3E
:1031700001228276054A45610260054A42600022CA
:10318000826020600283FFF734FFEFE7F32F00082F
:1031900095310008028B42F00102028329E7038B7C
:1031A0002DE9F743DA0704460CD5013B062B08D876
:1031B000DFE813F0F6000700F6000700F300070051
:1031C000F600FFDE062BFCD801A252F823F000BF68
:1031D000ED310008C3310008EF310008C3310008A9
:1031E0004B320008C3310008A13300082061636935
:1031F00003F10802C4E9182203F5B473A366D4E905
:103200001913994206D10123237300232360062357
:10321000238317E00B7AE1651BB9636E583363664D
:10322000EDE704F1740528464B7904F11C02FFF721
:10323000D2FA2846FDF734F838B90423626F2383A5
:1032400023699A6003B0BDE8F083636F04F17400F2
:10325000DB68E366FDF710F8E76E002FDDD0102382
:10326000236700234FF00109E56D6B8105F14B03E6
:10327000C4E91F3305F15708C4F88480D4F880608E
:10328000B04540F0988095F84830F3B1012095F8AA
:10329000313095F83020E98D00903846FDF7E4FD97
:1032A000C0B284F8880095F8323095F83320834214
:1032B00002BF6B8943F002036B8194F888309A4215
:1032C00002BF6B8943F001036B8195F84930F3B17C
:1032D000012095F8393095F83820E98E009038466D
:1032E000FDF7C2FDC0B284F8890095F83A3095F830
:1032F0003B20834202BF6B8943F008036B8194F843
:1033000089309A4202BF6B8943F004036B8195F8C0
:103310004A30002B81D0002095F8413095F84020AC
:10332000E98F00903846FDF79FFD80B2A4F88A002F
:1033300095F84430584383B200B2B0F5B47FA4F896
:103340008C00BFF66AAF0022B0F59E7FA8BFA3F540
:10335000B473244EA8BFA4F88C3002EB4203C3EB35
:1033600003139BB2A3F11601B4F98C0009B2173311
:103370001BB28142A4F89410A4F8963007DC834273
:1033800005DDB318698993F824300B436B81013252
:10339000082AE2D1C4F890203FE77430FCF76CFFB4
:1033A000A37E002B3FF44EAF9C21204603B0BDE826
:1033B000F043FCF705BFA6673178FF290DD02B79C4
:1033C00001223846CDF80090FDF74EFD236F10B175
:1033D0006A891A436A815B0023670136C4F88060FA
:1033E0004CE700BFC070000838B504469C200D466D
:1033F000FDF765FE10B92060204638BD01228276B7
:10340000054A45610260054A4260002282602060F0
:103410000283FFF7C4FEEFE79F3100082134000864
:10342000028B42F001020283B9E6038BF7B5DA079B
:1034300004460FD50B2B0CD8012240F68A019A4086
:103440000A4240F0A380092B00F0C180052B00F058
:103450009A80FFDE0A2BFCD801A252F823F000BFAD
:103460008D340008533400088F34000853340008AA
:103470006135000853340008A135000853340008B2
:10348000AD350008533400088D35000820616569AA
:103490002B7A002B00F094806B7B402B00F2908005
:1034A0002B7C002B00F08C8095F83530002B00F041
:1034B000878095F83630002B00F0828095F8381020
:1034C00031BB04F166031022184603F08AFD40F672
:1034D0002132A4F866200122A4F8682040F62122B7
:1034E000A4F86E206A7C04F17603A4F86A206A7C52
:1034F000C4E91F00A4F87220C4F88430D4F88020F6
:10350000D4F8843061699A4217D1012381F83830A8
:10351000616904F1A40528464B7B04F11C020831C3
:10352000FFF759F92846FCF7BBFE00283ED10823D7
:10353000D4F8A420238323690FE004F188052846EA
:10354000A2670831FEF7CAFE2846FCF7A9FE38B983
:103550000423D4F88820238323699A6003B0F0BD44
:1035600004F18800FCF788FE4FF4FA6104F1900042
:10357000C4F8A010FDF768FD0623238303B0BDE85F
:10358000F040FDF769BC8830FCF776FEA37E002B87
:10359000E4D0B021204603B0BDE8F040FCF710BEF7
:1035A000D0F880300833C0F88030A7E7D4F8A430D2
:1035B00004F1A400DB68E365FCF75EFEE66D56B936
:1035C00001232373002323600A232383C6E7A43047
:1035D000FCF752FEDAE70127656930466B7D2A7DEC
:1035E000698A0097FDF740FCA4F860006B7F2A7F92
:1035F000698B30460097FDF737FCA4F8620095F818
:10360000370048B195F8253095F82420698C30466C
:103610000097FDF729FCC0B20026012784F864005A
:1036200085F82F60022E6569C4F8A86011D9B4F836
:1036300060206B8D13446B85B4F86220AB8D9B1AB0
:10364000AB8594F8642095F82E30134485F82E301D
:10365000B6E795F834303341DB0710D5AA1992F854
:1036600031102B7B0122E06D0097FDF7FDFB08B1C7
:1036700007FA06F095F82F30034385F82F30D4F879
:10368000A8600136CEE738B50446B0200D46FDF7F8
:1036900016FD10B92060204638BD01228276064A08
:1036A00045610260054A4260002282602060028318
:1036B000FFF7BBFEEFE700BF2B340008C136000860
:1036C000028B42F001020283AFE6F8B5038D044697
:1036D000D90708D5152B05D8B24A22FA03F3DA0721
:1036E00000F15882FFDE142BFCD801A252F823F01F
:1036F00045370008E536000847370008E53600087A
:103700009D370008E5360008CF370008E536000889
:10371000DD370008E5360008F9370008E53600080F
:1037200013380008E536000877380008E536000849
:1037300085380008E5360008A1380008E53600089D
:10374000953B000820610025606A04F12C03E366C4
:1037500000F13E03636754222946256784F8985098
:10376000A4F89A50A4F89C5003F03BFC1022294680
:10377000E06E03F036FC0122636F1D60636A83F81C
:103780003C20238C002B00F081810422E3692285F8
:103790001A68236943F8082FD360F8BDC369018C08
:1037A0001B6801391A7C018480F89E2002F0030214
:1037B000022A5ED0032A03D0012A79D1122200E026
:1037C00006222285226942F8083FDA60E5E7C369EC
:1037D0001B681A7CC0F8A0200822F2E7C369D0F861
:1037E000A0101A68137C1B021943C0F8A4300A23E6
:1037F000C0F8A0102385CCE7C369D0F8A0101A68E0
:10380000137C1B041943C0F8A830C0F8A0100C2387
:10381000F0E7C369D0F8A0201B681B7C1B061A4385
:10382000C0F8AC30038CC0F8A020043B238494F88B
:103830009E2002F0FC03742B00F0CF804FD8242B85
:1038400000F0BC803FD8142B00F0B38034D8042B98
:1038500000F0AA80082B00F0DC8094F89E3013F072
:103860000C0302BFA4F89A30A4F89C3084F8983076
:1038700087E70E22A5E7C3691B681A7CC0F8A02061
:1038800010229EE7C369D0F8A0201B681B7C1B0296
:103890001A43C0F8B030038CC0F8A020023BC5E743
:1038A000C3691B681B7CC0F8A030038C013BBDE7DB
:1038B0000023C0F8A030BAE7182BCED1D4F8A0303E
:1038C000A4F89A30C9E7342B7DD0442B00F08080D7
:1038D000282BC2D1D4F8A030A4F89C30BDE7A02B8F
:1038E00000F0AC802DD8902B32D023D8802B2FD055
:1038F000842BB2D1E36E94F8A060DE73626A92F812
:103900005030002B79D00023636784F8B43092F8EC
:103910003C3094F8B4108B4264D8042B00F038810A
:10392000591C9B003E3382F83C10D118616700217E
:10393000D15062E0942B90D1E36ED4F8A0209A731A
:103940008BE7B42B26D008D8A42B10D0B02B84D171
:103950000023002604F1C805F6E0C02B7FF47DAFFC
:10396000236F002B00F012819B68236775E7E36EDD
:1039700004F15C02934200F0038103F1100211464E
:1039800053F8040B934241F8040BF9D1E36E103362
:10399000E36662E7E36E04F12C02934200F0F280EA
:1039A000103BF5E7AAAA2A00E36ED4F8A0205A80BB
:1039B00053E7E36ED4F8A020DA804EE7E36ED4F844
:1039C000A0201A8149E7E36ED4F8A0205A8144E789
:1039D000E36ED4F8A0209A813FE7E36ED4F8A020EC
:1039E0001A703AE701F10E05A80002EB8505AD79E2
:1039F000B5420AD1831D134463670122636A83F8C9
:103A00005020E26E636FD27BEAE7013184F8B41094
:103A10007FE794F89830102B00F0B68002F0030294
:103A2000032AD4F8A01002BFE26E080C50805A1C82
:103A30003C3384F8982024F813100EE7216F626A53
:103A4000B1B92267D4F8A020236F1A70E26E5288B1
:103A50005A8094F8982052B3B4F8781099800123D2
:103A60009A421BD8013A84F8BC3084F89820F4E6D6
:103A700002F10C03C4F8B8103032986810B923670B
:103A80009960DFE7934207D123670523237300235F
:103A900023601423238580E60C33EEE704EB430117
:103AA000B1F878000133A1F87600DBB2D8E7B4F8BA
:103AB0009A20B4F89C109142FFF4CFAE511CA4F8A8
:103AC0009A109A80C9E61346294602F10C0053F871
:103AD000047B834241F8047BF9D11B880B80236F60
:103AE00094F89810C4F8C430D37B84F8C23000290D
:103AF0003AD0B4F87830A4F8CC30012399422AD8CF
:103B0000013984F8DA3084F8981094F89E3084F8FB
:103B1000D96003F0FC03802B84F8D83045D0902B7B
:103B20000CBF0123022384F8D930D4F8A030DB077E
:103B300006D46069A169036804F1C0021B68984754
:103B400094F8BD300133DBB2E26E84F8BD30917B76
:103B50009942B8D881E604EB4300B0F8787001339D
:103B6000A0F87670DBB2C9E7B4F89A30B4F89C10CC
:103B7000994222BF591CA4F89A10A4F8CC30C4E78B
:103B8000012383E7022381E706237FE704237DE700
:103B900007237BE794F82A30002B3FF4FEAD204644
:103BA000BDE8F840DC21FCF70BBB616F4B88A4F843
:103BB000C030127813449BB24B80616AB1F84E203A
:103BC000934238BF1346A1F84E30AEE7028D42F063
:103BD0000102028579E538B5038B0446DD0714D56B
:103BE000013B0E2B10D8DFE813F0B4000F00B40037
:103BF0000F00B1000F00DC000F00B4000F00150132
:103C00000F001E010F00B400FFDE0E2BFCD801A236
:103C100052F823F0513C0008093C0008533C0008CE
:103C2000093C0008A13C0008093C0008833D00084D
:103C3000093C0008AB3D0008093C0008B33D000802
:103C4000093C0008193E0008093C0008533D0008E3
:103C5000E0606169E1610B7823B9002323600E23E2
:103C6000238338BD8B781807F7D443F008038B7093
:103C70004FF400236D4A04F13005C4E90D232846B2
:103C800004F1340304F12002FEF7EAFB2846FCF7B6
:103C900007FB28B90423226B2383E3689A60E0E7DB
:103CA000236B04F13000DB68E362FCF7E5FAE36ABA
:103CB000002BD2D09B78E269D3800023E269E363D2
:103CC000D2889A42C9DD5A49012261644CF25031CE
:103CD00000209A40574DA4F84020013304F14402DB
:103CE0009BB2C4E91315C4E91922A4F84230A4F820
:103CF0004830A4F8543004F15C03A4F84A00A4F856
:103D00005600A165E366A26EE36EE1699A4229D18D
:103D1000A323C4F88C30B4F8423004F18805A4F829
:103D2000903004232846A4F8923004F1200204F1D4
:103D30008C03FEF795FB2846FCF7B2FA002838D131
:103D40000A23D4F888202383E368A7E73030FCF700
:103D500093FAA37E002B84D02046BDE83840B021E2
:103D6000FCF72EBA04F1700528462266FEF7B6FA73
:103D70002846FCF795FA20B90623226F2383E368CF
:103D80008CE704F17000FCF777FA236E04F17800F9
:103D90009968FDF759F908232383BDE83840FDF7FA
:103DA0005BB87030FCF768FAD3E7836E0C33836638
:103DB000A9E7D4F8883004F18800DB68E365FCF7F4
:103DC0005BFAE16D0B78DB072AD5E369B4F84000B4
:103DD0009A8804F1940502439A804A78B4F8420024
:103DE000C2F3400284F89C20134A84F8A400C4F86B
:103DF00098202846C4F8A03004F19801FEF7CEF8C8
:103E00002846FCF74DFA38B90C23D4F894202383C4
:103E1000E36843E788309AE704F19400FCF72CFA52
:103E2000E36B01334AE79430BCE700BFA0060029EA
:103E30002303080023030400F470000870B504464F
:103E4000B0200E461546FDF73AF910B9206020461D
:103E500070BD01228276064AC0E904650260054A07
:103E600042600022826020600283FFF7B4FEEEE72A
:103E7000D73B0008793E0008028B42F00102028322
:103E8000A9E6038B70B5DA07044609D5013B062B7A
:103E900005D8DFE803F05B045B0458045B00FFDE39
:103EA000062BFCD801A252F823F000BFC93E00083F
:103EB0009F3E0008CB3E00089F3E00082F3F0008B1
:103EC0009F3E00084D3F0008206100236269E361C6
:103ED0009188994206DC0123237300232360062383
:103EE000238323E002EBC302002306322262216A0D
:103EF0006362CA889A4202DCE3690133E6E7A322DF
:103F00000426013304F134052846A263A387E6871B
:103F100004F1380304F12802FEF7A2FA2846FCF760
:103F2000BFF920B92369626B26839A6070BD636B09
:103F300004F13400DB682363FCF79EF9226B636AAB
:103F40006AB90133D3E73430FCF796F9A37E002B2E
:103F5000ECD02046BDE870404421FCF731B911781F
:103F6000226A01F0010192881A4102F00102914295
:103F7000E7D00023B0E738B5044644200D46FDF7EE
:103F80009EF810B92060204638BD01228276064A8C
:103F900045610260054A426000228260206002831F
:103FA000FFF76FFFEFE700BF833E0008B13F000857
:103FB000028B42F00102028363E738B5838A04462C
:103FC000DA0709D5013B062B05D8DFE803F04F04DB
:103FD0004F044C044F00FFDE062BFCD801A252F820
:103FE00023F000BF01400008D73F0008034000084D
:103FF000D73F000845400008D73F00086D40000843
:10400000E0601C20FCF708FC20761B20FCF704FC79
:104010001B4B60762362236904F11C051A7B28463A
:10402000A28400229968E28404F12002FEF756F986
:104030002846FCF735F928B90423E269A382E3682E
:104040009A6038BD04F11C00FCF716F91C20217E93
:10405000FCF7F1FB1B20617EFCF7EDFB00232360E6
:104060000623A382EDE71C30FCF706F9A37D002BA5
:10407000E7D02046BDE838402C21FCF7A1B800BFAE
:104080002303040038B504462C200D46FDF717F82D
:1040900010B92060204638BD01228275054A0561AD
:1040A0000260054A42600022826020608282FFF73F
:1040B00084FFEFE7BB3F0008BD400008828A42F062
:1040C0000102828279E72DE9F84F038B044613F051
:1040D000010510D0013B0A2B0CD8DFE813F0B90022
:1040E0000B00B9000B00B6000B00F6000B00F90046
:1040F0000B00B900FFDE0A2BFCD801A252F823F016
:104100002D410008F54000082F410008F540000847
:10411000A7410008F540000863420008F540000888
:104120006B420008F540000851420008E0606669F3
:10413000E6613378002B00F0C380B3781A07C3F32D
:10414000C00700F1BD8043F00803B37040F2816303
:10415000F2886384337922841B02A384737A242037
:10416000E384228504F1220904F12C08FCF7A7FF5F
:1041700058B9E0624046FCF793F8A0B90423E26A1C
:104180002383E3689A60BDE8F88F01228276594A5A
:10419000C0E904690260584A87604260E0620783B0
:1041A000FEF784F9E6E704F12C00FCF765F83C2003
:1041B00094F8208004F1300604F13407FCF77FFF07
:1041C000D8B960632669DC20D4F814B0B4F820A014
:1041D000043604F1380904F18C08FCF770FFF0B9DB
:1041E000C4F88C004046FCF75BF8002839D1062360
:1041F000D4F88C202383E368C4E7012280F82220CE
:104200003E4A80F8188002603D4AC6614260002242
:10421000C0E9022260630284FDF7E7F8D2E70122D9
:1042200080F82A20374AC0E9056B0260364AC76128
:1042300042600022A0F820A0C0F824908260C4F858
:104240008C000285FFF741FACCE72C30FCF714F81C
:10425000A37E002B97D02046BDE8F84F9421FBF7B2
:10426000AFBF04F18C00FCF707F894F83020238CE2
:104270009A4232DB2346E26904F11000167993F882
:104280007670B3F87810B7422FD111F0070518BF38
:10429000012505EBD10594F88830EDB255710BB1CD
:1042A0000135557104F13400FCF7A4FE2069E16981
:1042B00003685B69984718B9E3691860586018810A
:1042C000002323600A2323835DE78C30FBF7D4FFB0
:1042D00004F13400FCF78EFEBAE70823626B2383F7
:1042E000E36843F8082FD3604DE704339842C6D102
:1042F000D1E700BFAD2400084B250008EB130008F0
:1043000095150008CB360008CD3B000870B5044673
:1043100094200E461546FCF7D2FE10B920602046C8
:1043200070BD01228276064AC0E904650260054A32
:1043300042600022826020600283FFF7C4FEEEE745
:10434000C74000086143000892F8463010B50446A3
:104350000BB9137813732046FFF7D8FF204610BD22
:10436000028B42F001020283ADE6438BDA0707D5E8
:10437000072B04D8AA2222FA03F3DB0734D4FFDE8A
:10438000062BFCD801A252F823F000BFA943000875
:104390007F430008AB4300087F430008D543000873
:1043A0007F430008E9430008C060436903620023BB
:1043B000028B43629A4204DC00230360062343839A
:1043C00070470422036942831A68C36843F8082FC0
:1043D000D360704703691B681A7C036A591C016229
:1043E0001A70436A0133E3E7037F13B12C21FBF713
:1043F000E7BE7047428B42F001024283B5E738B511
:10440000838B0446DA0707D5072B04D8AA2222FAA1
:1044100003F3DB0743D4FFDE062BFCD801A252F8DE
:1044200023F000BF41440008174400087544000809
:104430001744000875440008174400089944000810
:1044400002236061A38338BD194B9B8DC3F309031D
:104450002362ABB104F1240102206166FCF7E0F8AD
:104460000021022085F82810FCF72BFC226AE16667
:104470008A4207DC0F4D95F82830002BE4D12362E7
:104480000423DFE7636E5A1C626600221B782374E4
:10449000E3681A600623D5E7C36E591CE6E7837FFD
:1044A000002BD0D0BDE838407421FBF789BE00BF97
:1044B0000060004000000020828B42F001028283F5
:1044C0009DE7838B10B5DA07044607D5072B04D880
:1044D000AA2222FA03F3DB0738D4FFDE062BFCD82E
:1044E00001A252F823F000BF05450008DB44000894
:1044F00007450008DB44000827450008DB440008A6
:104500004D450008E0606369A26923621344636259
:10451000D4E908239A4206D300232360062300E04F
:104520000423A38310BD0E4B93F82930002BF7D141
:10453000D4E90812521A102AA8BF10220220A2623F
:10454000FCF74AFCA36A19442162E1E7A37F002B30
:10455000E8D02046BDE810403021FBF731BE00BF57
:10456000000000202DE9F04105463020884617461E
:104570001E46FCF7A4FD18B928602846BDE8F08166
:1045800001238377064BC0E904870360054B8661EE
:1045900043600023836028608383FFF792FFECE78A
:1045A000C3440008A9450008828B42F001028283BF
:1045B00087E7F8B5838A044613F001070ED0013B64
:1045C000082B0AD8DFE813F0D9000900D900090048
:1045D000D6000900EB000900D900FFDE082BFCD84B
:1045E00001A252F823F000BF0D460008DB45000889
:1045F0000F460008DB45000849470008DB45000876
:104600008D470008DB4500087B470008E06004F1A7
:104610002606304604F13605FCF754FA2846FCF726
:1046200051FA492345220021A4F8623004F11C000C
:1046300002F0D7FC0123A3611023A384594B9A6C89
:1046400003F62310E261DA6C93F86C1C226293F893
:10465000852C114303F6131252F804CB824246F81C
:1046600004CBF9D1504A02F1100052F8046B824297
:1046700045F8046BF9D193F8902C93F86D0C003A3F
:1046800018BF012284F84E2093F8542C024314BF23
:1046900001220022042084F84F2093F82C2E84F865
:1046A0005020B3F8B22CA4F85220B3F8B42CA4F8DC
:1046B000542093F9B62CA4F8562093F87820A4F847
:1046C0005A203A4A157C0DB1558A2F43013802F120
:1046D0005802F7D184F85C10D3F8342904F164054A
:1046E000003A18BF012284F85E2093F8302E284645
:1046F00084F85F205A8821699201C4F846201A88FC
:10470000A4F858709201C4F84A2093F8C12B93F88A
:10471000313E84F85D20264AD2F8042184F86030C6
:10472000003A18BF0122022384F8512004F16202EA
:10473000FFF718FF2846FBF7B3FD28B90423626E84
:10474000A382E3689A60F8BD04F1640004F168058F
:10475000FBF792FD28464923216904F11802FFF76F
:1047600001FF2846FBF79CFD80B90623A26EA382B9
:10477000E368E7E76430FBF77FFDA37D002BE2D021
:104780002046BDE8F8407021FBF71ABD04F168002F
:10479000FBF772FD002323600823A382D3E7683070
:1047A000E9E700BF88000020AB0900204C0D002085
:1047B00000802142828A42F001028282F9E6038B64
:1047C00070B5DA0704460AD50B2B07D8012240F64C
:1047D0002A219A400A424ED1072B49D0FFDE0A2BEC
:1047E000FCD801A252F823F015480008DD47000864
:1047F00017480008DD47000827480008DD47000883
:1048000065480008DD47000889480008DD470008C2
:1048100077480008E0604FF40073E36104F120037F
:10482000236600236366FCF761F8C30717D4266E7E
:10483000B4F86400314604F16C05FCF7ABF8284687
:10484000402332462169FFF78DFE2846FBF728FDFD
:1048500040B90623E26E2383E3689A6070BD0423A7
:104860002383FBE704F16C00FBF706FD0823F7E761
:104870006C30FBF701FDA37E002BEFD02046BDE896
:1048800070407421FBF79CBC436E0133B3F5007F8D
:104890004366C8DB002303600A23E1E7028B42F092
:1048A000010202838BE7038BDA0707D5072B04D8B5
:1048B000AA2222FA03F3DB0733D4FFDE062BFCD84F
:1048C00001A252F823F000BFE5480008BB480008E9
:1048D000E7480008BB48000801490008BB48000839
:1048E00023490008C0604369C361002303620422B6
:1048F000036902831A68C36843F8082FD3607047BE
:1049000003691B681A7CC369591CC1611A70036A68
:1049100001330362002BEAD00023036006230383E4
:104920007047837E13B12821FBF74ABC7047F8B566
:10493000038B0446DA070CD5013B9BB2082B07D842
:10494000012240F245119A400A4257D1042B52D01D
:10495000FFDE082BFCD801A252F823F081490008A1
:10496000514900088349000851490008D14900080D
:1049700051490008214A000851490008FD49000832
:10498000E06004F11C00FCF79DF82820676904F141
:104990002C0604F13005FCF792FB50B92063284641
:1049A000FBF77EFCA0B90423226B2383E3689A60A3
:1049B000F8BD012282761F4AC0E9047602601E4AD1
:1049C00042600022826020630283FFF76CFFE6E70B
:1049D00004F13000FBF750FC002394F82C206363B3
:1049E0009A4214DC04F11C00FBF77DFC00232360D9
:1049F00008232383DCE73030FBF73EFCA37E002B4B
:104A0000D6D02046BDE8F8403C21FBF7D9BB0622B2
:104A1000636922831A68E36843F8082FD360C7E705
:104A200043691C301B68197CFCF74DFA636B01333A
:104A3000D3E700BFA7480008474A0008028B42F0AE
:104A40000102028373E7028B42F0010202832AE72C
:104A5000038BDA0707D5072B04D8AA2222FA03F31F
:104A6000DB0732D4FFDE062BFCD801A252F823F07C
:104A70008D4A0008654A00088F4A0008654A000808
:104A8000A94A0008654A0008CB4A0008C06043698B
:104A9000C361002303620422036902831A68C368A6
:104AA00043F8082FD360704703691B681A7CC369F9
:104AB000591CC1611A70036A0133032B0362EAD9DE
:104AC00000230360062303837047837E13B12821EC
:104AD000FBF776BB704770B5044628200E46154696
:104AE000FCF7EDFA10B92060204670BD01228276F5
:104AF000064AC0E904650260054A426000228260FD
:104B000020600283FFF7A4FFEEE700BF514A0008D0
:104B1000154B0008028B42F00102028398E7038BD9
:104B2000DA0707D5072B04D8AA2222FA03F3DB07FA
:104B300033D4FFDE062BFCD801A252F823F000BFCD
:104B40005D4B0008334B00085F4B0008334B0008F7
:104B5000794B0008334B00089B4B0008C060436949
:104B6000C361002303620422036902831A68C368D5
:104B700043F8082FD360704703691B681A7CC36928
:104B8000591CC1611A70036A0133012B0362EAD90F
:104B900000230360062303837047837E13B128211B
:104BA000FBF70EBB704770B5044628200E4615462D
:104BB000FCF785FA10B92060204670BD012282768C
:104BC000064AC0E904650260054A4260002282602C
:104BD00020600283FFF7A3FFEEE700BF1F4B000832
:104BE000E54B0008028B42F00102028397E7F8B51B
:104BF000038B0446DA0718D5112B09D8062B08D8E1
:104C0000052B63D0062B03D023F00203012B60D0C9
:104C1000FFDE01229A4012F42A3F5AD1092B00F0FC
:104C2000B280072BF4D1A43051E0102BF0D801A2B0
:104C300052F823F0794C0008114C00087B4C000816
:104C4000114C0008A14C0008114C0008E54C00086C
:104C5000114C0008574D0008114C00085F4D00082A
:104C6000114C0008914D0008114C0008A14D00089E
:104C7000114C0008D34C0008E06004F1A005284660
:104C8000616904F11C02FFF78EFF2846FBF708FB61
:104C900030B90423D4F8A0202383E3689A60F8BDD8
:104CA00004F1A00004F1A405FBF7E6FA28466169C7
:104CB00004F11E02FFF777FF2846FBF7F1FA88B9E7
:104CC0000623D4F8A4202383E368E7E7A030FBF7AA
:104CD000D3FAA37E002BE2D02046BDE8F840B821ED
:104CE000FBF76EBA04F1A400FBF7C6FA0023E28BCF
:104CF000C4F8A8309A4203DC00232360102345E067
:104D0000A28B2C201344C4F8AC30676904F1200650
:104D100004F1B005FCF7D3F958B9C4F8B00028463F
:104D2000FBF7BEFAB8B90823D4F8B0202383E368B0
:104D3000B4E7012202771C4AC0E9047602601B4AEC
:104D400042604022028300228260C4F8B0004283A5
:104D5000FFF70BFBE3E704F1B000FBF78DFAFBF77D
:104D6000C5FDC30711D404F160052946B4F8AC00B1
:104D7000FBF710FE4022294604F1200002F05EF904
:104D800060B10C2302E0B030A1E70A23238386E759
:104D900000F12001B0F8AC00FBF7FEFD0E23F5E7B3
:104DA000D0F8A8300133A2E76B430008F5430008B0
:104DB000028B42F00102028319E72DE9F0411C4603
:104DC00090B00D46694680461646FBF7E3FD0CB3EE
:104DD00001216846FBF713FF07463246294668461D
:104DE00002F02CF907B190B14022FF21684602F091
:104DF000F8F832462946684602F04AF91CB101210A
:104E00006846FBF7EBFE69464046FBF7C5FD10B070
:104E1000BDE8F0810127E0E770B505460C4601EBDF
:104E20008216B44200D170BD21462846002340229C
:104E30000135FFF7C2FF4034ADB2F2E72DE9F04192
:104E4000ADF5007D69460020FBF7A4FD0121684611
:104E5000FBF7D5FE002840F0BC80012313227F49D8
:104E6000FFF7ABFF7D4B7E4A03F1100153F8040BB3
:104E70008B4242F8040BF9D1012619889B781180E6
:104E80009370784C6946B4F8405E02222846FBF7DE
:104E900055FD02216846FBF7B2FE18B1BDF800309F
:104EA000012B22D001236946ADF800304FF0020CEF
:104EB00000230F2BD4BF002701275A004432881C3F
:104EC0004A8001F804CFC278013322F0030242EA9B
:104ED00047021E2BC270ECD102216846FBF77EFE12
:104EE000022269462846FFF797FF7A2269465E4804
:104EF00002F0CEF86946B4F8380EFBF74BFD0121FD
:104F00006846FBF77CFEA0B19DF80030012B10D164
:104F10009DF802200AB98DF802309DF8043013B9CB
:104F200001238DF804306B4603CB504BC4F8790055
:104F300059606946B4F83A0EFBF72CFD012168462A
:104F4000FBF75DFE38B19DF80030012B04BFBDF8C2
:104F50000030A4F877306946B4F83E0EFBF71AFD2E
:104F600001216846FBF74BFE50B19DF80030012B44
:104F700006D10098BDF804203D4BC4F871009A801A
:104F8000B4F83C5E69462846FBF704FD01216846FB
:104F9000FBF735FE374918B19DF80030012B2AD0B8
:104FA000284601233D22FFF708FF0025324F07F175
:104FB0007E08785B08224146FFF72EFF785B0822C7
:104FC00008302E4980B20F35FFF726FF3C2DF0D177
:104FD00021E06A46224B04AD144603CCAC42186073
:104FE0005960224603F10803F6D12188A2780026F1
:104FF00019809A7045E76A460B460EAF154603CDF9
:10500000BD42186059602A4603F10803F6D12868AA
:1050100018602A791A71EEB16E4634254FF00108F6
:105020002F462846012216490135FFF7F5FEADB29D
:1050300030462022002101F0D4FF442D86F8108054
:10504000778206F12006EBD108226946B4F8420EB9
:10505000FFF7E2FE0DF5007DBDE8F081F870000875
:10506000BA0E0020880000204C0C00200101002016
:10507000F9000020090100201C7100089A73000843
:105080005971000810B504468E220B490B4801F0F7
:10509000FFFF74B10A4B0B4A03F1100153F8040BE4
:1050A0008B4242F8040BF9D119889B7811809370D8
:1050B00010BDBDE81040C1E60B710008F9000020EA
:1050C000F8700008BA0E0020F8B5038B0446D90723
:1050D00020D5013B1A2B1CD8DFE813F0D9001B00A8
:1050E000D9001B00D9001B00D5001B00D2001B00FB
:1050F0000A011B0031011B0058011B008E011B001F
:10510000B8011B00F4011B00F9011B0023021B0066
:10511000D500FFDE1A2BFCD801A252F823F000BF05
:105120008D510008135100089551000813510008D3
:105130009951000813510008D35100081351000879
:105140007552000813510008EB5200081351000873
:105150003953000813510008875300081351000801
:10516000F35300081351000821540008135100089C
:105170009554000813510008C95400081351000841
:105180001D55000813510008A55100080223206195
:105190002383F8BD0423FBE745697420FBF78FFFE9
:1051A00040B9E0610623E2692383236943F8082FAD
:1051B000D360EEE701228277A54A85610260A54AA5
:1051C00042600022C0E90222E0618283FFF717F902
:1051D000E8E7C3691B7C5A1E80F821300E2A00F2D2
:1051E0008881DFE812F00F005E0060008700AE00EB
:1051F000D500DB00E500E7000B0176017B018601AD
:105200007E0183012C2500F124062A460021304628
:1052100001F0E7FE01234FF48062C4E90A334FF442
:105220000043C4E90E238C4B65621B688B4D2363DE
:105230008B4B8C4FB3F8E03004F1400263632B4694
:1052400003CBBB42106051601D4602F10802F6D14B
:1052500004F1500528462C2332466169FFF782F994
:105260002846FBF71DF828B90823226D23832369FC
:105270009A608EE704F15000FAF7FEFF1A2387E7E1
:105280005030FAF7F9FF04F11C00FBF7B3FEA37EE0
:10529000002B3FF47EAF2046BDE8F8408821FAF7A6
:1052A0008FBFFAF73DFF476900F11C0600F1540576
:1052B0007420FBF704FF48B960652846FAF7F0FF51
:1052C00098B90A23626D23832369D1E7012282768C
:1052D000654AC0E904760260644A42600022826046
:1052E00060650283FFF76BFAE7E704F15400C3E758
:1052F0005430C6E7476900F11C0600F15805B82094
:10530000FBF7DDFE48B9A0652846FAF7C9FF98B952
:105310000C23A26D23832369AAE701228276544AD3
:10532000C0E904760260534A426000228260A065B0
:105330000283FFF75CFCE7E704F158009CE7583074
:105340009FE7476900F11C0600F15C053C20FBF774
:10535000B6FE48B9E0652846FAF7A2FF98B90E23D1
:10536000E26D2383236983E701228276424AC0E902
:1053700004760260414A426000228260E065028356
:10538000FFF7D5FAE7E704F15C0075E75C3078E7F2
:105390000020FFF777FEFBF768FC6FE772B671B687
:1053A000374A3849384801F073FE01F085FE65E759
:1053B0000120EEE7466900F160057020FBF77FFEF3
:1053C00048B920662846FAF76BFF90B91023226E81
:1053D000238323694CE7012282752C4A066102600F
:1053E0002B4A42600022826020668282FFF7E1F849
:1053F000E8E704F160003FE7603042E700F1700544
:1054000000F1640200F11C012846FFF764FB284606
:10541000FAF746FF20B91223226F2383236927E777
:1054200004F1700004F17405FAF726FF284604F130
:10543000680204F11C01FFF74EFB2846FAF730FF23
:1054400040BB1423626F2383236911E7703018E790
:10545000FF430008B9440008002004E0E8F7FF1FFC
:1054600000F7FF1FF8F7FF1FBF4700089D4800081F
:10547000EF4B0008B14D00082F4900083D4A0008D5
:10548000C00100006078000800000020B34500085B
:10549000B547000804F17400FAF7EEFE626E04F1FD
:1054A000780502F100622846A36E6169E266FFF7A3
:1054B00059F82846FAF7F4FE30B91623A26F238371
:1054C0002369D5E67430DCE604F17800D4E6783060
:1054D000D7E60122144B83F8452ECFE60022124B6B
:1054E000F9E70122104B83F8312EC7E600220E4B5C
:1054F000F9E700F1800580F87C30416900F17C0219
:1055000001232846FFF72EF82846FAF7C9FE28B9E6
:105510001823D4F8802023832369A9E604F18000AE
:10552000AAE68030ADE600BF88000020028B42F082
:1055300001020283C8E570B50B4B04460D460822F4
:105540000146B3F8420EFBF7F9F904F5007602358F
:1055500010222146284601F071FD18B12034B442D2
:10556000F6D10024204670BD8800002070B5ADF54E
:10557000107D0546014610A8FFF7DDFF05F1140474
:1055800070B92346124A02F1100152F8040B8A4204
:1055900043F8040BF9D10123AB740DF5107D70BDF8
:1055A000467C6946042E28BF0026408AFBF7F2F9A4
:1055B00023460DEB061202F11006144603CCB4424A
:1055C00018605960224603F10803F6D1E3E700BFF3
:1055D000597100082DE9F041ADF5087D8846074670
:1055E000014608A8FFF7A7FF5FFA88F860B180F8C6
:1055F0001180174B0822B3F8420E08A9FFF70CFCE4
:105600000DF5087DBDE8F0816C466E4680AD0FCD8E
:105610000FC495E80F0008AD84E80F004FF4F07256
:1056200008A910A801F01AFD0FCE0FC594E80F00CD
:1056300008AC85E80F00BB1C8DF83180123722467C
:1056400018685968083303C2BB421446F7D1D0E743
:10565000880000202DE9F04F038B0446D807A9B03D
:105660000BD5092B08D801229A4012F0AA0F40F05E
:10567000E584092B00F0DE84FFDE082BFCD801A2B4
:1056800052F823F0A956000879560008B5560008CC
:1056900079560008E956000879560008155A00089E
:1056A000795600082960000802232461238329B069
:1056B000BDE8F08F41F28831CF4BD04A2362D2E966
:1056C00012325B1842F10002C4E90A32616204F14D
:1056D0003000FBF7F7F9042304F12000238329B0FD
:1056E000BDE8F04FFBF7B8BBC44D95F87A20B5F98B
:1056F000B27CB5F9B46C5743564395F87B3097FBB1
:10570000F3F796FBF3F695F87F300BB195F9B63CBD
:1057100095F8802002B15B4295F87C0095F87E20D8
:10572000584395F87D3090FBF3F095F8B73C42B1C3
:10573000C3F3400223F003015B000A4303F00203BA
:105740001343DB43000103F0070343F0080300F0B9
:10575000F0001843FBF714FCF8B240F48070FBF73C
:105760000FFCF0B240F40070FBF70AFCA44B9B68FE
:1057700003F40073002B14BF0122002285F8302EA1
:1057800004D095F875300BB195F87630D5F83429FA
:1057900022B195F8462E0AB183F0040395F8112939
:1057A000510748BF022295F8111958BFC2F30012E1
:1057B000C1F3C00143EA0103924958BF52001343A9
:1057C0000E460422DBB251F8040B013A0374FAD1FD
:1057D0008D4A06A8A2F11001FBF711FC114608A89A
:1057E000FBF70DFC069B089A934240F0C480002012
:1057F00095F872300BB140F0020095F8473E8342B5
:1058000005D085F8470E40F44070FBF7B9FB04F172
:1058100060052846FBF756F9636993F8112852068C
:1058200004D593F81238002B40F0BA80774BC4E9C6
:105830002566C4F89C30D4E92632934240F0A48017
:1058400004F1400620220021304601F0CAFB04F199
:10585000700806F1614303F580134246294606A805
:105860005F01FBF7CCFB414608A8FBF7C8FB012111
:10587000069B089A934240F0A080E1213046FAF757
:1058800021FDE02103463046FAF71CFDE221834664
:105890003046FAF717FDE52182463046FAF712FD49
:1058A000E42181463046FAF70DFDE62102463046F6
:1058B000FAF708FDE32100903046FAF703FD9B005C
:1058C00043EACB0343EA0A1343EA4913676943EA0D
:1058D0008213009A43EAC213B7F8102843EA002360
:1058E00003F4FE7322F4FE7213433046A7F8103817
:1058F000FAF7E8FC18B9E7213046FAF7E3FC97F825
:105900001138400000F0220023F02203034304F189
:10591000A80687F81138424629463046C4F8A450F4
:10592000FBF76DFB414604F1B000FBF768FB04F1A7
:10593000B809D4F8A830D4F8B020934244D195E8FF
:105940000F0004F1700686E80F0004F1800704F1EF
:10595000300696E80F0087E80F0029463846FBF727
:10596000D9F831464046FBF7D5F895E80F0086E8B0
:105970000F0006239AE61B78482B03D006A8FAF7F7
:1059800098FC2FE7012033E71968C4F890302846C7
:10599000FBF741FBD4F898300433C4F898304AE759
:1059A0002E461B4B03F1100732461868596808331E
:1059B00003C2BB421646F7D142E71B7806A847F858
:1059C0002310FAF776FC53E719780122384684F859
:1059D000B810C4F8A090FBF7B4F800F03F003228EC
:1059E00008BF97F81138304604BF43F0200387F80A
:1059F0001138FAF75EFC9CE7B475000888000020B7
:105A0000000C01409C750008AB090020AC75000833
:105A1000C60C002060691022002100F6230001F06E
:105A2000E0FA626992F810381F0701D45E060ED5BD
:105A3000DD0601D4DB090AD04C2104F14000FAF75D
:105A400041FC20B12E2102F62300FBF73CFA04F1C1
:105A5000700104F1800804F1C00B42465846C4F8B6
:105A6000BC10FBF7CCFA414604F1C800FBF7C7FABB
:105A7000DFF88492D4F8C030D4F8C8209A4240F0BD
:105A8000978004F1DC0504F1900241462846C4F8F1
:105A9000D880FBF7B4FA114604F1E400FBF7AFFA43
:105AA0000027D4F8DC00D4F8E4606369B04203F660
:105AB000130103F6230240F0698204F1F40528463D
:105AC000C4F8F010FBF79BFA114604F1FC00FBF759
:105AD00096FAD4F8F430D4F8FC20934240F069826E
