:1000000048C300006EC300006CC300006AC3000058
:1000100068C3000066C3000064C3000062C3000040
:1000200060C300005EC300005CC300005AC3000050
:1000300058C3000056C3000054C3000052C3000060
:1000400050C300004EC300004CC300004AC3000070
:1000500048C3000046C3000044C3000042C3000080
:1000600040C300003EC30000000000000628040852
:100070000D090A231C22212026271B1A0B0E070F0D
:100080001D050C031E02505A525B544244685756D9
:1000900000000090005561490045004A4700464372
:1000A00067000000000000000000000000000000E9
:1000B00000004B92644D9397949998004568626153
:1000C0001F10111213141918171615000000000044
:1000D0000000000000000000000000000000000020
:1000E0000000000000000000000000000000000010
:1000F0000000000000000000000000000000000000
:1001000000000000000000000000000000000000EF
:1001100000000000000000000000000000000000DF
:1001200000000000000000000000000000000000CF
:1001300000000000000000000000000000000000BF
:1001400000000000000000000100410001A4410087
:10015000000000000000000000000000000000009F
:1001600000000000000000000000000086A8848855
:100170008D898AA39CA2A1A0A6A79B9A8B8E878F0C
:100180009D858C839E82000000000000000000001E
:10019000004100900000005E5548006348005D513A
:1001A000660000005C00000000000000000000008D
:1001B00000004B92964D9397949998004568626120
:1001C0001F10111213141918171615000000000043
:1001D000000000000000000000000000000000001F
:1001E000000000000000000000000000000000000F
:1001F00000000000000000000000000000000000FF
:1002000000000000000000000000000000000000EE
:1002100000000000000000000000000000000000DE
:1002200000000000000000000000000000000000CE
:1002300000000000000000000000000000000000BE
:100240000000000000000000010041000125410005
:10025000000000000000000000000000000000009E
:1002600000000000000000000000000086A8848854
:100270008D898AA39CA2A1A0A6A79B9A8B8E878F0B
:100280009D858C839E8250515253546359685756B2
:1002900000000090005561494A4700425A004E4F05
:1002A000440000000000000000000000000000000A
:1002B00000000000640000000000000000000000DA
:1002C000000000000000000000000000000000002E
:1002D000000000000000000000000000000000001E
:1002E000000000000000000000000000000000000E
:1002F00000000000000000000000000000000000FE
:1003000000000000000000000000000000000000ED
:1003100000000000000000000000000000000000DD
:1003200000000000000000000000000000000000CD
:1003300000000000000000000000000000000000BD
:1003400000000000000000000000000000A4000009
:10035000000000000000000000000000000000009D
:10036000000000000000000000000000000000008D
:10037000000000000000000000000000000000007D
:10038000000000000000000000000000000000006D
:10039000004100900000005E5D4800000000000089
:1003A000000000005C0000000000000000000000F1
:1003B00000004B92964D939794999800456862611E
:1003C0001F10111213141918171615000000000041
:1003D000000000000000000000000000000000001D
:1003E000000000000000000000000000000000000D
:1003F00000000000000000000000000000000000FD
:1004000000000000000000000000000000000000EC
:1004100000000000000000000000000000000000DC
:1004200000000000000000000000000000000000CC
:1004300000000000000000000000000000000000BC
:100440000000000000000000010041000125410003
:10045000000000000000000000000000000000009C
:1004600000000000000000000000000086A8848852
:100470008D898AA39CA2A1A0A6A79B9A8B8E878F09
:100480009D858C839E825051525354005968575613
:100490000000000000556100000000425A004E4F6D
:1004A0004400000000000000000000000000000008
:1004B000000000000000000000000000000000003C
:1004C000000000000000000000000000000000002C
:1004D000000000000000000000000000000000001C
:1004E000000000000000000000000000000000000C
:1004F00000000000000000000000000000000000FC
:1005000000000000000000000000000000000000EB
:1005100000000000000000000000000000000000DB
:1005200000000000000000000000000000000000CB
:1005300000000000000000000000000000000000BB
:1005400000000000000000000000000000000000AB
:10055000000000000000000000000000000000009B
:100560000000000000000000000000000628040851
:100570000D090A231C22212026271B1A0B0E070F08
:100580001D050C031E02101112131419181716154D
:100590001F909511246260000000005B58006766A0
:1005A0004500000000000000000000000000000006
:1005B000000000000000009794999800456862616F
:1005C0001F1011121314191817161500000000003F
:1005D000000000000000000000000000000000001B
:1005E000000000000000000000000000000000000B
:1005F00000000000000000000000000000000000FB
:1006000000000000000000000000000000000000EA
:1006100000000000000000000000000000000000DA
:1006200000000000000000000000000000000000CA
:1006300000000000000000000000000000000000BA
:100640000000000000000000010041000125410001
:10065000000000000000000000000000000000009A
:1006600000000000000000006805680468056805D7
:100670006805680368026801680068056805680421
:100680006805680568056805680468056805680503
:10069000A42511241FBECFEFD8E0DEBFCDBF11E0EF
:1006A000A0E0B1E0EAE3F1E502C005900D92A237C7
:1006B000B107D9F722E0A2E7B1E001C01D92AE3C3C
:1006C000B207E1F713E0C9E4D3E004C02197FE01CB
:1006D0000E941327C834D107C9F70E94F8250C944B
:1006E0002D278ECC9C0180E58CBD459882E28EBD85
:1006F0000DB407FEFDCF8EB5C9010896F901408102
:100700002F5F3F4F4EBD0DB407FEFDCF82179307FD
:10071000A9F7459A089590E59CBD459828E0829FE9
:10072000C001112482608EBD0DB407FEFDCF8EB5D1
:100730006EBD0DB407FEFDCF459A089590E59CBDB2
:10074000459828E0829FC001112482608EBD0DB4BF
:1007500007FEFDCF8EB5FA018E2F841B861710F091
:10076000459A089580818EBD0DB407FEFDCF8EB5EC
:100770008193F2CF90E59CBD459828E0829FC0010F
:1007800011248EBD0DB407FEFDCF8EB5CA01282FF2
:10079000241B261710F0459A08951EBC0DB407FEC1
:1007A000FDCF2EB5FC012193CF01F1CF90E59CBD8B
:1007B000459828E0829FC00111248EBD0DB407FE2C
:1007C000FDCF1EBC0DB407FEFDCF8EB5459A089532
:1007D00024E52CBD43989EBD0DB407FEFDCF8EBD14
:1007E0000DB407FEFDCF439A0895CF93DF939B018D
:1007F000FC014096AB01405F5F4FE817F90719F421
:10080000DF91CF9108956191D901EF01219766237E
:10081000A1F3A417B50789F36D9178817613F9CF09
:100820001882F7CF8093C9028091CA028E7F80938D
:10083000CA0208958091CA0280FF05C08E7F80930E
:10084000CA0281E0089580E00895E82FF92F12820E
:10085000138284818B7F84838D7F84838E7F8483C6
:1008600015820895E62FF72F8681813011F081E0FF
:1008700008958781813011F081E0089580E0089526
:10088000E82FF92F808982FB882780F9268191E063
:10089000261739F0892B908980FB92F9908B66831B
:1008A000089590E0F7CFCF93DF93C82FD92FCE01D3
:1008B000CCDF88898160888B8D7F888B8B7F888B4C
:1008C0001E82DF91CF910895E82FF92F828188232E
:1008D00019F084899589089580E090E008958F92B9
:1008E0009F92AF92BF92CF92DF92EF92FF92A62F8C
:1008F000B72FE42FF52F828190E020813181438151
:10090000442321F05C9145132FC01196812C912C2A
:100910005401C12CD12C7601C39407C02F5F3F4FE7
:10092000CC0CDD1CEE1CFF1CCA01AC01415051096E
:10093000892BE9F0F901F695E795F695E795F69597
:10094000E795EA0FFB1F808190E0B9016770772778
:1009500002C0959587956A95E2F780FFDFCF8C28D6
:100960009D28AE28BF28DACF812C912C5401C501D7
:10097000B401FF90EF90DF90CF90BF90AF909F9029
:100980008F900895E82FF92FA62FB72F8D919C9166
:1009900011979183808318968C911897828315966E
:1009A0008C911597838352968C9152978483569697
:1009B0008C9185830895CF93DF93E82FF92FEF0172
:1009C00088E491E0899399931282138214828EE3D2
:1009D00091E0918380839F012B5F3F4F80E4D90199
:1009E0001D928A95E9F780E090E0DC01AA0FBB1F19
:1009F000AA0FBB1FAA0FBB1FAE0FBF1F28E331E01A
:100A000016963C932E9315978730910511F0019619
:100A1000ECCF9F012B5B3F4FD9011C9211961D9289
:100A20001C92359681E008C0D683C5838783948164
:100A30009B7F948338968F5FE217F307A9F7DF91C6
:100A4000CF910895E82FF92F1282138284818B7F32
:100A500084838D7F84838E7F84839F012B5B3F4FB4
:100A6000D9011C9211961D921C92359605C0848165
:100A70008B7F848312823896E217F307C1F70895BB
:100A80009C0180910A0290910B02280F391F30932C
:100A90000B0220930A02089580910A0290910B02A2
:100AA000861B970B90930B0280930A020895E091A6
:100AB000090221E02E0F20930902F0E0EE0FFF1F44
:100AC000EB50FE4F918380830895CF93DF93C82F1F
:100AD000D92FCB01049799838883E9DFCE01DF9179
:100AE000CF910895CF93DF93C82FD92FCB010497CF
:100AF00099838883DCDFCE01DF91CF910895E09167
:100B00000902E150E0930902F0E0EE0FFF1FEB5005
:100B1000FE4F118210820895CF93DF93C82FD92FF3
:100B200088819981009731F0DC011296ED91FC915A
:100B30000995E5DF19821882DF91CF910895CF934F
:100B4000DF93C82FD92F88819981009731F0DC017C
:100B50001296ED91FC910995D2DF19821882DF91EE
:100B6000CF910895CF93DF93C82FD92F8881998192
:100B7000009731F0DC011296ED91FC910995BFDFF1
:100B800019821882DF91CF9108958FE10FDE8F7067
:100B90000895CF93DF93C82FD92F8FE107DE9A8175
:100BA00084FB90F99A8385FB91F99A83DF91CF9129
:100BB0000895E82FF92F828180FF09C060E28281C9
:100BC00081FF07C080E8682B8DE1A5CD089560E125
:100BD000F6CF80E4F8CFCF93DF93C82FD92F8A8147
:100BE00082FB882780F9811110C069EC70E0909138
:100BF000050192FD02C0811164608BE18CDD68818A
:100C00008CE189DDDF91CF9108956BEC70E0EFCF3F
:100C100009DE80E0089581E08093740180E008950A
:100C2000CF93DF93C82FD92FCB0104979983888363
:100C30003EDFCE01DF91CF910895CF93DF93C82F90
:100C4000D92FCB0104979983888331DFCE01DF91BF
:100C5000CF910895CF93DF93C82FD92F88819981A1
:100C6000009731F0DC011296ED91FC91099547DF78
:100C700019821882DF91CF910895262F372F01977F
:100C800009F008952F3F3F4FE1F78091890290913D
:100C90008A0290930B0280930A02F3CF6FEF7FEFEB
:100CA00081E090E0EACF08959AE0899FF001112455
:100CB000E859F94F9F01265F3F4F8BEB92E044913B
:100CC000DC014C9301963196E217F307C1F70895C2
:100CD000FC019C01205F3F4FDF01E217F30709F49D
:100CE00008958191811102C06C9308958613F4CF09
:100CF000FBCF20E1FC0111922A95E9F70895CF93EB
:100D0000DF93E82FF92F1782158A148A168ADF01DC
:100D100057968CE0ED0119928A95E9F71F9786E0C6
:100D2000ED01982F19929A95E9F71696ED0119920F
:100D30008A95E9F71282138284818B7F84838D7F69
:100D400084838E7F8483DF91CF910895CF93DF9347
:100D5000C82FD92F8C859D8580FF0CC088309105C8
:100D600038F49AEA01C096958A95EAF790FD26C074
:100D70000E9429278430910579F1F0F4009731F130
:100D8000029711F5E885F985108285E791E0998B46
:100D9000888B80E197E29C8B8B8BE885F98590812D
:100DA0008F819817B0F08A898C831982188286E027
:100DB00090E09D878C8705C0069731F48E85811160
:100DC00050C0DF91CF9108950E942927DE83CD8303
:100DD000D9CF6B858EE19FDC89E1E8DC88232CF09C
:100DE00084E090E09D878C87ECCF60E889E193DC1C
:100DF000CCDE8A8B863089F2843021F0882371F032
:100E00008C83D3CF9A859111F9CF2B893C892150BE
:100E100031093C8B2B8B232B89F3BFCF86E0C6DCBB
:100E2000682F90E09E8B8D8B892B51F464E089E1D3
:100E300072DC8D899E89009741F48A898C83B5CFB5
:100E40004889598981E096DCF1CF28893989280FB2
:100E5000391F398B288BE885F9859081890F80832C
:100E60009CCF69E170E0CE0117DEABCFBF92CF928D
:100E7000DF92EF92FF920F931F93CF93DF93E82EB1
:100E8000F92EB62EC42ED52E122F89E190E0F8DD72
:100E9000C82FD92F209719F181E08E8786EA96E036
:100EA0009983888383E797E09B838A83BF82C88680
:100EB000D9861A870B87BE016C5F7F4FC701B0DEF2
:100EC0001D861C86CE0142DFC701DF91CF911F91A5
:100ED0000F91FF90EF90DF90CF90BF900895F701B2
:100EE00011821082F1CFE82FF92F848595858160DA
:100EF00095878487CF012ACF0895CF93DF93C82F9A
:100F0000D92F89859A8580FF15C081309105D9F048
:100F1000009771F08A30910558F48330910540F0C4
:100F2000039795E501C096958A95EAF790FD0BC069
:100F30000E9429278430910581F058F08630910570
:100F4000F9F0089791F48B8581112FC0DF91CF9133
:100F50000895009761F0029741F417DE813051F453
:100F600084E090E09A878987F1CF0E942927DE8369
:100F7000CD83F3CF8F819885B5DB60E18EE1CBDB4C
:100F800089E114DC88232CF086E090E09A87898739
:100F9000DDCF60E889E1BFDBF8DD8C831982188240
:100FA00088E090E09A878987D1CF60E170E0CE0138
:100FB00073DDCCCFEF92FF920F931F93CF93DF930C
:100FC000082F192FE62EF72E80E190E059DDC82F6B
:100FD000D92F2097E9F081E08B878DE797E09983FF
:100FE00088838CE098E09B838A83EF82F886BE0139
:100FF0006C5F7F4FC80114DE1A861986CE017DDF33
:10100000C801DF91CF911F910F91FF90EF9008954C
:10101000F80111821082F4CFE82FF92F8185928593
:10102000816092878187CF0168CF08950F93CF9316
:10103000DF93C82FD92FEA85FB85E0FF0AC03197DF
:10104000E731F10520F4E15DF84D0C9413270E947F
:101050002927E731F10520F4EA5BF84D0C941327BA
:101060000E942927DE83CD8388E2898B88E0FE01F8
:101070007296DF011D928A95E9F780E88A8B86E0F7
:101080008B8B80E091E09D8B8C8B898590E0998F94
:10109000888FBE016E5E7F4FCE014B968BDFEB8D4E
:1010A000FC8D309749F080819181892B29F084E073
:1010B00090E09B878A871DC0EB8DFC8D8481888B97
:1010C00091E08D3071F09E87CE014B96C3DD8E8509
:1010D00081111CC089898150898B81110EC01C82AD
:1010E00041C090E0F0CFCE014B96B4DD8C858111EC
:1010F000EEC0DF91CF910F91089589E189DD80E005
:101100008ADD86E090E09B878A87F3CF88898823F1
:1011100011F01C8227C060E28DE1FDDA698500E0F4
:1011200020E0AE01415F5F4FCE014E969FDEEE8D17
:10113000FF8D309749F080819181892B29F088E0DB
:1011400090E09B878A87D5CFEE8DFF8D8481888B39
:10115000CE014E967FDD8889811103C08F85811174
:101160000CC01C821982188286E190E09B878A87D6
:10117000C0CFCE014E966EDDB9CF60EA8EE1CBDAFC
:1011800089E114DB88232CF08AE090E09B878A8732
:10119000B0CF60E889E1BFDA809175018A8F6F81F5
:1011A0007885DB01ED91FC910190F081E02DCE017D
:1011B00081960995E9A1FAA1309749F08081918142
:1011C000892B29F08CE090E09B878A8792CFCE0113
:1011D0008196A2DC88EC1CDD80E01DDD8EE090E0D5
:1011E0009B878A8786CFCE01819696DC7FCF60E091
:1011F0008CE191DA9F858A8D981303C081E08C83FE
:10120000B1CF90E89EA396E09FA320E031E039A7FC
:1012100028A71BA61AA690E09DA78CA7BE016A5D11
:101220007F4FCE018496C6DEECA1FDA1309749F038
:1012300080819181892B29F080E190E09B878A87CA
:1012400058CFECA1FDA18481888BCE01849602DD6C
:101250008889882331F01C8285CFCE018496FADC00
:1012600045CF60E28DE157DA6A8D00E020E0AE0103
:10127000415F5F4FCE018E96F9DDEEA5FFA5309759
:1012800049F080819181892B29F082E190E09B8750
:101290008A872FCFCE018E96DDDC60EA8EE13BDAC5
:1012A00089E184DA88234CF084E190E09B878A8787
:1012B00020CFCE018E96CEDC19CF60E889E12BDA03
:1012C0002F859A8D81E0291380E08C834BCF62E3D8
:1012D00070E0CE01E1DB0DCFDF92EF92FF920F9332
:1012E0001F93CF93DF93082F192FD62EE72EF42EBE
:1012F00082E390E0C5DBC82FD92F2097F9F081E079
:101300008C8786E198E09983888382EA99E09B83C1
:101310008A83DF82E886F986BE016C5F7F4FC80151
:10132000D4DB1B861A86CE0181DEC801DF91CF9106
:101330001F910F91FF90EF90DF900895F8011182B7
:101340001082F3CFE82FF92F8285938581609387F0
:101350008287CF016BCE0895CF92DF92EF92FF92FA
:101360000F931F93CF93DF93C82FD92FE985FA8569
:10137000E0FF0AC03197E532F10520F4E35AF84D59
:101380000C9413270E942927E532F10520F4EE572B
:10139000F84D0C9413270E942927DE83CD8384E027
:1013A00090E09E878D878D859E8501979E878D878E
:1013B000892B69F48D859E85892B09F0ABC01C8231
:1013C0001982188284E290E09A87898746C089EC66
:1013D00090E09E8F8D8FEF81F885848182FF04C01D
:1013E0008BEC90E09E8F8D8F8091050182FD08C06F
:1013F000848182FF05C08D8D9E8D84609E8F8D8F30
:101400006D8D8BE188D96F817885DB01ED91FC9141
:101410000190F081E02DCE014F960995EF8DF8A156
:10142000309749F080819181892B29F084E090E008
:101430009A87898712C0CE014F966EDB88ECE8DB75
:1014400080E0E9DB86E090E09A87898706C0CE01DC
:101450004F9662DB8B8581114BC2DF91CF911F913B
:101460000F91FF90EF90DF90CF90089560E08CE1B6
:1014700052D96F817885FB01848182FF11C048E0D9
:10148000CE01829629DFEAA1FBA1309759F0808135
:101490009181892B39F088E090E09A878987DDCFA8
:1014A00040E4EECFEAA1FBA184818C8FCE0182962D
:1014B00046DB8C8D81117ECF6F81788548E0CE012F
:1014C00084960ADFECA1FDA1309769F080819181BB
:1014D000892B49F08AE090E09A878987BECFCE01B8
:1014E00082962DDBB7CFECA1FDA184818B8FCE013D
:1014F000849625DB8B8D81115DCF82E389DB80E0D3
:101500008ADB8CE090E09A878987A7CFCE0184960A
:1015100016DBA0CF80917901888B8091000191E04A
:10152000980F90930001898B30DB813029F48EE095
:1015300090E09A87898791CF1AA685E08BA7898941
:1015400090E09DA78CA71FA61EA619AA18AABE01E7
:10155000665D7F4FCE0188962DDDE8A5F9A5309711
:1015600049F080819181892B29F080E190E09A8770
:10157000898773CFE8A5F9A584818A8BCE018896E7
:1015800069DB88EE93E09E878D878D859E85019728
:101590009E878D87892B69F48AE03ADB80E03BDB0C
:1015A00084E190E09A87898758CFCE01889652DBF4
:1015B00051CF60E88EE1AFD889E1F8D888232CF0CC
:1015C00082E190E09A87898748CF60E889E1A3D8D3
:1015D000DCDA8A8B882301F3D8CF8A89882311F03B
:1015E0001C82EECE69898CE196D8EF81F8858989D5
:1015F000828388E0E6E0F1E0DE01D69601900D926C
:101600008A95E1F7BE016A5C7F4FCE01C496D2DCB9
:10161000ECA9FDA9309749F080819181892B29F0AF
:1016200086E190E09A87898718CFECA9FDA984818B
:101630008A8BCE01C4960EDB60E28DE16CD800E0AF
:1016400020E0AE01415F5F4F69E0CE01CE960EDC37
:10165000EEADFFAD309769F080819181892B49F023
:1016600088E190E09A878987F8CECE01C496F2DAB5
:10167000F1CEEEADFFAD84818A8BCE01CE96EADA53
:1016800060EA8EE148D889E191D888234CF08AE15C
:1016900090E09A878987E1CECE01CE96DBDADACE6A
:1016A00060E889E138D88F85811103C081E08C839F
:1016B00087CE20917701309178013C8B2B8B90E085
:1016C0002817390709F47BC02138310518F081E06B
:1016D0008C8376CE80E8BE016D5B7F4FDB018C93FF
:1016E00086E0FE01EC5BFF4F808380E092E0319664
:1016F00091838083329611821082329631832083C7
:101700007E01B1E4EB0EF11CC70154DCD701ED9171
:10171000FC91309749F080819181892B29F08CE1EF
:1017200090E09A87898799CECE018F5B9F4FDC012D
:10173000ED91FC9124812A8B8DDA60E28DE10E948B
:101740008B036B8900E020E0AE01415F5F4F7E01BB
:10175000BBE4EB0EF11CC70189DBD701ED91FC91D5
:10176000309771F080819181892B51F08EE190E06A
:101770009A87898772CECE018F5B9F4F6BDA6ACED4
:10178000CE01855B9F4FDC01ED91FC9124812A8B7A
:1017900061DA60EA8EE10E948B0389E107D8882331
:1017A00054F080E290E09A87898757CECE01855B1E
:1017B0009F4F50DA4FCE60E889E10E948B038F85FE
:1017C000811103C081E08C83FBCDE5E7F1E0FE8B66
:1017D000ED8BF88FEF8B228133813A8F298FED8942
:1017E000FE89CF01855791408217930708F07DC08D
:1017F0008181843039F080818E0F9F2F911D9E8BC7
:101800008D8BEDCF8091720190917301FE01EF5AA3
:10181000FF4F918380833296918380833296069620
:10182000918380831AC0CE01895A9F4FDC01ED91CC
:10183000FC9124817E01BEE4EB0EF11CF7012083B4
:101840007ED9D7018C9181114AC0FE01ED5AFF4F1C
:1018500080819181029691838083FE01ED5AFF4F32
:101860000190F081E02DDE01AB5ABF4F8D919C912C
:10187000E817F907B9F1DE01A15BBF4FED93FC93C7
:10188000608171816115710501F3DB01ED91FC91BE
:101890000190F081E02DED88FE880F89188D288950
:1018A0004F8158854E5F5F4F6E01B7E5CB0ED11C5F
:1018B000C6010995D601ED91FC91309709F4B3CF9B
:1018C00080819181892B09F4AECF82E290E09A87E2
:1018D0008987C3CDCE01895A9F4F31D9BBCD81E0D5
:1018E0008C836ECD81E08C836BCD81E08C8368CD61
:1018F0006AE570E0CE01D0D8B0CDEF92FF920F93A1
:101900001F93CF93DF93082F192FE62EF72E8AE52A
:1019100090E0B6D8C82FD92F2097E9F081E08B87C7
:101920008CEA99E0998388838FEA9CE09B838A8381
:10193000EF82F886BE016C5F7F4FC801C6D81A8659
:101940001986CE0109DDC801DF91CF911F910F915A
:10195000FF90EF900895F80111821082F4CFE82FE4
:10196000F92F81859285816092878187CF01F4CCA0
:101970000895CF93DF93C82FD92FEF81F885E0FF2B
:101980002AC0ED30F10509F4EDC038F0EF30F10573
:10199000F9F4CE018596D3D812C0EA30F105A8F447
:1019A000E330F10550F0339785E501C08695EA955F
:1019B000EAF780FD04C00E9429273197E1F7898565
:1019C000811121C1DF91CF9108953B97C1F3F3CFEE
:1019D0007197A9F3F0CFE131F10520F4E955F84D05
:1019E0000C9413270E942927DE83CD8310920301D4
:1019F0008091720190917301998B888B9B8B8A8B5C
:101A000006969D8B8C8B10C0FF87EE87808191811D
:101A1000DC01ED91FC910280F381E02D09958A892A
:101A20009B8902969B8B8A8BEA89FB898C899D898D
:101A3000E817F90749F781E08093000110927401DB
:101A400068E085E10E948B0360E181E10E948B03E5
:101A500060E28FE00E948B0388ECDAD880E0DBD86C
:101A600084E090E098878F83ADCF60E08FE00E94A4
:101A70008B0388ECCDD880E0CED886E090E09887C4
:101A80008F83A0CF60E085E10E948B0361EC8BE146
:101A90000E948B0360E289E10E948B0364E08DE188
:101AA0000E948B0384E68C878C8581508C87811102
:101AB00019C08C85882309F44EC08D8586FF22C00D
:101AC0006BEC8BE10E948B03E5E0F1E080818460A8
:101AD000808388EC9DD880E09ED88AE090E098874B
:101AE0008F8370CF8FE10E94D603807C8D87811118
:101AF000E0CF82E08DD880E08ED888E090E09887B3
:101B00008F8360CF69EC8BE10E948B03E5E0F1E00D
:101B100080818B7F8083DDCF61E071E0CE014A96CA
:101B2000ECDEEA8DFB8D309749F080819181892B25
:101B300029F08CE090E098878F8344CFEA8DFB8D6D
:101B4000848191E089278B87CE014A960E949F0568
:101B50008B85882361F01982188280E190E0988754
:101B60008F8330CFCE014A960E949F0528CF68E030
:101B700085E10E948B0360E289E10E948B0389E189
:101B80000E94D60385FDE7CF809172019091730189
:101B900098A38F8F9AA389A306969CA38BA312C0A8
:101BA000EDA1FEA1848191E089278C8FCE018596DD
:101BB0000E949F058C8D8111CECF89A19AA102969A
:101BC0009AA389A3E9A1FAA18BA19CA1E817F9071F
:101BD000B1F2FE8FED8F60817181DB01ED91FC919F
:101BE0000480F581E02DCE0185960995EDA1FEA139
:101BF0003097B1F280819181892B91F28EE090E053
:101C000098878F83DFCE68E270E0CE010E944C059A
:101C1000D9CE0F931F93CF93DF93082F192F88E20C
:101C200090E00E944005C82FD92F2097D1F081E085
:101C3000898789EB9CE09983888388E99EE09B8370
:101C40008A83BE016C5F7F4FC8010E9472051886AF
:101C50001F82CE018EDEC801DF91CF911F910F91BF
:101C60000895F80111821082F6CFCF93DF9300D050
:101C7000CDB7DEB7E5EFF1E084E1DF011D928A9593
:101C8000E9F7109209028091890290918A0290935B
:101C90000B0280930A02CE010196BBDF1A821982E1
:101CA000CE0101960E948C050F900F90DF91CF918D
:101CB00008959093730180937201D7CF08950F9385
:101CC0001F93CF9380917401811104C0C0910902C8
:101CD000C15008C00E941A04882311F110927401A7
:101CE000F5CFC1500C2F10E0F801EE0FFF1FEB50A5
:101CF000FE4FA081B1811097A1F3ED91FC91119756
:101D0000309779F3CD010995000F111FF801EB50C1
:101D1000FE4F0190F081E02D80819181892B21F08F
:101D2000CF911F910F910895C111FACF9EDFF8CF87
:101D3000E82FF92F87819085816090878783CF0175
:101D400018CE0895CF93DF93C82FD92F8B859C850C
:101D500080FF17C08530910509F451C038F08730F5
:101D6000910549F0099739F00E94292781309105A2
:101D700011F00397C9F78D85811156C0DF91CF917E
:101D800008958430910529F138F08630910569F184
:101D9000089789F30E9429270097C1F00297D1F78D
:101DA00089859A850E94EB056F817885CE014096E2
:101DB00001D9E889F989309761F080819181892B77
:101DC00041F084E090E09C878B87D8CFDE83CD8381
:101DD000E7CFE889F98984818F87CE0140960E94F8
:101DE0002A0660E88EE10E948B0389E10E94D603F7
:101DF000882354F086E090E09C878B87BFCFCE018C
:101E000040960E942A06B7CF60E889E10E948B03C2
:101E10009F8581E0911180E08C831982188288E08F
:101E200090E09C878B87AACF64E170E0CE010E948E
:101E30004C05A4CFCF92DF92EF92FF920F931F93A6
:101E4000CF93DF93082F192FC62ED72EE42EF52E11
:101E500084E190E00E944005C82FD92F209711F10E
:101E600081E08D8782EA9EE0998388838EE090E10D
:101E70009B838A83CF82D886E986FA86BE016C5F0F
:101E80007F4FC8010E9465051C861B86CE015ADF64
:101E9000C801DF91CF911F910F91FF90EF90DF90DC
:101EA000CF900895F80111821082F2CFCF93DF9383
:101EB000C82FD92F89859A8580FF14C08530910558
:101EC00009F463C058F48130910511F0039741F48F
:101ED0008B8581115FC0DF91CF9108950797C1F382
:101EE0000E94292784309105E9F1A0F50097B9F106
:101EF000029799F58CE10E94D6038D878BE10E94B1
:101F0000D6038E8788E0BE01615F7F4FFB0111928F
:101F10008A95E9F783E28F8783E0888B84E090E0FD
:101F20009A8B898BEF81F885878190E09C8B8B8BD6
:101F300045815681CE0147967DDFEF89F88D309738
:101F400089F080819181892B69F084E090E09A8703
:101F50008987C1CF069709F4BBCF0E942927DE836A
:101F6000CD83C8CFCE0147960E949F056D858CE139
:101F70000E948B036E858BE10E948B03198218826D
:101F800086E090E09A878987A6CFCE0147960E9487
:101F90009F059ECF6AE170E0CE010E944C059BCF69
:101FA000EF92FF920F931F93CF93DF93082F192F78
:101FB000E62EF72E8AE190E00E944005C82FD92F27
:101FC0002097F1F081E08B8786E59FE099838883F5
:101FD00084E090E19B838A83EF82F886BE016C5F88
:101FE0007F4FC8010E9472051A861986CE015EDFF6
:101FF000C801DF91CF911F910F91FF90EF9008954D
:10200000F80111821082F4CFE82FF92F8185928593
:10201000816092878187CF0149CF0895E82FF92FFA
:1020200083859485816094878387CF018BCE0895C3
:102030000F93CF93DF93C82FD92F8E859F8580FF75
:1020400023C08530910509F471C040F087309105B7
:1020500089F4CE0146960E942A0605C0813091057A
:1020600011F0039779F48889811190C0DF91CF91A5
:102070000F9108958730910528F08930910599F3E3
:102080000B9789F30E9429278630910509F453C0E4
:1020900008F044C08230910551F18430910519F562
:1020A000EC89FD8984818B8BCE0144960E942A069F
:1020B00060E28DE10E948B032D856A8500E0AE0110
:1020C0004E5E5F4FCE0146960E943607EE89FF892D
:1020D000309789F180819181892B69F186E090E0C8
:1020E0009F878E87C3CF892BF9F4DF83CE838B85BF
:1020F0009C850E94EB0568857985CE0144960E94F7
:10210000DA07EC89FD89309759F280819181892B1A
:1021100039F284E090E09F878E87A8CF88309105C0
:10212000B1F00A9709F49FCF0E942927CE01449667
:102130000E942A0698CFEE89FF8984818B8BCE017D
:1021400046960E942A0660EA8EE10E948B0389E18E
:102150000E94D60388232CF088E090E09F878E872A
:1021600085CF60E889E10E948B038A89882359F032
:1021700085E791E09D838C83198218828AE090E044
:102180009F878E8773CF80E090E0F4CF6AE170E0A4
:10219000CE010E944C056ACFAF92BF92CF92DF92E0
:1021A000EF92FF920F931F93CF93DF93E82EF92EB8
:1021B000A62EB72EC42ED22E132F8AE190E00E94B5
:1021C0004005C82FD92F209731F181E0888B88E115
:1021D00090E1998388838AEE91E19B838A83A88624
:1021E000B986CA86DB861C870D87BE016C5F7F4F70
:1021F000C7010E941D061F861E86CE0119DFC7017A
:10220000DF91CF911F910F91FF90EF90DF90CF90D2
:10221000BF90AF900895F70111821082F0CF0F9315
:10222000CF93DF93C82FD92F89859A8580FF15C05A
:102230008530910509F481C060F48130910511F079
:10224000039749F48B85811181C0DF91CF910F9164
:1022500008950797B9F30E9429278430910509F45E
:1022600044C0B8F40097C9F00297A9F41D862F81E5
:102270003885F901EB5BFF4F90818D85891780F0E0
:1022800081E08C831982188286E090E09A878987A2
:10229000DCCF0697B9F20E942927DE83CD83E6CFF3
:1022A00098E0BE01625F7F4FFB0111929A95E9F7BA
:1022B00093EA9E8744E050E05D8B4C8B90E0019662
:1022C0009B8B8A8B2E5F3F4F00E0CE01489664DFE8
:1022D000E88DF98D309749F080819181892B29F023
:1022E00084E090E09A878987B0CFE88DF98D84816A
:1022F00095819F8B8E8BCE0148960E94B205EE8908
:10230000FF893097F9F080818170EF81F885EA5B71
:10231000FF4F208131819D8541E050E002C0440F94
:10232000551F9A95E2F72423352391E0232B09F4D6
:1023300090E0891739F01C82A5CFCE0148960E9403
:10234000B20580CF8D858F5F8D8791CF6BE170E077
:10235000CE010E944C0579CFEF92FF920F931F930D
:10236000CF93DF93082F192FE62EF72E8BE190E005
:102370000E944005C82FD92F2097F1F081E08B876C
:102380008FE091E19983888380EE91E19B838A833A
:10239000EF82F886BE016C5F7F4FC8010E94650521
:1023A0001A861986CE013BDFC801DF91CF911F91BC
:1023B0000F91FF90EF900895F80111821082F4CFF1
:1023C000E82FF92F81859285816092878187CF01DF
:1023D00026CF0895E82FF92F868597858160978706
:1023E0008687CF0125CE0895CF93DF93C82FD92FAD
:1023F0008885998580FF17C08530910509F456C0FE
:1024000038F08730910549F0099739F00E94292763
:102410008130910511F00397C9F78A85811156C063
:10242000DF91CF9108958430910571F138F08630B5
:10243000910591F1089789F30E942927009709F1E6
:102440000297D1F71E8689E08F878F8190E0998B64
:10245000888B1B8A1A8A1D8A1C8ABE01625F7F4F85
:10246000CE010C960E94DA07EC85FD85309761F06D
:1024700080819181892B41F084E090E09987888761
:10248000CFCFDE83CD83DECFCE010C960E942A060D
:1024900060E88EE10E948B0389E10E94D6038823C5
:1024A00054F086E090E099878887BACFCE010C96E9
:1024B0000E942A06B2CF60E889E10E948B0319824C
:1024C000188288E090E099878887AACF68E170E059
:1024D000CE010E944C05A4CFFF920F931F93CF9380
:1024E000DF93082F192FF62E88E190E00E94400517
:1024F000C82FD92F2097E1F081E08A8784EF91E1FE
:10250000998388838AEB95E19B838A83FF82BE014E
:102510006C5F7F4FC8010E94720519861886CE0134
:1025200063DFC801DF91CF911F910F91FF90089554
:10253000F80111821082F5CFCF93DF93C82FD92FE6
:102540008889998980FF14C08530910509F48AC073
:1025500058F48130910511F0039741F48A89811173
:1025600086C0DF91CF9108950797C1F30E94292774
:102570008430910509F469C068F4009779F00297F6
:1025800059F4AF81B88512968C911297882349F03F
:102590001C8261C0069711F30E942927DE83CD8338
:1025A000F0CF8B85811104C0EE85FF8585818B87F7
:1025B0008B85833011F01C824EC06E857F85ED9136
:1025C000FC9111970680F781E02DCD0109958823B4
:1025D00011F01C8240C08E859F859D8B8C8BEC8971
:1025E000FD898181853039F080818E0F9F2F911D6B
:1025F0009D8B8C8BF4CFFF8BEE8B8281EF81F885E6
:102600008F708383A985BA85EF81F8858C91828349
:10261000A985BA85EF81F88512969C91848192FBF9
:1026200082F98483EC85FD856581CE01489654DF6F
:10263000E88DF98D309749F080819181892B29F0BF
:1026400084E090E0998B888B8CCFCE0148960E94D5
:102650008C0581E08C831982188286E090E0998B4A
:10266000888B7FCFCE0148960E948C0577CF6BE197
:1026700070E0CE010E944C0574CF7F928F929F92A2
:10268000AF92BF92CF92DF92EF92FF920F931F9380
:10269000CF93DF93C82ED92E762E872E942EA52E7B
:1026A000B22E8BE190E00E944005C82FD92F2097D1
:1026B00061F181E08A8B8CE992E19983888389E8D2
:1026C00093E19B838A837F8288869986AA86BB86CC
:1026D0000C871D87EE86FF86BE016C5F7F4FC601AB
:1026E0000E946505198A188ACE0126DFC601DF918E
:1026F000CF911F910F91FF90EF90DF90CF90BF90FF
:10270000AF909F908F907F900895F6011182108274
:10271000EDCFE82FF92F808991898160918B808B93
:10272000CF010ACF08950F93CF93DF93C82FD92FEE
:10273000E889F989E0FF0AC03197E531F10520F415
:10274000E854F84D0C9413270E942927E531F10530
:1027500020F4E353F84D0C9413270E942927DE83BD
:10276000CD83AF81B88512968C911297882311F092
:102770001C8298C18B85811104C0EE85FF858581FF
:102780008B878B85893011F01C828CC18E859F854B
:102790009D8B8C8BEC89FD898181853039F080811E
:1027A0008E0F9F2F911D9D8B8C8BF4CFFF8BEE8B0B
:1027B00082818F7013968C93A985BA85EF81F885F5
:1027C0008C918283A985BA85EF81F88512969C91B8
:1027D000848192FB82F98483EC85FD856581CE013D
:1027E00082967ADEEAA1FBA1309749F0808191813F
:1027F000892B29F084E090E0998B888B2DC0CE0145
:1028000082960E948C0588E0EEE0F1E0DE015896A9
:1028100001900D928A95E1F72F8138852E5F3F4F09
:1028200000E048E0BE01685E7F4FCE018496B4DCD4
:10283000ECA1FDA13097A1F080819181892B81F0DD
:1028400086E090E0998B888B07C0CE0182960E942B
:102850008C058A89811132C1DF91CF910F91089542
:10286000ECA1FDA18481958199A388A3CE018496D2
:102870000E94B205A8A1B9A1109771F0EF81F88567
:1028800012968C91EB5BFF4F80831EA2FFC0CE019E
:1028900084960E94B205DDCF1C8204C1282F30E04F
:1028A00061E070E0FB0102C0EE0FFF1F8A95E2F7C6
:1028B000F8A7EFA3C901019623E2288F23E0298F0F
:1028C00028E030E03B8F2A8F9D8F8C8F1F8E1E8ECD
:1028D0004E5F5F4FBE01685E7F4FCE018D96AADAD4
:1028E000EDA5FEA5309749F080819181892B29F0D3
:1028F00088E090E0998B888BAFCFCE018D960E94B7
:102900009F0582E30E94080680E00E940B068AE091
:1029100090E0998B888BA0CFCE018D960E949F0569
:1029200098CF8EA190E0019623E2288F23E0298F93
:1029300024E030E03B8F2A8F9D8F8C8F1F8E1E8E60
:102940004F8158854E5F5F4FBE01685E7F4FCE015D
:10295000C09670DAE8A9F9A9309749F08081918191
:10296000892B29F08CE090E0998B888B75CFCE0174
:10297000C0960E949F0582E30E94080680E00E94A4
:102980000B068EE090E0998B888B66CFCE01C096C7
:102990000E949F055ECF8EA190E0019623EA288FCA
:1029A000198E1B8E1A8E9D8F8C8F84E090E09F8FE6
:1029B0008E8F2F8138852E5F3F4F00E044E0BE01AF
:1029C000685E7F4FCE01C396E7DBEBA9FCA9309789
:1029D00049F080819181892B29F080E190E0998BE9
:1029E000888B3ACFEBA9FCA9848195819AA789A706
:1029F000CE01C3960E94B205E9A5FAA5808180FFA9
:102A000042C0EF81F885EA5BFF4F808191812FA161
:102A100038A5822B932B91838083EF81F8858EA13B
:102A200090E0880F991F880F991F880F991F0596AE
:102A3000E80FF91FFCA7EBA7A9A5BAA511969C91D1
:102A4000848191FB82F98483EBA5FCA512826BA59E
:102A50007CA5CE01C5960E947D0CEDA9FEA93097FC
:102A600071F080819181892B51F082E190E0998B06
:102A7000888BF2CECE01C3960E94B205EACECE017B
:102A8000C5960E949F058EA18F5F8EA34F815885AA
:102A9000FA01EB5BFF4F90818EA1891708F4FECEFF
:102AA00081E08C831982188284E190E0998B888B75
:102AB000D3CECE01C5960E949F05CBCE68E370E0D1
:102AC000CE010E944C05C8CE7F928F929F92AF920A
:102AD000BF92CF92DF92EF92FF920F931F93CF930B
:102AE000DF93C82ED92E762E872E942EA52EB22EA9
:102AF00088E390E00E944005C82FD92F209761F10C
:102B000081E08A8B83E993E19983888380EB95E167
:102B10009B838A837F8288869986AA86BB860C8758
:102B20001D87EE86FF86BE016C5F7F4FC6010E9447
:102B30006505198A188ACE01F6DDC601DF91CF91AD
:102B40001F910F91FF90EF90DF90CF90BF90AF90CB
:102B50009F908F907F900895F60111821082EDCFA3
:102B6000E82FF92F808991898160918B808BCF012B
:102B7000DACD0895E82FF92F8085918581609187BE
:102B80008087CF0131CC08950F93CF93DF93C82F67
:102B9000D92F8B859C8580FF15C08530910509F460
:102BA0005BC060F48130910511F0039749F48D8585
:102BB00081115AC0DF91CF910F9108950797B9F312
:102BC0000E9429278430910569F128F5009739F191
:102BD000029719F589859A850E94EB0589859A8562
:102BE0000E94D905E985FA850181688521E0AE0159
:102BF000415F5F4FCE0141960E943607E989FA890D
:102C0000309781F080819181892B61F084E090E0A0
:102C10009C878B87CFCF069751F20E942927DF83AD
:102C2000CE83D8CFE989FA898481888BCE014196F9
:102C30000E942A0689859A850E94C9058889843060
:102C400081F085E791E09D838C831982188286E06C
:102C500090E09C878B87AECFCE0141960E942A06DA
:102C6000A6CF80E090E0EFCF64E170E0CE010E945B
:102C70004C05A0CFDF92EF92FF920F931F93CF935B
:102C8000DF93082F192FD62EE42EF52E84E190E045
:102C90000E944005C82FD92F209701F181E08D8730
:102CA00084EC95E1998388838AE598E19B838A8304
:102CB000D886E986FA86BE016C5F7F4FC8010E9404
:102CC0001D061C861B86CE015FDFC801DF91CF91F8
:102CD0001F910F91FF90EF90DF900895F8011182FE
:102CE0001082F3CF4F925F926F927F92AF92BF921A
:102CF000CF92DF92EF92FF920F931F93CF93DF93C8
:102D0000CDB7DEB72A970FB6F894DEBF0FBECDBFA2
:102D1000082F192FD80119968D919C9180FF27C0FB
:102D20008530910509F495C0F0F48130910511F0DA
:102D30000397D9F4F8018385811178C12A960FB6DB
:102D4000F894DEBF0FBECDBFDF91CF911F910F91E1
:102D5000FF90EF90DF90CF90BF90AF907F906F90FB
:102D60005F904F900895079729F30E942927843098
:102D70009105E1F1D0F40097E1F00297C1F4D80198
:102D80001796ED91FC9118978281811116C081E010
:102D900014968C93D80111961C921E9286E090E0B6
:102DA0001A969C938E931997C9CF069719F20E9491
:102DB0002927F80116830583E2CF63A1AF014E5F97
:102DC0005F4FC801499656DFD8015996ED91FC91A5
:102DD0005A97309759F080819181892B39F084E09E
:102DE00090E01A969C938E931997A8CFD801599684
:102DF000ED91FC915A97848195811E969C938E93B8
:102E00001D97C80149960E94B205F80185859685EF
:102E1000892B21F180E190E0908B87870780F085F6
:102E2000E02D158A148AD80117968D919C911897D8
:102E30009C01295E3F4F5E963C932E935D97909642
:102E40003C932E935F97839692969C938E93919743
:102E500019C0C80149960E94B2056CCF81E08483F5
:102E600099CFF80187859089880F991F908B878764
:102E7000D8015F968D919C919097019690969C9326
:102E80008E935F97D8015F96ED91FC919097919604
:102E90008D919C919297E817F907B1F1D8015C9652
:102EA000FC93EE935B972081222311F31796ED910B
:102EB000FC91189730E03A83298391E09B839C83AF
:102EC0001D829E831D966D917C91AE014F5F5F4F79
:102ED000CF0105960E946F046F83788789879A8750
:102EE000672B682B692B09F4BCCFD8011796ED919D
:102EF000FC911897848995891F962D913C91822B7E
:102F0000932B958B848BADCF1796ED90FC901897F3
:102F1000A701485F5F4F1D96AD90BC906701B5E07B
:102F2000CB0ED11CB501C6010E946F04462E572E50
:102F3000682E792EF801418A528A638A748AA70121
:102F4000425F5F4FB501C6010E946F04D8015596DC
:102F50006D937D938D939C935897F701848590E0B2
:102F6000A0E0B0E084159505A605B705E1F1D8010C
:102F700017962D913C91F901858590E0A0E0B0E095
:102F8000F801418952896389748984179507A607D6
:102F9000B70779F1F80127813085D90152968C91D4
:102FA00090E0A0E0B0E0458956896789708D84176C
:102FB0009507A607B70741F1D80117962D913C91C7
:102FC000F901838990E0A0E0B0E0F80145895689D5
:102FD0006789708D84179507A607B707E1F081E030
:102FE000F8018483D7CE848995898260958B848B00
:102FF000BECFD90154968D919C915597816055967D
:103000009C938E935497C6CFF901848995898860E3
:10301000958B848BD1CFD90154968D919C915597E6
:10302000846055969C938E935497D9CF64E270E058
:10303000C8010E944C0582CEEF92FF920F931F931E
:10304000CF93DF93082F192FE62EF72E84E290E01E
:103050000E944005C82FD92F2097F1F081E08B877F
:1030600082E796E19983888380E598E19B838A8350
:10307000EF82F886BE016C5F7F4FC8010E94650534
:103080001A861986CE012EDEC801DF91CF911F91DD
:103090000F91FF90EF900895F80111821082F4CF04
:1030A000E82FF92F81859285816092878187CF01F2
:1030B00019CE0895E82FF92F838594858160948730
:1030C0008387CF0161CD0895CF93DF93C82FD92F88
:1030D00089859A8580FF0CC08830910538F49AEA7A
:1030E00001C096958A95EAF790FD1CC00E94292799
:1030F0008430910549F0A0F40097E1F00297C1F403
:1031000061E08DE10E948B038DE10E94D60380FD7A
:1031100014C01982188286E090E09A87898705C0DA
:10312000069731F48B85811113C0DF91CF910895FB
:103130000E942927DE83CD83E3CF82E30E94080625
:1031400080E00E940B0684E090E09A878987EDCFAB
:103150006FE070E0CE010E944C05E7CFEF92FF9246
:103160000F931F93CF93DF93082F192FE62EF72E7F
:103170008FE090E00E944005C82FD92F2097F1F0F2
:1031800081E08B8784E698E19983888382EE98E1D9
:103190009B838A83EF82F886BE016C5F7F4FC801F4
:1031A0000E9472051A861986CE018EDFC801DF9152
:1031B000CF911F910F91FF90EF900895F801118228
:1031C0001082F4CFE82FF92F818592858160928754
:1031D0008187CF0179CF08952F923F924F925F92CE
:1031E0006F927F928F929F92AF92BF92CF92DF9217
:1031F000EF92FF920F931F93CF93DF93CDB7DEB77C
:10320000E3970FB6F894DEBF0FBECDBF8C01DC0193
:1032100017968D919C916C01B1E0CB22DD24C114F5
:10322000D10461F08630910538F49AE201C0969598
:103230008A95EAF790FD11C00E94292782309105F6
:1032400029F18430910549F0892BB1F7F8011683F3
:10325000058382E090E090878783E3960FB6F89429
:10326000DEBF0FBECDBFDF91CF911F910F91FF90B9
:10327000EF90DF90CF90BF90AF909F908F907F9016
:103280006F905F904F903F902F90089580917D02B6
:10329000D8011B968C931B9710927D02499A8091BE
:1032A0007A02FE0131967F01882309F4DEC11B9664
:1032B0005C90552009F4D9C1CF010E947906B090E5
:1032C0008002B1FE04C061EEC7010E946806B5FE2F
:1032D00004C065EEC7010E946806B0FE04C060EE3F
:1032E000C7010E946806B4FE04C064EEC7010E94D4
:1032F0006806B2FE04C062EEC7010E946806B6FE10
:1033000004C066EEC7010E946806B3FE04C063EE07
:10331000C7010E946806B7FE04C067EEC7010E949D
:10332000680691E8892E92E0992E25E8A22E22E0E7
:10333000B22ED4016D914D01662319F0C7010E9490
:103340006806A814B904A9F780E1F701ABE9B2E077
:1033500001900D928A95E1F780E1EBE8F2E0ABEAAB
:10336000B2E001900D928A95E1F76BE872E08BE98B
:1033700092E00E94F503B7018BEA92E00E94F50308
:10338000ABE98A2EA2E09A2EBBE8AB2EB2E0BB2EB0
:103390008BEA682E82E0782E6814790471F5FBEAD6
:1033A0006F2EF2E07F2E8BEB92E02BE932E07091F2
:1033B000C50273FBFF27F0F974FBEE27E0F98615D1
:1033C000970509F0CFC0F11103C076FBFF27F0F994
:1033D000D8015196FC93E11105C0E091C502E7FBCD
:1033E000EE27E0F9D8015296EC938BE992E08A152A
:1033F0009B0509F023C1512C27C1F40161914F01B4
:10340000662351F27091C50272FB332730F981E0D7
:10341000613E09F080E0382B81E0603E09F080E0F9
:1034200073FB442740F9482B81E0623E09F080E0BD
:1034300074FB552750F9582B75FB222720F981E0A2
:10344000653E09F080E0282BE1E0862F8B7F833EEC
:1034500009F0E0E09091C60291709E2BE32FEE0FF1
:10346000EE0F842F880F880F880F8E2BE52FE295A3
:10347000E07F8E2BE22FE295EE0FE07E8E2B76FB27
:10348000EE27E0F9F1E0643E09F0F0E0EF2BE29581
:10349000EE0FEE0FE07C8E2B77FB772770F9E1E0E3
:1034A000663E09F0E0E07E2B779577277795872BAE
:1034B0007091C5027370872B8093C5028091C602FC
:1034C00090FB80F98093C6026933D1F4982F977FDF
:1034D00083FF98609093C60202C091111CC03323F1
:1034E00051F0222341F09091C602892F8F7D95FFE4
:1034F00080628093C6028BE892E00E9468064CCFFF
:10350000633529F4982F9F7E84FF9061E3CF552384
:1035100021F3442311F3E6ECE60FE83000F7F0E086
:10352000EE51F84D0C94132780E00E94540634CFDE
:1035300081E0FBCF82E0F9CF83E0F7CF8091C60234
:10354000897F8093C60228CF8091C602897F8260DE
:10355000F8CF8091C602897F8460F3CF8091C60244
:103560008660EFCFD3016D913D01662309F41FCF33
:1035700051E0462F4B7F433E09F450E04091C60294
:10358000542372FB442740F999249394613E09F433
:10359000912C4921440F440F99249394603E09F4DF
:1035A000912CF921FF0FFF0FFF0F4F2BF1E0623E2F
:1035B00009F4F0E0EF23E295E07F4E2B75FBEE2758
:1035C000E0F9F1E0653E09F4F0E0EF23E295EE0F5B
:1035D000E07E4E2B76FBEE27E0F9F1E0643E09F445
:1035E000F0E0EF23E295EE0FEE0FE07C4E2B77FB41
:1035F000772770F9E1E0663E09F4E0E07E237795F5
:1036000077277795472B7091C5027370472B4093AE
:10361000C5024091C60250FB40F94093C602EBE858
:10362000F2E02E173F0709F4C2CE41916413F9CF9F
:10363000AF0141505109DA011C92F3CFD5012D9110
:103640005D01273209F0D3CED80153965C9253978F
:10365000FF2311F0E1119BC1F801148A512C8091D4
:10366000C70250FA81F98093C70284E592E00E9474
:1036700064042C015E01BAE1AB0EB11CC5010E94CD
:1036800079068091C6028695837065E0F701262F42
:1036900011922A95E9F74E0136E0830E911C90E1D4
:1036A000D4011D929A95E9F7BF8AAE8A2BEB32E0DE
:1036B000398F288F682E712C689FB00111246D5EA0
:1036C0007F4F45E050E0C7010E941927B301E4E0B5
:1036D000660F771FEA95E1F7675D7F4F40E150E0A5
:1036E000C4010E9419278091C60285FB882780F9B2
:1036F0009091C5022A2CB8AAE88DF98D92FF5AC183
:10370000882309F454C1A680B7806BE8862E62E056
:10371000962E7BE9672E72E0772E6814790409F003
:1037200051C1AA24A394B12CC5010C2C02C0880F4E
:10373000991F0A94E2F784219521892B39F0D7014A
:1037400015966C918E899F890E946806BFEFCB1AEF
:10375000DB0AEFEFEE1AFE0AF0E1CF16D10421F7F3
:103760005E012AE2A20EB11C86E0D5011D928A9567
:10377000E9F7E22DF8A921E030E0AE16BF0609F026
:103780004EC18EA5382F307155245394311101C08C
:10379000512C9AA59170492E8AA49BA453E095229E
:1037A0009CA52BA52695269560E4969F6001112483
:1037B000C22AA3E0DA222DA5B0E12B9F70011124CB
:1037C00092959F70E92AE3E0FE22F4E08F9F30019A
:1037D00011242295269526952370622A332309F415
:1037E00039C18091C50281FD35C1442009F43BC136
:1037F00080FD39C182E0816090E094610E94E8031D
:10380000C4010E94E803C60194600E94E803C70156
:1038100098600E94E803C3019C600E94E8038FA5A2
:1038200081FF23C12A9A8FA580FF21C1299A8FA5E4
:1038300083FF1FC15C9A8FA582FF1DC15A9A8FA575
:10384000803108F41AC15B9A550C54288091C50246
:103850008C7F582A5092C50260E0E22DF8A981E0E1
:103860009081911101C080E0682B3196EA15FB052B
:10387000B1F7D8011C966C93660F660F660F85E151
:103880000E948B03F8011686158642E050E061E144
:1038900070E0C8010D960E94192780917A02882352
:1038A000D9F1D8011B968C918823B1F1F801158AC2
:1038B000168A178A108E44E050E06DE070E0C8016F
:1038C00045960E941927D80159961C9259975A96E5
:1038D0001C925A975B961C9282E020E832E048E8FE
:1038E00052E0F801848F883009F0C9C0818D8823A7
:1038F00009F40BC1559AD8015A968C91882309F482
:1039000006C1579AF801838D882309F402C1858581
:10391000882309F4FEC0569A83B18170D8011F969E
:103920008C931F97882341F01D968C911D978823B7
:1039300009F4F1C01E968C91F801808B9091C6021B
:1039400022E030E093FD09C095FB992790F999ABEF
:103950001AAA29A93AA9220F331F822BD8015096FF
:103960008C9350979091C60292959170892B5096A6
:103970008C935097309A50966C9188E792E00E9411
:103980004004F8011182108284E090E064CC5496E7
:103990005C92552009F462CE8091C70281FD5FCE12
:1039A000982F9E7F80FF91609093C70258CEA2808F
:1039B000B380ABCE882319F0A480B580A6CEA080BA
:1039C000B180A3CEF40121914F01222309F4A5CEA9
:1039D000E88DF98D8085918530E0F501E20FF31FC8
:1039E0003490311005C0FC01E20FF31FE4913E2E2C
:1039F000F32DFF73FBAB37FE05C061E08E899F8915
:103A00000E94680636FE05C065E28E899F890E9485
:103A100068066BA98E899F890E9468067ECE819177
:103A2000882309F4AACE8150990BDC0143E0B595B7
:103A3000A7954A95E1F7AA0DBB1D87709927A901A3
:103A400002C0440F551F8A95E2F7CA019C91892B49
:103A50008C9393CE442009F4D3CE8091C50280FD8F
:103A6000CFCE80E0C8CE82E0C7CE2A98DCCE29989F
:103A7000DECE5C98E0CE5A98E2CE5B98E5CEF801B7
:103A800030A3278F32A321A354A343A3D801919637
:103A9000ED91FC91929759969C91B2E0E838FB0722
:103AA00011F48F5F1ECFD8015E96FC93EE935D9765
:103AB00061E0F08055967C91F71260E0962BD8017A
:103AC00059969C93599761E0708156969C91791311
:103AD00060E0D8015A969C915A97962B5A969C93DF
:103AE0005A9761E0708157969C91791360E0D801F4
:103AF0005B969C915B97962B5B969C935B9731961C
:103B00009296FC93EE939197C1CF5598F4CE579827
:103B1000F9CE569801CF80E00FCFCF93DF93EC0121
:103B200084EF92E090938A02809389028EEC92E077
:103B3000009731F419821882CE01DF91CF91089558
:103B400021E02093D7022CEE38E13093CF0220936E
:103B5000CE022DEB3DE13093D1022093D002998328
:103B600088839093CC028093CB021092D60210925D
:103B7000D5028EEC92E030DBDFCFFC0187819085AF
:103B8000816090878783CF0127CB2F923F924F92FE
:103B90005F926F927F928F929F92AF92BF92CF92DD
:103BA000DF92EF92FF920F931F93CF93DF93CDB7E6
:103BB000DEB7C45BD1090FB6F894DEBF0FBECDBF30
:103BC000CD54DF4F8883C35BD040CC54DF4F988304
:103BD000C45BD040E62FF72F642F752FC155DF4F00
:103BE0002883CF5AD040C055DF4F3883C05BD040C8
:103BF000C155DF4F88809980CF5AD04084E2880E2B
:103C0000911CCF57DF4F188219821A821B82C1582C
:103C1000D040CB57DF4F188219821A821B82C558B9
:103C2000D04085E3C155DF4FA881B981CF5AD0403C
:103C30001D928A95E9F79E012F5F3F4F8CE1D901D4
:103C40001D928A95E9F787E0D4011D928A95E9F7DC
:103C500081E0C155DF4FA881B981CF5AD0409396FA
:103C60008C93312CCF54DF4F19821882C15BD04026
:103C700069018EC0248130E040E050E0522F44279B
:103C8000332722274380512C612C712C320155247B
:103C90004424422A532A642A752A228130E0322F92
:103CA000222740E050E0422A532A642A752A918153
:103CB000492A5B0195E0A91AB1087F01A5E0EA0E47
:103CC000F11C7FC092814180592E612C712C5B01C7
:103CD000B3E0AB1AB1087F0163E0E60EF11C71C0DE
:103CE0004180512C612C712C5B0192E0A91AB10822
:103CF0007F01A2E0EA0EF11C64C0143409F48BC009
:103D0000143581F5D60119964C922CC0113C50F512
:103D1000143740F1ECE8E10FED3420F5F0E0E65126
:103D2000F84D0C941327CE018B5A9F4FC816D90615
:103D300009F4EDC2C6014C962CE1F601DC010190BC
:103D40000D922A95E1F76C010DC0CE0101968C15FC
:103D50009D0509F4DEC2BCE1CB1AD10803C0F6010F
:103D6000528241820C70011111C0CF57DF4F18826F
:103D700019821A821B82C158D040CB57DF4F18825C
:103D800019821A821B82C558D040302EB501F70126
:103D90006115710509F4A0C2DF010D917D015B0180
:103DA000B1E0AB1AB108802F8370823009F48ACF5A
:103DB000833009F45FCF813009F492CF412C512C2C
:103DC0003201102F1C7F143661F108F09FCF15339C
:103DD00008F093CF143030F21450113318F6E12F5D
:103DE000F0E0E95CF74D0C941327D6011A964D923A
:103DF0005D926D927C921D97B5CFF60146865786EF
:103E0000608A718AAFCFD60152964D925D926D92C3
:103E10007C925597A7CFF601468A578A608E718E9D
:103E2000A1CFF60145825682678270869BCFD6016C
:103E30004C9298CFF601428E95CF542DD6015B96C9
:103E40004C92C155DF4FE881F981CF5AD04084A907
:103E5000811123C081E0C155DF4FE881F981CF5A3C
:103E6000D04084ABD6015B968C91F40180837ACFED
:103E70004C01880C991C880C991C880C991C881A78
:103E8000990A74E2870E911CC155DF4F8881998190
:103E9000CF5AD040880E991E25C020E0C155DF4F73
:103EA000A881B981CF5AD04093963C912317C0F492
:103EB000822F90E0FC01EE0FFF1FEE0FFF1FEE0FB1
:103EC000FF1FE81BF90BC155DF4F68817981CF5A7D
:103ED000D040E60FF71F44A1541751F22F5FDECFF9
:103EE000812C912C8114910409F0B4CF323009F463
:103EF00012C281E0830FC155DF4FE881F981CF5AAB
:103F0000D04083A3832F90E04C01880C991C880C2F
:103F1000991C880C991C881A990AF4E28F0E911C3E
:103F2000C155DF4F68817981CF5AD040860E971EE8
:103F300087E0D4011D928A95E9F78CCFF8E03F160F
:103F400009F4EBC1833071F0832D90E0880F991F45
:103F5000E1E7F0E0EC0FFD1FE80FF91F518240820E
:103F6000339400CFD60112967C926E921197ECCFCB
:103F7000CF57DF4F488259826A827B82C158D04036
:103F8000F1CECB57DF4F488259826A827B82C55877
:103F9000D040E8CECF54DF4FE881F981C15BD040FB
:103FA000EF2B09F049C0C155DF4F68817981CF5AA5
:103FB000D040CF54DF4F79836883C15BD040CF546A
:103FC000DF4FA881B981C15BD0404C92F60181815D
:103FD000928112969C938E931197311054C0CF57B3
:103FE000DF4F88819981AA81BB81C158D040CB57CE
:103FF000DF4F488159816A817B81C558D04048177D
:1040000059076A077B0708F4ADCEAC01BD014F5FCD
:104010005F4F6F4F7F4FCF57DF4F488359836A837E
:104020007B83C158D040CF54DF4FE881F981C15B19
:10403000D0409483838396CEC155DF4FE881F981C8
:10404000CF5AD040379685819681892B69F0C1552A
:10405000DF4F88819981CF5AD0404C968E179F07A9
:1040600009F45DC13796EFCFCF54DF4F8881998136
:10407000C15BD04096838583CF54DF4FF983E883BB
:10408000C15BD0409CCFE3968EAD9FADE397149675
:104090009C938E93139741E01AC0842F90E09C016B
:1040A00021503109880F991FE1E7F0E0EC0FFD1F67
:1040B000E80FF91F80819181220F331FE1E7F0E0C3
:1040C000EC0FFD1FE20FF31F918380834F5F4315B9
:1040D00020F33A9447CECF54DF4F68817981C15B9A
:1040E000D0406115710509F41CC1DB0115960D90D6
:1040F000BC91A02DCF54DF4FB983A883C15BD040C2
:1041000031CEE3968EAD9FADE397CC56DF4F9983CA
:104110008883C459D04041E01AC0842F90E09C01AC
:1041200021503109880F991FE1E7F0E0EC0FFD1FE6
:10413000E80FF91F80819181220F331FE1E7F0E042
:10414000EC0FFD1FE20FF31F918380834F5F431538
:1041500020F33A94103809F4B0C0103909F4B3C010
:1041600082E0C557DF4F8883CB58D040C557DF4F1B
:10417000E881CB58D040F0E0EE0FFF1FE80DF91DAD
:1041800081819281C757DF4F99838883C958D04076
:1041900081819281D6012C91820F911D928381831E
:1041A000C155DF4FE881F981CF5AD04082A993A948
:1041B000C557DF4FE881CB58D040F0E0EE0FFF1F2E
:1041C000E80DF91D218132812817390708F49C0177
:1041D000C155DF4FA881B981CF5AD040D3963C93C7
:1041E0002E93D29740FC11C0CD54DF4FA881B981E6
:1041F000C35BD040ED91FC9111970190F081E02DCF
:10420000BE0167577F4FCD0109952394F601828D3A
:10421000281608F0A7CD8AE1F601A9E8B0E0AC0FB6
:10422000BD1F189601900D928A95E1F7C457DF4F94
:1042300059824882CC58D040CF54DF4FE881F98171
:10424000C15BD040C157DF4FF983E883CF58D040DE
:10425000D6015B968C91C257DF4F8883CE58D040F1
:1042600031104FCFCF57DF4F88819981AA81BB8111
:10427000C158D040CB57DF4F488159816A817B813B
:10428000C558D040481759076A077B0708F462CF22
:10429000AC01BD014F5F5F4F6F4F7F4FCF57DF4F77
:1042A000488359836A837B83C158D040CC56DF4F03
:1042B00099838883C459D0404DCFC557DF4F1882AA
:1042C000CB58D04053CF81E0C557DF4F8883CB58C0
:1042D000D0404CCF212C9ACF80E0CC54DF4F0FB68A
:1042E000F894DEBF0FBECDBFDF91CF911F910F912C
:1042F000FF90EF90DF90CF90BF90AF909F908F9006
:104300007F906F905F904F903F902F90089581E045
:10431000E4CF82E0E2CF87E0E0CF86E0DECF85E049
:10432000DCCF84E0DACFEF92FF920F931F93CF930D
:10433000DF93C82FD92F8889998980FF20C08530C5
:10434000910509F4BBC048F087309105A9F4CE016E
:10435000845A9F4F0E948C0505C08130910511F051
:10436000039761F48A898111E6C0DF91CF911F9193
:104370000F91FF90EF9008950997A1F36AD58430CB
:10438000910509F46BC038F08630910509F4C5C079
:10439000089741F35ED5009749F00297D9F7EF816E
:1043A000F8858281882329F01C82BEC0DE83CD83FC
:1043B000F6CF8B85811104C0EE85FF8585818B87C3
:1043C0008B85833011F01C82AFC08E859F859D8BBD
:1043D0008C8BEC89FD898181813239F080818E0F4F
:1043E0009F2F911D9D8B8C8BF4CFFF8BEE8B478184
:1043F0005085598F488F4138510510F01C8294C068
:10440000AC85BD8515968C918A8F88E0BE01655E6E
:104410007F4FDB011D928A95E9F781E88B8F86E05B
:104420008C8F86811D8E8E8F5AA349A329853A854C
:1044300000E07E01BAE5EB0EF11CC7010E94CC1032
:10444000D701ED91FC91309749F080819181892BC2
:1044500029F084E090E0998B888B87CFCE01865A33
:104460009F4FDC01ED91FC91248135813CA32BA36E
:104470000E94B2056BA17CA16115710529F18F81A4
:104480009885488D598D9E012B5D3F4F05967DDBAC
:10449000FE01E95AFF4F8081918107969695879595
:1044A0009695879596958795EF81F88583A3EF81FB
:1044B000F885878181110AC01C8236C0CE01865AD8
:1044C0009F4F0E94B2054ECF1C822EC0A985BA858F
:1044D0008C918283EF81F88581E08383A985BA85F9
:1044E000EF81F88512969C91848192FB82F98483F6
:1044F0006A8D8E01045A1F4FC8010E946C12D801A8
:10450000ED91FC91309749F080819181892B29F0C0
:1045100086E090E0998B888B28CFCE01845A9F4FFC
:104520000E948C0581E08C831982188288E090E0DB
:10453000998B888B1ACF6FE570E0CE010E944C05F5
:1045400014CF7F928F929F92AF92BF92CF92DF92C1
:10455000EF92FF920F931F93CF93DF93C82ED92E24
:10456000762E872E942EA52EB22E8FE590E00E94F7
:104570004005C82FD92F209761F181E08A8B83E90C
:1045800091E2998388838DEE92E29B838A837F8276
:1045900088869986AA86BB860C871D87EE86FF864D
:1045A000BE016C5F7F4FC6010E946505198A188A9B
:1045B000CE01B9DEC601DF91CF911F910F91FF901F
:1045C000EF90DF90CF90BF90AF909F908F907F90B3
:1045D0000895F60111821082EDCFE82FF92F80891E
:1045E00091898160918B808BCF019DCE0895CF936F
:1045F000DF93C82FD92FEE85FF85E0FF22C0E8307A
:10460000F10558F4309709F424D48AEA01C086955C
:10461000EA95EAF780FD0FC0F7CFE031F105A0F78A
:10462000E930F10588F3399785E501C08695EA956B
:10463000EAF780FFE9CF888981117CC0DF91CF91B3
:104640000895EF30F10518F4E859F74DECC301D4A3
:10465000DE83CD838C859D850E94EB05EF81F885F7
:1046600088E0DE01529601900D928A95E1F70E9452
:10467000C505813029F484E090E09F878E87DECFE6
:10468000CE0142960E94720360E18EE10E948B038C
:1046900081E00E94080680E00E940B0686E090E020
:1046A0009F878E87CBCF89E10E94D60388232CF089
:1046B00088E090E09F878E87C1CF60E889E10E9403
:1046C0008B0360E88DE10E948B034A855B856985D9
:1046D00082E00E949E03698587E00E948B0360E26E
:1046E0008EE10E948B0389E10E94D60388232CF07F
:1046F0008AE090E09F878E87A1CF60E889E10E94E1
:104700008B0360E88EE10E948B0389E10E94D6034F
:1047100088232CF08CE090E09F878E878FCF60E815
:1047200089E10E948B03198218828EE090E09F87B6
:104730008E8784CF60E270E0CE010E944C057ECF70
:104740009F92AF92BF92CF92DF92EF92FF920F9320
:104750001F93CF93DF93E82EF92EA62EB72EC42EEB
:10476000922ED32E80E290E00E944005C82FD92FD0
:10477000209741F181E0888B87EF92E299838883CB
:104780008AE995E29B838A83AF82B886C9869A8636
:10479000DB860C871D87BE016C5F7F4FC7010E94BF
:1047A00072051F861E86CE0122DFC701DF91CF91E1
:1047B0001F910F91FF90EF90DF90CF90BF90AF903F
:1047C0009F900895F70111821082EFCF0F931F93EE
:1047D000CF93DF93C82FD92FE985FA85E0FF08C072
:1047E0003197E331F10518F4E958F74D1CC331D383
:1047F000E331F10518F4E657F74D15C32AD3DE83EC
:10480000CD83EF81F8858281811103C081E08C83A3
:1048100041C1808980FD3AC0808981FF39C182FD14
:1048200007C0878191E0980F97838F708111FBC03B
:10483000EF81F88580898B7F808B88E0E6E1F1E06D
:10484000DE01929601900D928A95E1F7EF81F8854D
:1048500086818AA78F010E5F1F4F9E01265D3F4F05
:1048600041E0BE016E5D7F4FCE018B9669DFEBA507
:10487000FCA5309709F4D3C080819181892B09F47C
:10488000CEC08EE090E09A8789874FC08E7F808B64
:1048900088E0EEE1F1E0DE011D9601900D928A952F
:1048A000E1F74F8158854E5F5F4FBE01635F7F4FD9
:1048B000CE0147960E941A0FEF89F88D309749F084
:1048C00080819181892B29F084E090E09A87898703
:1048D0002CC0CE0147960E949F0588E0E6E2F1E0F9
:1048E000DE011D9601900D928A95E1F74F81588562
:1048F0004E5F5F4FBE01635F7F4FCE0149960E94BE
:104900001A0FE98DFA8D3097A9F080819181892B5A
:1049100089F086E090E09A87898707C0CE014796A4
:104920000E949F058B858111C1C0DF91CF911F919E
:104930000F910895CE0149960E949F0588E0E6E117
:10494000F1E0DE011D9601900D928A95E1F787E076
:104950008D8B0F8118850E5F1F4F9E012B5E3F4F81
:1049600041E0BE01635F7F4FCE014B96E9DEEB8DE8
:10497000FC8D309771F080819181892B51F088E016
:1049800090E09A878987D1CFCE0149960E949F05F2
:10499000C9CFCE014B960E948C058AEF0E94080673
:1049A00080E00E940B068AE090E09A878987BDCF5D
:1049B000CE014B960E948C05B5CF1E8A0F811885BB
:1049C0000E5F1F4F9E012A5E3F4F41E0BE01635FB5
:1049D0007F4FCE014E96B4DEEE8DFF8D309749F0BD
:1049E00080819181892B29F08CE090E09A878987DA
:1049F0009CCFCE014E960E948C0560E08F819885F9
:104A00000E944004EF81F88580898260808B81E07C
:104A10008C8340C0CE014E960E948C0583CFCE0180
:104A20008B960E948C054F8158854E5F5F4F68E0E2
:104A3000CE018D960E943A16EDA5FEA5309771F035
:104A400080819181892B51F080E190E09A8789875C
:104A50006CCFCE018B960E948C0564CFEDA5FEA590
:104A60008481958199A388A3CE018D960E94B20579
:104A7000E8A1F9A1309761F0AF81B885189688E078
:104A800001900D928A95E1F7EF81F88581E08583A9
:104A900081E08C831982188282E190E09A8789876D
:104AA00044CFCE018D960E94B2053CCF60E370E00A
:104AB000CE010E944C0539CFEF92FF920F931F93C6
:104AC000CF93DF93082F192FE62EF72E80E390E087
:104AD0000E944005C82FD92F2097F1F081E08B87E5
:104AE00086EE93E29983888380E995E29B838A83AB
:104AF000EF82F886BE016C5F7F4FC8010E9465059A
:104B00001A861986CE0162DEC801DF91CF911F910E
:104B10000F91FF90EF900895F80111821082F4CF69
:104B2000E82FF92F81859285816092878187CF0157
:104B30004DCE0895E82FF92F868597858160978758
:104B40008687CF0154CD08950E944E0601C0089576
:104B5000CF93DF93E4E5F2E012821382148217828E
:104B60008EE591E0918380838AE691E09683858348
:104B70001186108612861386148615861786168669
:104B8000108A118A128A138A158A148A168AABE649
:104B9000B2E08CE0ED0119928A95E9F713A2E8E7FB
:104BA000F2E0128213821482158282E591E09183F1
:104BB000808316821782A0E8B2E088E0ED011992A6
:104BC0008A95E9F78089887F8160808B8CE092E00C
:104BD0000E94DB048BE892E00E9479068BE992E068
:104BE0000E9479068BEA92E0DF91CF910C947906CE
:104BF00000D0CDB7DEB75D9855985F9857985E980E
:104C000056982098289A509A519A399A389A259A03
:104C1000239A3B9A439A3D9A459A3C9A449A8DB579
:104C200081608DBD82E084BD83E085BD89EF87BD55
:104C300010926E001092C9021092C8021092CA021D
:104C4000219A229A529A539A549A2FEF89EF90E020
:104C5000215080409040E1F700C000008091C702E1
:104C60008C7F8093C7021092C5028091C602807E1D
:104C70008093C60280E090E00E94E80380E094E028
:104C80000E94E80380E098E00E94E80380E09CE056
:104C90000E94E80380E090E10E94E80380E00E9427
:104CA00054068E010F5F1F4FC8010E948D1D8CE6B8
:104CB00091E00E94590EA99B0FC0A99A8091C90248
:104CC000882351F081508093C902811123C08091C3
:104CD000CA0281608093CA020E945F0E8091CD0259
:104CE000882349F08091CA0281FFE5CF8D7F8093B0
:104CF000CA021092CD028091CB029091CC02DC01CD
:104D0000ED91FC91309711F00995D5CFC8010E9423
:104D10008D1DD1CF8091C80281508093C80281112E
:104D2000DBCF8091CA028260D5CFEF92FF920F93C2
:104D30001F93CF93DF93CDB7DEB72C970FB6F894C0
:104D4000DEBF0FBECDBFE82EF92E062F172FD801DC
:104D50001696ED91FC9103C00580F681E02D309709
:104D600059F0818192810197B9F7838194810497E9
:104D700099F781E0F7018783D70117968C918823F3
:104D800051F0F80181859285019791F0F8018185B4
:104D900092850997A9F12C960FB6F894DEBF0FBE45
:104DA000CDBFDF91CF911F910F91FF90EF900895AC
:104DB00083859485C097A9F0D8011B968D919C910D
:104DC000C19721F7B801CE0101960E94C20486E086
:104DD000FE013196D7011E9601900D928A95E1F75A
:104DE000D5CFB801CE0107960E94C20486E0FE012D
:104DF0003796D701189601900D928A95E1F7DCCF8E
:104E0000D7015696EC91EC3030F6D8018C9191E0B8
:104E10009E0FD70156969C93EE0DFF2DF11D878BAB
:104E2000BACF059782CFEE0FFF1F0590F491E02DCA
:104E30000994DC01CB01FC01F999FECF06C0F2BD5B
:104E4000E1BDF89A319600B40D9241505040B8F748
:104E5000089581E090E0F89400C0F894FFCF7608C0
:104E60002708760827087308270876082708B9084E
:104E7000270876082708F3082708760827082D0949
:104E800027085909270876082708760832083008C5
:104E9000340830085C08300849083008A408300895
:104EA000C0083008E7083008F70830082109300842
:104EB0004A0930085009300876082A0AC2092A0A25
:104EC000C209270AC2092A0AC2096F0AC209860A48
:104ED000C2092A0AC2092A0AC209D50AC2092A0A2B
:104EE000C2092A0AC209350BC2094C0BC2092A0A97
:104EF000C209BB0BC209D60BC2092A0AC2096A0C35
:104F0000C2092A0ACD09CB09CF09CB091B0ACB0953
:104F1000360ACB09520ACB09730ACB09D309CB094C
:104F2000940ACB09BA0ACB09DC0ACB09ED0ACB09F2
:104F3000150BCB09390BCB09430BCB09940BCB09D0
:104F4000C00BCB09CD0BCB09130CCB092A0AF40CEF
:104F5000F20CF60CF20C350DF20C420DF20C540D65
:104F6000F20C8C0DF20C9E0DF20CD00DF20CDF0C3D
:104F70002914A4132914A4132514A4134714A41347
:104F80008C14A4132914A413C614A4132914A41351
:104F90003A15A4135915A4132914AF13AD13B11363
:104FA000AD13FF13AD133014AD137D14AD13911475
:104FB000AD13B714AD13CB14AD13F214AD133F15ED
:104FC000AD132914941A981A9A1A9C1A9E1AA41AA4
:104FD000A91AAE1A171FB21EB21EB21EB21EB21E00
:104FE000B21EB21EB21EB21EB21EB21E6A21B21E86
:104FF000B21EB21E1D1FB21EB21EB21EB21EB21EC5
:10500000B21EB21EB21EB21EB21EB21E6A21B21E65
:10501000B21EB21E1A1FB21EB21EB21EB21EB21EA7
:10502000B21EB21EB21EB21EB21EB21ECA1FB21EE7
:10503000B21EB21E931EB21EB21EB21EB21EB21E0F
:10504000B21EB21EB21EB21EB21EB21E6A21B21E25
:10505000B21EB21EA51EB21EB21EB21EB21EB21EDD
:10506000B21EB21EB21EB21EB21EB21E6B20AF1E08
:10507000B21EB21EB21E9E1FB21EB21EB21EB21EC3
:10508000B21EB21EB21EB21EB21EB21EB21EF51E5D
:10509000B21EB21EB21EB81FB21EB21EB21EB21E89
:1050A000B21EB21EB21EB21EB21EB21EB21EFD1E35
:1050B000B21EB21EB21EC11FB21EB21EB21EB21E60
:1050C000B21EB21EB21EB21EB21EB21EB21E031F0E
:1050D000282327232A232723372327235323272340
:1050E0005323272373232723852327231B2392243A
:1050F000F7239224F7238E24F723C424F723D824FC
:10510000F7239224F7230A25F7232925F72351258E
:10511000F7239224FF23FE230124FE236924FE2388
:105120009A24FE23C924FE23DD24FE23F924FE2332
:0A5130000F25FE232E25FE239224F6
:10513A000132010000008006000200000900A006FA
:10514A000029000008002109000200000100210BCB
:10515A00000000000000210A00000000000000001A
:10516A000000AE1800000000D00F00000000641517
:10517A002205AC1100000000000000000000000041
:10518A0000003D1353045C25320400000000A122F4
:10519A007F061C189526FBFF00001127780254028F
:0251AA000C02F5
:00000001FF
