:1000000048C300006EC300006CC300006AC3000058
:1000100068C3000066C3000064C3000062C3000040
:1000200060C300005EC300005CC300005AC3000050
:1000300058C3000056C3000054C3000052C3000060
:1000400050C300004EC300004CC300004AC3000070
:1000500048C3000046C3000044C3000042C3000080
:1000600040C300003EC30000000000000628040852
:100070000D090A231C22212026271B1A0B0E070F0D
:100080001D050C031E02505A525B544244685756D9
:1000900000000090005561490045004A4700464372
:1000A00067000000000000000000000000000000E9
:1000B00000004B92644D9397949998004568626153
:1000C0001F10111213141918171615000000000044
:1000D0000000000000000000000000000000000020
:1000E0000000000000000000000000000000000010
:1000F0000000000000000000000000000000000000
:1001000000000000000000000000000000000000EF
:1001100000000000000000000000000000000000DF
:1001200000000000000000000000000000000000CF
:1001300000000000000000000000000000000000BF
:1001400000000000000000000100410001A4410087
:10015000000000000000000000000000000000009F
:1001600000000000000000000000000086A8848855
:100170008D898AA39CA2A1A0A6A79B9A8B8E878F0C
:100180009D858C839E82000000000000000000001E
:10019000004100900000005E5548006348005D513A
:1001A000660000005C00000000000000000000008D
:1001B00000004B92964D9397949998004568626120
:1001C0001F10111213141918171615000000000043
:1001D000000000000000000000000000000000001F
:1001E000000000000000000000000000000000000F
:1001F00000000000000000000000000000000000FF
:1002000000000000000000000000000000000000EE
:1002100000000000000000000000000000000000DE
:1002200000000000000000000000000000000000CE
:1002300000000000000000000000000000000000BE
:100240000000000000000000010041000125410005
:10025000000000000000000000000000000000009E
:1002600000000000000000000000000086A8848854
:100270008D898AA39CA2A1A0A6A79B9A8B8E878F0B
:100280009D858C839E8250515253546359685756B2
:1002900000000090005561494A4700425A004E4F05
:1002A000440000000000000000000000000000000A
:1002B00000000000640000000000000000000000DA
:1002C000000000000000000000000000000000002E
:1002D000000000000000000000000000000000001E
:1002E000000000000000000000000000000000000E
:1002F00000000000000000000000000000000000FE
:1003000000000000000000000000000000000000ED
:1003100000000000000000000000000000000000DD
:1003200000000000000000000000000000000000CD
:1003300000000000000000000000000000000000BD
:1003400000000000000000000000000000A4000009
:10035000000000000000000000000000000000009D
:10036000000000000000000000000000000000008D
:10037000000000000000000000000000000000007D
:10038000000000000000000000000000000000006D
:10039000004100900000005E5D4800000000000089
:1003A000000000005C0000000000000000000000F1
:1003B00000004B92964D939794999800456862611E
:1003C0001F10111213141918171615000000000041
:1003D000000000000000000000000000000000001D
:1003E000000000000000000000000000000000000D
:1003F00000000000000000000000000000000000FD
:1004000000000000000000000000000000000000EC
:1004100000000000000000000000000000000000DC
:1004200000000000000000000000000000000000CC
:1004300000000000000000000000000000000000BC
:100440000000000000000000010041000125410003
:10045000000000000000000000000000000000009C
:1004600000000000000000000000000086A8848852
:100470008D898AA39CA2A1A0A6A79B9A8B8E878F09
:100480009D858C839E8250515253546359685756B0
:1004900000000000005561494A0000425A004E4FDA
:1004A0004400000000000000000000000000000008
:1004B000000000000000000000000000000000003C
:1004C000000000000000000000000000000000002C
:1004D000000000000000000000000000000000001C
:1004E000000000000000000000000000000000000C
:1004F00000000000000000000000000000000000FC
:1005000000000000000000000000000000000000EB
:1005100000000000000000000000000000000000DB
:1005200000000000000000000000000000000000CB
:1005300000000000000000000000000000000000BB
:1005400000000000000000000000000000000000AB
:10055000000000000000000000000000000000009B
:100560000000000000000000000000000628040851
:100570000D090A231C22212026271B1A0B0E070F08
:100580001D050C031E02101112131419181716154D
:100590001F9095112462605E5D00005B58436766A2
:1005A0004500000000000000000000000000000006
:1005B000000000000000009794999800456862616F
:1005C0001F1011121314191817161500000000003F
:1005D000000000000000000000000000000000001B
:1005E000000000000000000000000000000000000B
:1005F00000000000000000000000000000000000FB
:1006000000000000000000000000000000000000EA
:1006100000000000000000000000000000000000DA
:1006200000000000000000000000000000000000CA
:1006300000000000000000000000000000000000BA
:100640000000000000000000010041000125410001
:10065000000000000000000000000000000000009A
:1006600000000000000000006805680468056805D7
:100670006805680368026801680068056805680421
:100680006805680568056805680468056805680503
:10069000D22411241FBECFEFD8E0DEBFCDBF11E0C2
:1006A000A0E0B1E0E0E9FDE402C005900D92A836BB
:1006B000B107D9F722E0A8E6B1E001C01D92A43C41
:1006C000B207E1F713E0C9E4D3E004C02197FE01CB
:1006D0000E948C25C834D107C9F70E94F6230C94D8
:1006E000D6258ECCCF93DF939B01FC014096AB01C6
:1006F000405F5F4FE817F90719F4DF91CF91089534
:100700006191D901EF0121976623A1F3A417B507E1
:1007100089F36D9178817613F9CF1882F7CF9C0118
:1007200080E58CBD459882E28EBD0DB407FEFDCFFD
:100730008EB5C9010896F90140812F5F3F4F4EBD2C
:100740000DB407FEFDCF82179307A9F7459A0895C8
:1007500090E59CBD459828E0829FC00111248260ED
:100760008EBD0DB407FEFDCF8EB56EBD0DB407FE78
:10077000FDCF459A089590E59CBD459828E0829F5D
:10078000C00111248EBD0DB407FEFDCF1EBC0DB4FB
:1007900007FEFDCF8EB5459A089524E52CBD4398FC
:1007A0009EBD0DB407FEFDCF8EBD0DB407FEFDCF7F
:1007B000439A08958093A9028091C0028E7F80930E
:1007C000C0020895FC01128213828481887F848391
:1007D00015820895DC01ED91FC9181E0309731F0B4
:1007E00020813181232B11F080E008950895FB01D1
:1007F0008681813029F49781913019F480E0089541
:1008000081E00895CF93DF93EC01DCDF8889887F56
:100810008160888B1E82DF91CF910895DC01ED917C
:10082000FC9181E0309731F020813181232B11F050
:1008300080E008950895DC01ED91FC9181E030970E
:1008400031F020813181232B11F080E0089508954B
:10085000CF93DF93FC01128213828481887F84838B
:10086000DF01AB5BBF4F1C92EF01CA5BDF4F198208
:1008700018823596EA17FB0719F4DF91CF91089596
:1008800084818B7F848312823896F4CFE091BE02FC
:1008900021E02E0F2093BE02F0E0EE0FFF1FE65581
:1008A000FD4F918380830895CF93DF93EC01CB01BB
:1008B000049799838883EADFCE01DF91CF91089571
:1008C000CF93DF93EC01CB01049799838883DEDF1C
:1008D000CE01DF91CF910895E091BE02E150E09307
:1008E000BE02F0E0EE0FFF1FE655FD4F11821082B1
:1008F0000895CF93DF93EC0188819981009731F0BF
:10090000DC011296ED91FC910995E6DF19821882BF
:10091000DF91CF910895CF93DF93EC018881998186
:10092000009731F0DC011296ED91FC910995D4DF2E
:1009300019821882DF91CF910895CF93DF93EC0154
:1009400088819981009731F0DC011296ED91FC913C
:100950000995C2DF19821882DF91CF9108958FE146
:100960000ADF8F700895CF93DF93EC018A8169ECE1
:1009700082FF05C0809105016BEC82FF6FEC8BE17B
:10098000E7DE68818CE1DF91CF91E2CEDC01ED9171
:10099000FC9181E0309731F020813181232B11F0DF
:1009A00080E008950895CF93DF93EC0188819981C9
:1009B000009731F0DC011296ED91FC9109958CDFE6
:1009C00019821882DF91CF910895CF92DF92EF9232
:1009D000FF92CF93DF9300D000D0CDB7DEB7FC01FC
:1009E000DB0112962C91129730E013968C9113979D
:1009F000882321F09081891345C031968D919C9177
:100A0000280F391F19821A821B821C82C12CD12CFB
:100A10007601C3948217930779F469817A818B8177
:100A20009C810F900F900F900F90DF91CF91FF90CE
:100A3000EF90DF90CF900895DC0153E0B695A79535
:100A40005A95E1F7AE0FBF1F4C9150E0BC016770A3
:100A5000772702C0559547956A95E2F740FF0CC08D
:100A600049815A816B817C814C295D296E297F29BE
:100A700049835A836B837C830196CC0CDD1CEE1C6E
:100A8000FF1CC8CF19821A821B821C82C6CF90E538
:100A90009CBD459892E19EBD0DB407FEFDCF9EB56D
:100AA000FB019E2F961B981710F0459A0895908190
:100AB0009EBD0DB407FEFDCF9EB59193F2CF90E59C
:100AC0009CBD459898E09EBD0DB407FEFDCF9EB538
:100AD000962F272F392F361B381710F0459A089577
:100AE0001EBC0DB407FEFDCF3EB5E92FF22F3193AA
:100AF0009E2F2F2FEFCF853008F080E09AE0899F5E
:100B0000F0011124E859F94F9F01265F3F4F8BE90F
:100B100092E04491DC014C9301963196E217F30781
:100B2000C1F70895FC019C01205F3F4FDF01E217F0
:100B3000F30709F408958191811102C06C9308951F
:100B40008613F4CFFBCF20E1FC0111922A95E9F73F
:100B50000895CF93DF93FC011782158A148A168AB1
:100B6000DC0157968CE0ED0119928A95E9F71F9701
:100B700086E0ED01982F19929A95E9F71696ED0106
:100B800019928A95E9F7128213828481887F84837F
:100B9000DF91CF910895CF93DF93EC018C859D85F4
:100BA00080FF0CC08830910538F49AEA01C0969510
:100BB0008A95EAF790FD41C00E94B82584309105DE
:100BC000D9F0C0F5009709F445C00297A9F7E88568
:100BD000F985108287EE91E0998B888B80E197E20E
:100BE0009C8B8B8BE885F98590818F81981708F015
:100BF00050C06B858EE1ACDD89E1BDDD87FF2DC086
:100C000060E889E1A5DDABDE8A8B863059F384305C
:100C100059F59A85911108C02B893C8921503109D9
:100C20003C8B2B8B232BF1F68C831982188286E068
:100C300090E015C0069709F0BFCF8E85882389F014
:100C4000809167029091680249979093680280931F
:100C5000670207C0DE83CD83BACF84E090E09D8732
:100C60008C87DF91CF9108958111DECF86E083DDFF
:100C7000282F30E03E8B2D8B232B19F06889798942
:100C80001EDF64E089E164DD2D893E89211531058F
:100C900011F48A89C9CF88899989820F931F998B0A
:100CA000888BE885F9858081820F80839BCFEF92C6
:100CB000FF920F93CF93DF937C01C0916702D09195
:100CC0006802CE014996909368028093670220974C
:100CD00051F4F70111821082C701DF91CF910F917A
:100CE000FF90EF90089581E08E878BEC95E09983DB
:100CF00088838CE896E09B838A836F834887598733
:100D00002A870B87F701D183C083CE01BFDD1D8603
:100D10001C86CE0140DFE0CFFC0184859585816093
:100D200095878487CF0137CFCF93DF93EC018985F7
:100D30009A8580FF10C08130910589F10397873033
:100D4000910538F495E501C096958A95EAF790FDEE
:100D500026C00E94B8258430910529F0D8F4009768
:100D600059F10297B1F7FBDD813049F18F81988508
:100D7000D6DC60E18EE1ECDC89E1FDDC87FF26C09A
:100D800060E889E1E5DCEBDD8C831982188288E07C
:100D900090E017C08630910579F30897D1F68B85DE
:100DA000882389F080916702909168024097909320
:100DB00068028093670207C0DE83CD83D4CF84E0CE
:100DC00090E09A878987DF91CF91089586E090E03F
:100DD000F8CF0F931F93CF93DF938C01C0916702DD
:100DE000D0916802CE01409690936802809367028A
:100DF000209749F4F80111821082C801DF91CF9148
:100E00001F910F91089581E08B8784E996E0998383
:100E1000888389E197E09B838A836F837887F801D1
:100E2000D183C083CE0132DD1A861986CE017CDFE4
:100E3000E4CFFC0181859285816092878187CF0113
:100E400073CFEF92FF920F93CF93DF93EC01EA857C
:100E5000FB85E0FF0AC03197E731F10520F4E85245
:100E6000FA4D0C948C250E94B825E731F105D8F78E
:100E7000E151FA4D0C948C259E838D8388E2898BF9
:100E800088E0FE017296DF011D928A95E9F780E8FD
:100E90008A8B86E08B8B80E091E09D8B8C8B8985A3
:100EA00090E0998F888FBE016E5E7F4F7E01BBE11F
:100EB000EB0EF11CC7018DDFC70168DD81110AC08F
:100EC00084E090E09B878A87DF91CF910F91FF901C
:100ED000EF900895EB8DFC8D9481988B81E09D308F
:100EE00009F480E08E87CE014B965DDD8E85811101
:100EF00012C089898150898B811105C080E0CCC0E6
:100F00004B9651DD62C089E155DC81E08093BF02E0
:100F100086E090E0D7CF88898111F0CF60E28DE143
:100F200017DC00E020E0AE01415F5F4F69857E0184
:100F30008EE1E80EF11CC701BADEC70127DD811181
:100F400003C088E090E0BECFEE8DFF8D8481888B5A
:100F5000CE014E9628DD88898111D0CF8F858823D8
:100F600069F260EA8EE1F4DB89E105DC87FF1DC0F0
:100F700060E889E1EDDB8091E7018A8F6F817885F8
:100F8000DB01ED91FC910190F081E02D7E01B1E259
:100F9000EB0EF11CC7010995C7011CDC811108C0CB
:100FA0008CE090E08FCF4E96ACCF8AE090E08ACF75
:100FB000CE0181969EDC88ECFDDB81E08093BF0250
:100FC0008EE090E07FCF819694DC8C85882309F4B5
:100FD0007BCF8091670290916802C29790936802DC
:100FE0008093670271CF60E08CE1B2DB8A8D9F85D0
:100FF000981709F45CC090E89EA396E09FA320E0B8
:1010000031E039A728A71BA61AA690E09DA78CA7B8
:10101000BE016A5D7F4F7E0184E2E80EF11CC701CC
:10102000D8DEC701B3DC811103C080E190E04ACF74
:10103000ECA1FDA18481888BCE018496B4DC8889E3
:1010400081115CCF60E28DE183DB00E020E0AE0146
:10105000415F5F4F6A8D7E01AEE2EA0EF11CC7016F
:1010600026DEC70193DC811105C082E190E02ACF22
:10107000849647CFCE018E9696DC60EA8EE168DBDF
:1010800089E179DB87FF10C060E889E161DB81E0FD
:101090002F859A8D291332CF8C831982188286E18D
:1010A00090E010CF8E962DCF84E190E00BCF81E0C1
:1010B000F3CF0F931F93CF93DF938C01C0916702FF
:1010C000D0916802CE01C296909368028093670225
:1010D000209749F4F80111821082C801DF91CF9165
:1010E0001F910F91089581E08C8781E297E09983A9
:1010F00088838AE898E09B838A836F83788749870F
:10110000BE016C5F7F4FC801CFDB1B861A86CE0104
:1011100098DEE3CFFC018285938581609387828787
:10112000CF018FCECF92DF92EF92FF920F931F935A
:10113000CF93DF93EC01E985FA85E0FF0AC0319790
:10114000E532F10520F4EA5FF94D0C948C250E94FC
:10115000B825E532F105D8F7E55DF94D0C948C25FD
:101160009E838D8384E090E09E878D878D859E850C
:1011700001979E878D87892B39F480E08C831982B3
:10118000188284E290E02BC089EC90E09E8F8D8FD6
:10119000EF81F885848182FF0CC08BEC90E09E8FFC
:1011A0008D8F8091050182FD04C08FEC90E09E8FB1
:1011B0008D8F6D8D8BE1CCDA6F817885DB01ED91C0
:1011C000FC910190F081E02D8E01015E1F4FC8015E
:1011D0000995C801FFDA81110DC084E090E09A877B
:1011E0008987DF91CF911F910F91FF90EF90DF9052
:1011F000CF900895CE014F967CDB88ECDBDA81E05E
:101200008093BF0286E090E0EACF4F9672DB8B8539
:10121000882339F380916702909168028A55910979
:101220009093680280936702DCCF60E08CE190DAF3
:101230006F817885FB01848148E082FF40E48E0164
:101240000E5D1F4FC80135DFC801E8DA811103C008
:1012500088E090E0C4CFEAA1FBA184818C8FCE010D
:10126000829659DB8C8D811126C06F81788548E08C
:101270008E010C5D1F4FC8011CDFC801CFDA811140
:1012800006C08AE090E0ABCF829645DBC0CFECA1F0
:10129000FDA184818B8FCE0184963DDB8B8D8111E6
:1012A0000AC082E387DA81E08093BF028CE090E09D
:1012B00096CF8496EACF8D859E85892B09F45DCFE4
:1012C0008091EB01888B8091000191E0980F9093C1
:1012D0000001898B44DB8130D1F01AA685E08BA711
:1012E000898990E09DA78CA71FA61EA619AA18AAF7
:1012F000BE01665D7F4F8E01085D1F4FC80169DD2D
:10130000C80144DB811106C080E190E068CF8EE027
:1013100090E065CFE8A5F9A584818A8BCE018896F7
:1013200042DB88EE93E09E878D878D859E850197B1
:101330009E878D87892B71F060E88EE109DA89E15B
:101340001ADA87FF12C060E889E102DA08DB8A8BCB
:101350008111EBCF8AE02EDA81E08093BF0284E135
:1013600090E03DCF88961FDB52CF82E190E037CFEF
:101370008A89811102CF69898CE1EAD9EF81F885E8
:101380008989828388E0E6E0F1E0DE01D69601906B
:101390000D928A95E1F7BE016A5C7F4F8E010C5C6D
:1013A0001F4FC80116DDC801F1DA811103C086E1C3
:1013B00090E015CFECA9FDA984818A8BCE01C4965B
:1013C000F2DA60E28DE1C4D900E020E0AE01415FD5
:1013D0005F4F69E06E01FEE3CF0ED11CC60167DCF2
:1013E000C601D4DA811105C088E190E0F8CEC49638
:1013F000BACFEEADFFAD84818A8BCE01CE96D3DA23
:1014000060EA8EE1A5D989E1B6D987FF0AC060E814
:1014100089E19ED92F85211107C081E0AFCECE96FC
:10142000A2CF8AE190E0DBCE8091E9019091EA01C0
:101430009C8B8B8B30E08217930709F45EC0813858
:10144000910558F720E8BE016D5B7F4FDB012C93BF
:1014500026E0FE01EC5BFF4F208320E032E0319676
:101460003183208332961182108232969183808359
:101470008E010F5B1F4FC801ACDCC80187DA8111F8
:1014800003C08CE190E0ABCECE018F5B9F4FDC01BF
:10149000ED91FC9124812A8B86DA60E28DE158D9A6
:1014A00000E020E0AE01415F5F4F6B896E01BBE45D
:1014B000CB0ED11CC601FBDBC60168DA811106C068
:1014C0008EE190E08CCE8F5B9F4F4DCFCE01855B40
:1014D0009F4FDC01ED91FC9124812A8B64DA60EA54
:1014E0008EE136D989E147D987FF68C060E889E194
:1014F0002FD98F85882309F490CF87EE91E09E8BBA
:101500008D8B988F8F8B2091E9013091EA013A8F72
:10151000298FED89FE89CF01875E9140821793075D
:1015200008F07BCF8181843009F066C08091690228
:1015300090916A02FE01EF5AFF4F918380833296A9
:10154000918380833296069691838083FE01ED5AC3
:10155000FF4F0190F081E02DDE01AB5ABF4F8D911E
:101560009C91E817F90709F458CFDE01A15BBF4F42
:10157000ED93FC93608171816115710599F1ED889E
:10158000FE880F89188D4F8158854E5F5F4FDB01B4
:10159000ED91FC910190F081E02D28896E01B7E575
:1015A000CB0ED11CC6010995C60138D9811109C0DD
:1015B00082E290E014CE855B9F4FD5CE80E290E032
:1015C0000ECECE01895A9F4FDC01ED91FC91248112
:1015D0008E01025B1F4FF80120839DD9D8018C91A9
:1015E00081111BCFFE01ED5AFF4F80819181029640
:1015F000ABCF895A9F4F49CE80818E0F9F2F911D6F
:101600009E8B8D8B86CF0F931F93CF93DF938C018F
:10161000C0916702D0916802CE01865A9F4F909385
:10162000680280936702209749F4F80111821082C2
:10163000C801DF91CF911F910F91089581E08B87B1
:1016400082E998E09983888384E39BE09B838A8383
:101650006F837887BE016C5F7F4FC80125D91A86DA
:101660001986CE015FDDE4CFFC0181859285816022
:1016700092878187CF0156CD0F931F93CF93DF932E
:10168000EC01EF81F885E0FF2EC0ED30F10509F4A3
:1016900016C110F5EA30F105E8F4E330F10580F405
:1016A0003197B1F48985882309F451C0809167028C
:1016B000909168028897909368028093670247C070
:1016C000339785E501C08695EA95EAF780FDEACF74
:1016D0000E94B8253B97E5CF8596EF30F10509F4D8
:1016E000EFC07197DECFE131F10590F7E05BF94D86
:1016F0000C948C259E838D83109203018091690246
:1017000090916A02998B888B9B8B8A8B06969D8B16
:101710008C8BEA89FB898C899D89E817F907E1F4AC
:1017200011E01093000160E085E112D860E181E1F1
:101730000FD860E28FE00CD868E085E109D888EC2A
:1017400039D81093BF0284E090E098878F83DF91AF
:10175000CF911F910F910895FF87EE87808191812E
:10176000DC01ED91FC910280F381E02D09958A89DD
:101770009B8902969B8B8A8BCCCF60E085E10E948F
:10178000A80360E08FE00E94A80388EC13D881E0F2
:101790008093BF0286E090E0D8CF61EC8BE10E949D
:1017A000A80360E289E10E94A80364E08DE10E9441
:1017B000A80384E68C878C8581508C87882309F464
:1017C00093C08FE10E94BB03982F907C9D8791115D
:1017D00009C082E00E94DA0381E08093BF0288E0C2
:1017E00090E0B3CF9C85992309F47EC086FF14C096
:1017F0006BEC8BE10E94A80391E08091050190FBC6
:1018000082F98093050188EC0E94DA0381E08093DD
:10181000BF028AE090E099CF69EC8BE10E94A803B7
:1018200090E0EBCF61E071E08C01065E1F4FC801D4
:10183000EADEC8010E940E04811103C08CE090E032
:1018400084CFEA8DFB8D848191E089278B87CE013F
:101850004A9661D88B85811147C060E289E10E9478
:10186000A80389E10E94BB0385FD3EC08091690207
:1018700090916A0298A38F8F9AA389A306969CA33E
:101880008BA3E9A1FAA18BA19CA1E817F90749F361
:10189000FE8FED8F60817181DB01ED91FC91048001
:1018A000F581E02D8E010B5D1F4FC8010995C80120
:1018B0000E940E04811106C08EE090E046CF4A9649
:1018C0002AD8F0CEEDA1FEA1848191E089278C8FEA
:1018D000CE01859620D88C8D811106C089A19AA150
:1018E00002969AA389A3CDCF1982188280E190E055
:1018F0002CCFFC0187819085816090878783CF0101
:10190000BBCE0F931F93CF93DF9300D0CDB7DEB73D
:10191000EAEAF2E084E1DF011D928A95E9F710928C
:10192000BE020091E5011091E601C80188969093EE
:1019300068028093670201151105F9F081E0F80152
:1019400081878CE39BE09183808389E79CE093838C
:101950008283B8016C5F7F4FCE0101960E946004C4
:10196000D80118961C921E921797C8010F900F90DD
:10197000DF91CF911F910F917FCE0F900F90DF914C
:10198000CF911F910F9108950F931F93CF93DF93E2
:10199000EC018B859C8580FF11C08530910509F491
:1019A00055C030F48D7F019709F454C00E94B825CA
:1019B0008730910509F44EC00997F6CF8430910520
:1019C00031F1E8F4009701F1029781F789859A8552
:1019D0000E94B3046F8178858E01005F1F4FC8019C
:1019E000F8D9C8010E94C604811111C084E090E0BA
:1019F0009C878B87DF91CF911F910F91089586303F
:101A0000910589F00897D0CFDE83CD83DFCFE889B9
:101A1000F98984818F87CE0140960E94D30460E8C3
:101A20008EE10E94A80389E10E94BB0387FF1FC0CB
:101A300060E889E10E94A80381E09F85911180E020
:101A40008C831982188288E090E0D2CFCE01409634
:101A50000E94D3048D85882369F28091670290915A
:101A6000680244979093680280936702C3CF86E030
:101A700090E0BECF0F931F93CF93DF938C01C09163
:101A80006702D0916802CE014496909368028093D9
:101A90006702209749F4F80111821082C801DF9192
:101AA000CF911F910F91089581E08D8784EC9CE088
:101AB0009983888384E29EE09B838A836F837887FF
:101AC00049875A87BE016C5F7F4FC8010E9454044A
:101AD0001C861B86CE0158DFE1CFEF92FF920F9359
:101AE0001F93CF93DF93EC0189859A8580FF0DC00A
:101AF0008530910509F45EC030F48D7F019709F4BB
:101B00005DC00E94B8250797FACF8430910509F48B
:101B10003EC0C0F50097C1F1029799F78CE10E9491
:101B2000BB038D878BE10E94BB038E8788E0BE01DB
:101B3000615F7F4FFB0111928A95E9F783E28F87FE
:101B400083E0888B84E0E82EF12CFA8AE98AEF8121
:101B5000F885878190E09C8B8B8B458156818E0127
:101B6000095E1F4FC80186DFC8010E940E04811163
:101B70000EC0FA86E986DF91CF911F910F91FF90F9
:101B8000EF9008950697BBCFDE83CD83C7CFCE01FC
:101B900047960E948B046D858CE10E94A8036E8598
:101BA0008BE10E94A8031982188286E090E09A8750
:101BB0008987E1CFCE0147960E948B048B858823CD
:101BC000D1F280916702909168024A9790936802DF
:101BD00080936702D0CF0F931F93CF93DF938C0135
:101BE000C0916702D0916802CE014A969093680234
:101BF00080936702209749F4F80111821082C8018E
:101C0000DF91CF911F910F91089581E08B878DE631
:101C10009DE0998388838CE19EE09B838A836F8318
:101C20007887BE016C5F7F4FC8010E9460041A86EE
:101C30001986CE0152DFE3CFFC0181859285816058
:101C400092878187CF0149CFFC018385948581608C
:101C500094878387CF0198CEEF92FF920F931F93C3
:101C6000CF93DF93EC018E859F8580FF15C0853073
:101C7000910509F461C030F48D7F019709F460C0CB
:101C80000E94B8258730910509F488C086309105F7
:101C9000B9F38D7F0997F2CF8630910509F45DC0C5
:101CA00028F58E010C5E1F4F8230910539F084308B
:101CB000910511F1892B21F7DF83CE838B859C85DC
:101CC0000E94B30468857985C80183D8C8010E9441
:101CD000C604811111C084E090E09F878E87DF9158
:101CE000CF911F910F91FF90EF900895883091054B
:101CF00009F43FC00A97C2CFEC89FD8984818B8BA0
:101D0000C8010E94D30460E28DE10E94A80300E0B4
:101D10002D85AE014E5E5F4F6A857E0186E1E80E3D
:101D2000F11CC7010E945706C7010E94C604811119
:101D300014C086E090E0D1CFCE0144960E94D30437
:101D40008889882361F280916702909168024A979E
:101D50009093680280936702C2CFEE89FF898481E5
:101D60008B8BCE0146960E94D30460EA8EE10E94DE
:101D7000A80389E10E94BB0387FF13C060E889E1E3
:101D80000E94A8038A89882379F087EE91E09D83D9
:101D90008C83198218828AE090E09FCFCE0146960C
:101DA000CDCF88E090E099CF80E090E0F0CFFC01CB
:101DB00086859785816097878687CF014DCF0F9362
:101DC0001F93CF93DF938C01C0916702D09168027B
:101DD000CE014A969093680280936702209749F457
:101DE000F80111821082C801DF91CF911F910F91EC
:101DF000089581E0888B8CE29EE09983888387ED4B
:101E00009EE09B838A83688779874A872B873C87F4
:101E10001D86F801D183C083CE010E9446041F862F
:101E20001E86CE0119DFDFCFEF92FF920F931F9333
:101E3000CF93DF93EC0189859A8580FF0DC08530B3
:101E4000910509F464C030F48D7F019709F463C0F3
:101E50000E94B8250797FACF8430910509F446C04F
:101E6000B8F40097B9F0029799F780E08D872F8139
:101E70003885F901EB5BFF4F9081891770F081E0A5
:101E80008C831982188286E090E09A87898727C020
:101E90000697DCCFDE83CD83E8CF98E0BE01625F9A
:101EA0007F4FFB0111929A95E9F793EA9E8704E030
:101EB00010E01D8B0C8B90E001969B8B8A8B2E5F24
:101EC0003F4F44E07E01F8E1EF0EF11CC70177DFE0
:101ED000C7010E941B04811109C01A870987DF917D
:101EE000CF911F910F91FF90EF900895E88DF98D9C
:101EF000848195819F8B8E8BCE0148960E949D0494
:101F0000EE89FF898D85309799F48F5FAFCFCE0131
:101F100048960E949D048B85882309F3809167026F
:101F2000909168024B979093680280936702D7CF95
:101F300090819170EF81F885EA5BFF4F21E030E0FE
:101F4000082E02C0220F331F0A94E2F7408151810C
:101F50002423352341E0232B09F440E09417A9F210
:101F600080E08ECF0F931F93CF93DF938C01C091AE
:101F70006702D0916802CE014B96909368028093DD
:101F80006702209749F4F80111821082C801DF919D
:101F9000CF911F910F91089581E08B8784E19FE09D
:101FA0009983888383EE9FE09B838A836F837887FE
:101FB000BE016C5F7F4FC8010E9454041A861986C7
:101FC000CE0132DFE3CFFC0181859285816092876B
:101FD0008187CF0129CF0F931F93CF93DF93EC011C
:101FE0008885998580FF11C08530910509F455C019
:101FF00030F48D7F019709F454C00E94B8258730D2
:10200000910509F44EC00997F6CF8430910579F116
:1020100030F5009749F1029781F71E8689E08F8796
:102020008F8190E0998B888B1B8A1A8A1D8A1C8A63
:10203000BE01625F7F4F8E01045F1F4FC8010E9487
:10204000E906C8010E94C604811111C084E090E035
:1020500099878887DF91CF911F910F9108958630DE
:10206000910569F00897C7CFDE83CD83D6CFCE0127
:102070000C960E94D30460E88EE10E94A80389E1D7
:102080000E94BB0387FF1AC060E889E10E94A80391
:102090001982188288E090E0DBCFCE010C960E9476
:1020A000D3048A858823B1F28091670290916802F7
:1020B00048979093680280936702CCCF86E090E0C7
:1020C000C7CF0F931F93CF93DF938C01C09167020B
:1020D000D0916802CE01489690936802809367027F
:1020E000209749F4F80111821082C801DF91CF9145
:1020F0001F910F91089581E08A878BEE9FE099836D
:1021000088838CE593E19B838A836F83BE016C5F38
:102110007F4FC8010E94600419861886CE015BDFDC
:10212000E4CF0F931F93CF93DF93EC0188899989B4
:1021300080FF0DC08530910509F478C030F48D7FA3
:10214000019709F477C00E94B8250797FACF843029
:10215000910509F465C090F4009791F0029799F702
:102160008F819885DC0112962C91222361F080E00A
:102170008C831982188286E090E04BC00697E1CFED
:10218000DE83CD83EDCF2B85211104C0EE85FF8545
:1021900025812B872B85233051F76E857F85DC01C8
:1021A000ED91FC910680F781E02D09958111DFCF3B
:1021B000EE85FF85FD8BEC8B8181853021F0808160
:1021C000E80FF11DF7CFFF8BEE8BAF81B8858281D1
:1021D0008F7013968C931397E985FA8580811296F8
:1021E0008C931297928114968C91149792FB82F99A
:1021F00014968C93EC85FD8565818E01085E1F4FDA
:10220000C8015FDFC8010E94EA03811109C084E0B0
:1022100090E0998B888BDF91CF911F910F9108955A
:10222000CE0148960E94790481E0A2CFCE01489663
:102230000E9479048A89882371F3809167029091C2
:1022400068024B979093680280936702E4CFCF9225
:10225000DF92EF92FF920F931F93CF93DF936C0166
:10226000C0916702D0916802CE014B9690936802AC
:1022700080936702209769F4F60111821082C601EB
:10228000DF91CF911F910F91FF90EF90DF90CF9052
:10229000089581E08A8B81E990E19983888387E6BC
:1022A00091E19B838A836F83788749875A872B873D
:1022B0000C871D87EE86FF86BE016C5F7F4FC601CF
:1022C0000E945404198A188ACE012BDFD8CFFC0152
:1022D000808991898160918B808BCF0122CFEF9291
:1022E000FF920F931F93CF93DF93EC01E889F98955
:1022F000E0FF0AC03197E531F10520F4EF59F94DBF
:102300000C948C250E94B825E531F105D8F7EA58E0
:10231000F94D0C948C259E838D83AF81B8851296E0
:102320008C911297882339F080E08C83198218826F
:1023300084E190E039C08B85811104C0EE85FF8572
:1023400085818B878B85893079F7EE85FF85FD8BBD
:10235000EC8B8181853021F08081E80FF11DF7CF72
:10236000FF8BEE8B82818F7013968C931397E98588
:10237000FA85808112968C931297928114968C9193
:10238000149792FB82F914968C93EC85FD856581F8
:102390008E010E5D1F4FC80194DEC8010E94EA0342
:1023A00081110BC084E090E0998B888BDF91CF91F5
:1023B0001F910F91FF90EF900895CE0182960E9499
:1023C000790488E0EEE0F1E0DE01589601900D928C
:1023D0008A95E1F72F8138852E5F3F4F48E0BE0197
:1023E000685E7F4F8E010C5D1F4FC801E8DCC8019D
:1023F0000E941B04811113C086E090E0D5CF829625
:102400000E9479048A89882389F2809167029091D9
:102410006802C8979093680280936702C7CFECA1C7
:10242000FDA18481958199A388A3CE0184960E9401
:102430009D04E8A1F9A1309709F476CF8281EF815C
:10244000F885EB5BFF4F808380E08EA34F8158853A
:10245000FA01EB5BFF4F9081891730F081E065CF87
:1024600084960E949D04CECF282F30E061E070E07A
:10247000DB0102C0AA0FBB1F8A95E2F7B8A7AFA382
:1024800083E2888F83E0898F88E0E82EF12CFB8E31
:10249000EA8E2F5F3F4F3D8F2C8F1F8E1E8E4E5F1B
:1024A0005F4FBE01685E7F4F8E01035D1F4FC80105
:1024B000E1DAC8010E940E04811103C0F98AE88A9A
:1024C00075CFCE018D960E948B0482E30E94DA03C1
:1024D00081E08093BF028AE090E066CF8D960E94F3
:1024E0008B0490CF8EA190E0019623E2288F23E009
:1024F000298F24E030E03B8F2A8F9D8F8C8F1F8E99
:102500001E8E4F8158854E5F5F4FBE01685E7F4FC4
:102510008E01005D1F4FC801ADDAC8010E940E0494
:10252000811103C08CE090E03FCFCE01C0960E94A5
:102530008B0482E30E94DA0381E08093BF028EE085
:1025400090E032CFC096CBCF8EA190E0019623EAE7
:10255000288F198E1B8E1A8E9D8F8C8F84E090E0B1
:102560009F8F8E8F2F8138852E5F3F4F44E0BE01B5
:10257000685E7F4F8E010D5C1F4FC80120DCC801D3
:102580000E941B04811103C080E190E00DCFEBA9F4
:10259000FCA9848195819AA789A7CE01C3960E9440
:1025A0009D0409A51AA5F801808180FF38C0EF813C
:1025B000F8859F012A5B3F4FD9018D919C9111971E
:1025C0004FA158A5842B952B8D939C938EA1B8E099
:1025D0008B9FC0011124BC016B5F7F4F6E0F7F1F6B
:1025E0007CA76BA7E80FF91FD80111969C918185F4
:1025F00091FB82F9818717828E010B5C1F4FC80106
:1026000002D8C8010E940E04811105C082E190E049
:10261000CBCEC39626CFCE01C5960E948B048EA149
:102620008F5F13CFC5965BCFCF92DF92EF92FF9271
:102630000F931F93CF93DF936C01C0916702D091EA
:102640006802CE01C8969093680280936702209733
:1026500069F4F60111821082C601DF91CF911F91BA
:102660000F91FF90EF90DF90CF90089581E08A8BDB
:102670008FE691E19983888384E593E19B838A8344
:102680006F83788749875A872B870C871D87EE864B
:10269000FF86BE016C5F7F4FC6010E945404198AF9
:1026A000188ACE011CDED8CFFC0180899189816017
:1026B000918B808BCF0113CEFC0180859185816049
:1026C00091878087CF0187CCEF92FF920F931F9362
:1026D000CF93DF93EC018B859C8580FF0DC0853007
:1026E000910509F46EC030F48D7F019709F46DC037
:1026F0000E94B8250797FACF84309105E1F1A0F543
:102700000097A1F10297A1F789859A850E94B304E9
:10271000E985FA85828160E280FF60E181FF29C05E
:1027200080E8682B8DE10E94A803E985FA85018184
:1027300021E0AE01415F5F4F68857E0181E1E80ED7
:10274000F11CC7010E945706C7010E94C6048111EF
:1027500012C084E090E09C878B87DF91CF911F911E
:102760000F91FF90EF9008950697C0CFDF83CE833F
:10277000CBCF80E4D6CFE989FA898481888BCE01DA
:1027800041960E94D30409851A858FE10E94BB03FC
:10279000982F85FB882780F9880F92959170892B57
:1027A000F80192819C7F892B828388898430D1F0C3
:1027B00087EE91E09D838C831982188286E090E0F9
:1027C000CACFCE0141960E94D3048D85882329F279
:1027D0008091670290916802449790936802809379
:1027E0006702BBCF80E090E0E5CF0F931F93CF93BC
:1027F000DF938C01C0916702D0916802CE014496AC
:102800009093680280936702209749F4F80111823F
:102810001082C801DF91CF911F910F91089581E03F
:102820008D8784E693E19983888382EC95E19B838D
:102830008A83688749875A87F801D183C083CE018C
:102840000E9446041C861B86CE013EDFE2CF7F92AB
:102850008F929F92AF92BF92CF92DF92EF92FF92B0
:102860000F931F93CF93DF93CDB7DEB72A970FB6A1
:10287000F894DEBF0FBECDBF8C01DC0119968D919F
:102880009C9180FF0DC08530910509F4F0C030F4B3
:102890008D7F019709F4EFC00E94B8250797FACF02
:1028A0008430910509F446C040F5009741F1029744
:1028B00099F7D8011796ED91FC918281811123C07F
:1028C00081E0F80184831182108286E090E0928793
:1028D00081872A960FB6F894DEBF0FBECDBFDF9179
:1028E000CF911F910F91FF90EF90DF90CF90BF900D
:1028F000AF909F908F907F9008950697CBCFF8016F
:1029000016830583D6CFAF014E5F5F4F63A1780179
:10291000F9E1EF0EF11CC70168DFC7010E941B043B
:10292000811108C084E090E0D8011A969C938E93A0
:102930001997CFCFD8015996ED91FC915A97848180
:1029400095811E969C938E931D97C80149960E946F
:102950009D04F801C584D684C114D10409F4B0CF14
:1029600080E190E0D801908B8787E780F084F701C1
:10297000158A148AC70147965E969C938E935D973D
:1029800090969C938E935F974701F3E28F0E911C74
:1029900092969C928E92919777247394D8015F9629
:1029A000AD90BC908A149B0409F075C0B701685FB4
:1029B0007F4FC6010E94E5044B015C01F801818A4A
:1029C000928AA38AB48AB701625F7F4FC6010E94D0
:1029D000E504462F572FBC01D80155964D935D93C2
:1029E0006D937C935897F701848590E0A0E0B0E068
:1029F00088169906AA06BB0629F4848995898260FF
:102A0000958B848BD7011D968C9190E0A0E0B0E06F
:102A100088169906AA06BB0631F4F70184899589C0
:102A20008160958B848BD70152968C9190E0A0E0C9
:102A3000B0E0481759076A077B0731F4F70184892A
:102A400095898860958B848BD70153968C9190E003
:102A5000A0E0B0E0481759076A077B0709F030CFBC
:102A6000F701848995898460958B848B29CFC8016F
:102A700049960E949D04D8011B968C91882309F4E5
:102A800028CF8091670290916802849790936802A2
:102A9000809367021ECFD8015C96BC92AE925B9782
:102AA000F5018081882371F190E09A8389837B828C
:102AB0007C821D827E82BE016F5F7F4FC6010E94B5
:102AC000E5046F83788789879A87672B682B692B42
:102AD00071F0D70154968D919C915597F8012785F7
:102AE0003089822B932B55969C938E935497D801C3
:102AF0001F968D919C915097880F991F50969C938B
:102B00008E931F97BFEFAB1ABB0AF801B0A2A78E36
:102B100045CF0F931F93CF93DF938C01C091670232
:102B2000D0916802CE0184969093680280936702E8
:102B3000209749F4F80111821082C801DF91CF91EA
:102B40001F910F91089581E08B8787E294E199832B
:102B500088838AEB95E19B838A836F837887BE01A4
:102B60006C5F7F4FC8010E9454041A861986CE01FB
:102B70006EDEE3CFFC01818592858160928781873B
:102B8000CF0165CEFC01838594858160948783871E
:102B9000CF019ACDCF93DF93EC0189859A8580FF91
:102BA0000CC08830910538F49AEA01C096958A9550
:102BB000EAF790FD1AC00E94B8258430910549F0CB
:102BC00090F40097F9F00297B1F761E08DE10E946F
:102BD000A8038DE10E94BB0380FD17C019821882F3
:102BE00086E090E01AC0069731F78B858823B9F00C
:102BF00080916702909168020F979093680280938A
:102C000067020DC0DE83CD83E0CF82E30E94DA034A
:102C100081E08093BF0284E090E09A878987DF910A
:102C2000CF9108950F931F93CF93DF938C01C091A1
:102C30006702D0916802CE010F969093680280934C
:102C40006702209749F4F80111821082C801DF91D0
:102C5000CF911F910F91089581E08B878AEC95E1C8
:102C60009983888383E496E19B838A836F83788743
:102C7000BE016C5F7F4FC8010E9460041A861986EE
:102C8000CE0188DFE3CFFC01818592858160928748
:102C90008187CF017FCF2F923F924F925F926F92A9
:102CA0007F928F929F92AF92BF92CF92DF92EF92DC
:102CB000FF920F931F93CF93DF93CDB7DEB7C85C1E
:102CC000D1090FB6F894DEBF0FBECDBF8C01DC0179
:102CD00050968D919C9180FF11C08530910509F42B
:102CE000ECC130F48D7F019709F4ECC10E94B82546
:102CF0008730910509F421C50997F6CF84309105F5
:102D000009F4A4C0D8F40097F9F0029779F7D80134
:102D10001796ED91FC91189782818823C9F080E085
:102D2000D80114968C93149711961C921E9288E0E9
:102D300090E051969C938E9350976EC0863091058B
:102D400009F4F4C40897D0CFF80116830583DFCFC8
:102D5000F8018385811106C00684F785E02D858101
:102D60001B968C93F80183858330C9F60684F7851A
:102D7000E02DD8015596FC93EE93549781818132D2
:102D800021F08081E80FF11DF4CF5796FC93EE936C
:102D900056974781508559965C934E935897413882
:102DA000510508F0BCCF1C968D919C91DC011596C5
:102DB0008C91D8015A968C9388E0B801655E7F4F5C
:102DC000DB011D928A95E9F781E8D8015B968C9327
:102DD0005B9786E05C968C935C9786815D961C92EF
:102DE0005D975E968C935E9792965C934E939197C7
:102DF00019962D913C917801BAE5EB0EF11CC701B3
:102E00000E94DF0EC7010E941B0481111FC084E0D5
:102E100090E0F801918B808BC853DF4F0FB6F89488
:102E2000DEBF0FBECDBFDF91CF911F910F91FF90FD
:102E3000EF90DF90CF90BF90AF909F908F907F905A
:102E40006F905F904F903F902F900895C801865AE1
:102E50009F4FDC01ED91FC9124813581F80134A371
:102E600023A30E949D04D80193962D903C909497A3
:102E70002114310409F453CFF8010780F085E02DC7
:102E8000C554DF4FF983E883CB5BD0403596CF53F1
:102E9000DF4FF983E883C15CD04098012B5D3F4F41
:102EA000C854DF4F39832883C85BD04058960D90B3
:102EB000BC91A02DCD54DF4FB983A883C35BD04014
:102EC0002C5D3F4FCB54DF4F39832883C55BD04007
:102ED00085E3C854DF4FE881F981C85BD040119287
:102EE0008A95E9F7DE0111968CE1FD0111928A9530
:102EF000E9F787E0F90111928A95E9F781E0F80195
:102F0000E85BFF4F8083C255DF4F188219821A8217
:102F10001B82CE5AD040412C512C3201CE54DF4F6F
:102F20001882C25BD040812C912C5D019E012F58EC
:102F30003F4FC955DF4F39832883C75AD040A90175
:102F4000485F5F4FCD53DF4F59834883C35CD04008
:102F5000C801895A9F4FC354DF4F99838883CD5B43
:102F6000D040C955DF4F9881C75AD040C953DF4F71
:102F70009883C75CD040C855DF4FA881C85AD0405D
:102F8000C853DF4FA883C85CD040E7E9F0E0EC0FFE
:102F9000FD1F3296CB53DF4FF983E883C55CD040E9
:102FA000C755DF4FB982A882C95AD0402C51310988
:102FB000C555DF4F39832883CB5AD040A801475AE3
:102FC0005F4FC154DF4F59834883CF5BD040CD540E
:102FD000DF4F28813981C35BD040232B09F459C1CD
:102FE000D101BC91C654DF4FB883CA5BD0408B2F50
:102FF0008370823009F48EC0833009F473C081304D
:1030000009F49FC0EFEF2E1A3E0ACD54DF4F2881FE
:103010003981C35BD04021503109CD54DF4F398312
:103020002883C35BD040C12CD12CE12CF12CC65499
:10303000DF4F2881CA5BD0402C7FC355DF4F2883E8
:10304000CD5AD040243609F49DC108F0BCC02432CA
:1030500009F488C108F097C0243109F47DC108F053
:1030600087C0243009F472C1283009F4F3C1C65472
:10307000DF4F8881CA5BD0408C708111A8CFCE54BD
:10308000DF4F1882C25BD040C255DF4F1882CE5A44
:10309000D040C155DF4F1882CF5AD040C055DF4FC6
:1030A0001882C05BD040CF54DF4F1882C15BD04044
:1030B000412C512C612C712C8ACFC801865A9F4F0C
:1030C0000E949D04F8018289882309F4A5CE80918D
:1030D0006702909168028F559109909368028093DE
:1030E00067029ACED1011196CD90DD90ED90FC90C3
:1030F0001497CD54DF4FE881F981C35BD0403597F9
:10310000CD54DF4FF983E883C35BD040F5E02F0E49
:10311000311C8DCFD1011196CD90DC90E12CF12C9A
:10312000CD54DF4FE881F981C35BD0403397CD5454
:10313000DF4FF983E883C35BD040F3E02F0E311CEF
:1031400076CFD1011196CC90D12CE12CF12CCD541D
:10315000DF4FE881F981C35BD0403297CD54DF4F18
:10316000F983E883C35BD040F2E02F0E311C5FCFC0
:10317000C355DF4F3881CD5AD040383109F077CF71
:103180002601370124CFC355DF4F4881CD5AD040A7
:10319000443409F4EFC060F4483209F4BEC2443349
:1031A00009F065CFF501C28AD38AE48AF58A0FCF88
:1031B000C355DF4F5881CD5AD040543509F057CF11
:1031C000F501C18604CFC355DF4F8881CD5AD04069
:1031D000803A09F466C1F0F4843809F4DEC060F482
:1031E000843709F4D7C0803809F041CFC954DF4F84
:1031F0001882C75BD0406EC2C355DF4F9881CD5A4D
:10320000D040903999F3943909F0E1CED5015A961E
:10321000CC92DDCEC355DF4FA881CD5AD040A43B20
:1032200009F486C028F4A43A51F1A03BF9F2CFCEBC
:10323000C355DF4FB881CD5AD040B03C09F017CF0D
:103240008114910431F1F40185809680C255DF4FDD
:103250001882CE5AD040C155DF4F1882CF5AD04085
:10326000C055DF4F1882C05BD040CF54DF4F18826B
:10327000C15BD040412C512C612C712C56C1C555DD
:10328000DF4FE881F981CB5AD040AE16BF0609F076
:1032900044C0D8011796ED91FC911897A95ABF4FD9
:1032A0008D919C91079643E0969587954A95E1F715
:1032B00083A3D8011796ED91FC91189787818823F5
:1032C00009F42DCD19968D919C91DC018C9182830E
:1032D000D8011796ED91FC91189781E08383199698
:1032E000ED91FC911A9792811796ED91FC911897A8
:1032F000848192FB82F984835A966C917801BCE5B3
:10330000EB0EF11CC7010E946110C7010E94EA0385
:1033100081110CC286E090E07CCDC5014C962CE179
:10332000F501DC0101900D922A95E1F75C014FCE89
:10333000C755DF4FE881F981C95AD040EA15FB052E
:1033400009F4A7CFFCE1AF1AB10841CED50112961E
:10335000DC92CE9211973BCEF501C286D386E486ED
:10336000F58635CED5011E96CD92DD92ED92FC927A
:1033700051972DCED5015696CD92DD92ED92FC92CD
:10338000599725CED5011596CD92DD92ED92FC92FE
:1033900018971DCEF501C0821ACE9C2DF501C38E63
:1033A000C154DF4FA881B981CF5BD0408C91882375
:1033B000E1F1D801A85BBF4F8C91F801E75BFF4FAB
:1033C00020E030E02817C8F0823009F462CF91E0A5
:1033D000980F9C9327E0A801289F400D511D1124B0
:1033E000DA01A75BBF4FCB54DF4FB983A883C55B1E
:1033F000D0401D922A95E9F718C06081A9014F5F5E
:103400005F4F3796961324C047E0429FC001439F09
:10341000900D1124875B9F4FF801E80FF91FCB54E3
:10342000DF4FF983E883C55BD04021E0C154DF4F13
:10343000E881F981CF5BD0402083D5015B968C91E8
:10344000CB54DF4FE881F981C55BD0408083BFCD8D
:103450009A01B8CFCE54DF4FF881C25BD040F8302C
:1034600009F417CF833029F4D5011296FC92EE921D
:103470001197CE54DF4FB881C25BD040EB2FF0E004
:10348000EE0FFF1F27E930E02C0F3D1FE20FF31F67
:10349000D182C082BF5FCE54DF4FB883C25BD040C1
:1034A00096CD8114910409F44CC0F801BC969801A2
:1034B0002F5B3F4F85819681892BE9F59682858226
:1034C0004F01D401CC92F5018181928112969C9397
:1034D0008E931197CE54DF4FF881C25BD040FF230B
:1034E000B9F1BE0169567F4FDB018D919D91BD0100
:1034F000F40194838383CE54DF4F8881C25BD04034
:103500008150482F50E0440F551FCE0189569F4FE0
:103510000E94BC25C255DF4F188219821A821B8275
:10352000CE5AD040412C512C3201CE54DF4F18825C
:10353000C25BD0404CCDE217F30709F4AACE379610
:10354000B9CFC854DF4F88809980C85BD040B9CFCD
:10355000C255DF4F288139814A815B81CE5AD040E4
:103560002415350546055705A8F214965C924E922F
:103570001397C255DF4F188219821A821B82CE5AC6
:10358000D040412C512C320122CD8AE1F501CD539E
:10359000DF4FA881B981C35CD04001900D928A951C
:1035A000E1F7E696DFAECEAEE697E9969FAE8EAE39
:1035B000E997D5015B968C91E7968FAFE797CE544C
:1035C000DF4FB881C25BD040BB2309F48EC0C9561F
:1035D000DF4F88819981C759D040EE969FAF8EAF5B
:1035E000EE97B150CE54DF4FB883C25BD0404B2F23
:1035F00050E0440F551FCB53DF4F68817981C55C84
:10360000D040CE0189569F4F0E94BC25C355DF4F45
:103610004881CD5AD040E0E0403821F0E2E0403926
:1036200009F4E1E0E496EFAFE497F0E0EE0FFF1F5E
:10363000CB54DF4F88819981C55BD040E80FF91FDB
:1036400081819281E3969FAF8EAFE397D5012C9154
:10365000820F911D92838183C354DF4FE881F981EA
:10366000CD5BD040208131812817390708F49C01B7
:10367000C354DF4FA881B981CD5BD0402D933C93DB
:10368000C0FC1DC0C554DF4FA881B981CB5BD040C1
:103690001596ED91FC910190F081E02DC953DF4F1B
:1036A0006881C75CD040C853DF4F7881C85CD04088
:1036B000CF53DF4F88819981C15CD0400995C954AF
:1036C000DF4FB881C75BD040BF5FC954DF4FB883BD
:1036D000C75BD040F501828DC954DF4FF881C75BCD
:1036E000D040F81708F451CFC2CCC255DF4F288123
:1036F00039814A815B81CE5AD04024153505460573
:10370000570508F483CFEE965FAE4EAEEE973FEFCF
:10371000431A530A630A730A79CFC255DF4FC8822E
:10372000D982EA82FB82CE5AD04051CCC801845A59
:103730009F4F0E94790481E0F3CAC801845A9F4FC9
:103740000E947904BFCCCF92DF92EF92FF920F9349
:103750001F93CF93DF936C01C0916702D0916802F1
:10376000CE01815A9F4F9093680280936702209701
:1037700069F4F60111821082C601DF91CF911F9189
:103780000F91FF90EF90DF90CF90089581E08A8BAA
:103790008BE496E19983888384EE9BE19B838A8303
:1037A0006F83788749875A872B870C871D87EE861A
:1037B000FF86BE016C5F7F4FC6010E945404198AC8
:1037C000188ACE0168DAD8CFFC018089918981609E
:1037D000918B808BCF015FCACF93DF93EC01EE8595
:1037E000FF85E0FF12C0E830F10548F48AEA01C025
:1037F0008695EA95EAF780FD78C00E94B82539974A
:1038000085E5E730F10598F3F8CFEF30F105A8F73B
:10381000E557F94D0C948C259E838D838C859D8571
:103820000E94B304EF81F88588E0DE015296019092
:103830000D928A95E1F70E94AF04813089F0CE01A4
:1038400042960E948F0360E18EE10E94A80381E00E
:103850000E94DA0381E08093BF0286E090E002C01C
:1038600084E090E09F878E87DF91CF91089588E074
:1038700090E0F8CF89E10E94BB0387FFF8CF60E8B2
:1038800089E10E94A80360E88DE10E94A8036A858F
:103890007B8589850E944705698587E00E94A8038A
:1038A00060E28EE10E94A80389E10E94BB0387FFCA
:1038B00016C060E889E10E94A80360E88EE10E94DA
:1038C000A80389E10E94BB0387FF0CC060E889E17F
:1038D0000E94A803198218828EE090E0C3CF8AE08C
:1038E00090E0C0CF8CE090E0BDCF8889882309F4B8
:1038F000BBCF809167029091680280979093680295
:1039000080936702B1CFFC01868597858160978798
:103910008687CF0161CF0F931F93CF93DF938C01E5
:10392000C0916702D0916802CE01809690936802A0
:1039300080936702209749F4F80111821082C80130
:10394000DF91CF911F910F91089581E0888BECEE6C
:10395000FBE1F983E883E3E8FCE1FB83EA836F831F
:10396000788789874A875B872C873D87BE016C5F94
:103970007F4FC8010E9460041F861E86CE012CDF87
:10398000DECF0F931F93CF93DF93EC01E985FA8588
:10399000E0FF0AC03197E331F10520F4E656F94D16
:1039A0000C948C250E94B825E331F105D8F7E35536
:1039B000F94D0C948C259E838D834F815885FA0197
:1039C0008281882309F4C3C0808980FFC9C08E7FAB
:1039D000808B88E0E6E1F1E0DE011D9601900D921A
:1039E0008A95E1F74E5F5F4FBE01635F7F4F8E01A7
:1039F000095E1F4FC8010E943A0DC8010E940E04C3
:103A0000811109C084E090E09A878987DF91CF9186
:103A10001F910F910895CE0147960E948B0488E074
:103A2000EEE1F1E0DE011D9601900D928A95E1F73D
:103A30004F8158854E5F5F4FBE01635F7F4F8E01A0
:103A4000075E1F4FC8010E943A0DC8010E940E0474
:103A5000811113C086E090E0D7CF47960E948B0477
:103A60008B85882399F28091670290916802C097B4
:103A70009093680280936702C9CFCE0149960E9455
:103A80008B0488E0E6E2F1E0DE011D9601900D92E4
:103A90008A95E1F787E08D8B2F8138852E5F3F4F28
:103AA000AE014B5E5F4FBE01635F7F4F8E01055ECF
:103AB0001F4FC80130DFC8010E94EA03811105C011
:103AC00088E090E0A1CF4996C9CFCE014B960E94E5
:103AD00079048AEF0E94DA0381E08093BF028AE0D2
:103AE00090E092CF4B960E947904BACF1E8A2F8124
:103AF00038852E5F3F4FAC014A5E5F4FBC01635F6C
:103B00007F4F8C01025E1F4FC80105DFC8010E9474
:103B1000EA03811103C08CE090E076CFCE014E968F
:103B20000E947904EF81F88521E08681811101C02E
:103B300020E0808982FB992790F9922B90FB82F9F3
:103B4000808B1682EF81F88580898260808B81E08E
:103B50008C831982188282E190E056CF4E96C3CFB3
:103B600081FFF5CF82FF27C02F813885F901808939
:103B70008B7F808B88E0E6E2F1E0DE019296019097
:103B80000D928A95E1F7F90186818AA72E5F3F4F52
:103B9000AE01465D5F4FBE016E5D7F4F8E01055DDC
:103BA0001F4FC801B8DEC8010E94EA0381111DC081
:103BB0008EE090E029CF878191E0980F97838F70F6
:103BC000882391F24F8158854E5F5F4F68E08E01E8
:103BD000035D1F4FC8010E94F513C8010E941B041A
:103BE00081110AC080E190E00FCFCE018B960E9438
:103BF0007904E8CF8B9677CFEDA5FEA584819581DA
:103C000099A388A3CE018D960E949D04E8A1F9A1F5
:103C1000309709F49CCFAF81B885189688E0019061
:103C20000D928A95E1F7EF81F88581E085838FCF4A
:103C30008D960E949D0414CF0F931F93CF93DF9313
:103C40008C01C0916702D0916802CE01C09690931A
:103C5000680280936702209749F4F801118210826C
:103C6000C801DF91CF911F910F91089581E08B875B
:103C700081EC9CE1998388838DE49EE19B838A8318
:103C80006F837887BE016C5F7F4FC8010E94540428
:103C90001A861986CE0175DEE3CFFC0181859285F7
:103CA000816092878187CF016CCEEF92FF920F9354
:103CB0001F93CF93DF93EC017C0180E1E80EF11CB0
:103CC00008E010E0C8013ED76991861721F0F99904
:103CD000FECFC8013FD70F5F1F4FCE15DF0591F70D
:103CE000DF91CF911F910F91FF90EF9008952F9248
:103CF0003F924F925F926F927F928F929F92AF927C
:103D0000BF92CF92DF92EF92FF920F931F93CF93C8
:103D1000DF93CDB7DEB7E4970FB6F894DEBF0FBEE2
:103D2000CDBF8C01DC0117968D919C916C01B1E0A7
:103D3000CB22DD24C114D10459F08630910538F42A
:103D40009AE201C096958A95EAF790FD10C010D7C7
:103D50008230910529F18430910549F0892BB9F71A
:103D6000F8011683058382E090E090878783E496CC
:103D70000FB6F894DEBF0FBECDBFDF91CF911F917C
:103D80000F91FF90EF90DF90CF90BF90AF909F90FA
:103D90008F907F906F905F904F903F902F900895FD
:103DA0008091D901D8011B968C931B971092D90151
:103DB000499A8091D601FE017A967F01882309F401
:103DC00001C21B964C90442009F4FCC1CF010E9413
:103DD000A305B090DC01B1FE04C061EEC7010E94F2
:103DE0009205B5FE04C065EEC7010E949205B0FEC3
:103DF00004C060EEC7010E949205B4FE04C064EEE8
:103E0000C7010E949205B2FE04C062EEC7010E9483
:103E10009205B6FE04C066EEC7010E949205B3FE8D
:103E200004C063EEC7010E949205B7FE04C067EEAE
:103E3000C7010E9492059DED892E91E0992E21EEF9
:103E4000A22E21E0B22ED4016D914D01662319F00E
:103E5000C7010E949205A814B904A9F780E1FE01E8
:103E60007A96ABE7B2E001900D928A95E1F780E196
:103E7000EBE6F2E0ABE8B2E001900D928A95E1F753
:103E80006BE672E08BE792E00E947203B7018BE869
:103E900092E00E947203ABE78A2EA2E09A2EBBE664
:103EA0006B2EB2E07B2E8BE8282E82E0382EFE01AE
:103EB00031965F012814390471F5FBE88F2EF2E08A
:103EC0009F2E8BE992E02BE732E07091A50273FB05
:103ED000FF27F0F974FBEE27E0F98815990509F042
:103EE000EEC0F11103C076FBFF27F0F9D80151961F
:103EF000FC93E11105C0E091A502E7FBEE27E0F994
:103F0000D8015296EC938BE792E08615970509F05D
:103F100042C1412C46C1D4015D904D01552051F262
:103F200081E0B0EE5B1280E04091A50243FB2227C6
:103F300020F9282B81E0E2EE5E1280E044FB33277B
:103F400030F9382B51E0852D8B7F833E09F050E00E
:103F50009091A6029170952B42FB882780F951E041
:103F6000F1EE5F1250E0852B880F880F522F550F0E
:103F7000550F550F852B532F5295507F852B45FBA1
:103F8000552750F961E075EE571260E0562B5295B7
:103F9000550F507E852B46FB552750F961E0A4EE66
:103FA0005A1260E0562B5295550F550F507C852BB9
:103FB00047FB442740F951E0B6EE5B1250E0452B39
:103FC000479544274795842B4091A5024370842B45
:103FD0008093A5028091A60290FB80F98093A602AF
:103FE000E9E35E1225C0482F477F83FF4860409376
:103FF000A602332311F0211103C0992309F44BC009
:10400000D501E0E11D92EA95E9F740E150E068E072
:1040100070E0C50187D59981FA81FCABE6ECE50D2E
:10402000A8AAB9AAE830B8F5F0E0E054F94D74C593
:10403000F3E55F12DECF482F4F7E84FF4061D7CF7C
:1040400019828A818370880F2091A602297F822B92
:104050008093A6028981981729F00E947B0588A980
:1040600099A923DE8A812CA9281709F423CF88A9CE
:1040700099A91BDE1FCF81E08983E3CF82E0FCCFCB
:1040800083E0FACF1A82DDCF81E08A83DACF82E043
:10409000FCCF83E0FACF8091A50282FF0AC085FFA2
:1040A00008C09091A602892F8F7D95FF8062809332
:1040B000A602652D8BE692E00E949205FBCED4010C
:1040C0006D914D01662309F400CF51E0462F4B7FDF
:1040D000433E09F450E04091A602542372FB44276A
:1040E00040F9BB24B394613E09F4B12C4B21440F39
:1040F000440FBB24B394603E09F4B12CFB21FF0FA5
:10410000FF0FFF0F4F2BF1E0623E09F4F0E0EF23C9
:10411000E295E07F4E2B75FBEE27E0F9F1E0653E7E
:1041200009F4F0E0EF23E295EE0FE07E4E2B76FBF4
:10413000EE27E0F9F1E0643E09F4F0E0EF23E295C8
:10414000EE0FEE0FE07C4E2B77FB772770F9E1E066
:10415000663E09F4E0E07E23779577277795472B35
:104160007091A5027370472B4093A5024091A6025F
:1041700050FB40F94093A602EBE6F2E02E173F0712
:1041800009F4A3CE41916413F9CFAF014150510915
:10419000DA011C92F3CFD3012D913D01273209F0B2
:1041A000B4CED80153964C925397FF2311F0E111EE
:1041B000ADC1F801148A412C8091A70240FA81F91F
:1041C0008093A7028091B2016090C4017090C501F4
:1041D000811102C0612C712CC7010E94A30580913E
:1041E000A6028695837065E0FE0131965F01DF01CE
:1041F000E62F1D92EA95E9F74E01F6E08F0E911C2D
:1042000090E1D4011D929A95E9F7FF8AEE8A2BE995
:1042100032E0398F288F482E512C689FB00111242D
:104220006D5D7F4F45E050E0C5017CD4B201E4E014
:10423000660F771FEA95E1F7675C7F4F40E150E03A
:10424000C40170D48091A60285FB882780F99091E3
:10425000A502A9AA2B2CE88DF98D92FF6AC18823AB
:1042600009F464C1A680B7806BE6862E62E0962EC4
:104270007BE7472E72E0572E4814590409F061C1BC
:10428000A9A8B22C88248394912CC4010C2C02C0C0
:10429000880F991F0A94E2F786219721892B39F01C
:1042A000D50115966C918E899F890E949205BFEF6A
:1042B000CB1ADB0AEFEFAE1ABE0AF0E1CF16D1043B
:1042C00021F75E012AE2A20EB11C86E0D5011D9203
:1042D0008A95E9F7D70121E030E0AA16BB0609F07C
:1042E0005DC18EA5382F307122242394311101C075
:1042F000212C9AA59170392E8AA49BA453E0952273
:104300009CA52BA52695269560E4969F6001112417
:10431000C22A73E0D7222DA5A0E12A9FA001112473
:1043200092959F70492B3A01B3E07B22E4E08E9F87
:10433000200111242295269526952370422A3323A5
:1043400009F447C18091A50281FD43C1332009F4DE
:1043500049C180FD47C182E0816090E094610E9484
:10436000CD03C4010E94CD03C60194600E94CD0319
:10437000C30198600E94CD03C2019C600E94CD03DE
:104380008FA581FF31C12A9A8FA580FF2FC1299A5D
:104390008FA583FF2DC15C9A8FA582FF2BC15A9AEE
:1043A0008FA584FF29C15B9A220C23288091A50246
:1043B0008C7F282A2092A50260E0F70181E090819D
:1043C000911101C080E0682B3196EA15FB05B1F729
:1043D000D8011C966C938091D601882331F0660F2A
:1043E000660F660F85E10E94A803F8011686158600
:1043F00042E050E061E270E0C8010D9693D38091F5
:10440000D6018823D1F1D8011B968C918823A9F17C
:10441000F801158A168A178A108E44E050E06DE183
:1044200070E0C80145967ED3D80159961C925997E1
:104430005A961C925A975B961C9282E02CED31E0C2
:1044400044EE51E0F801848F883009F0D7C0818DA7
:10445000882309F419C1559AD8015A968C9188235A
:1044600009F414C1579AF801838D882309F410C107
:104470008585882309F40CC1569A83B18170D801CF
:104480001F968C931F97882341F01D968C911D9742
:10449000882309F4FFC01E968C91F801808B9091BF
:1044A000A60222E030E093FD09C095FB992790F920
:1044B0009AAB1BAA2AA93BA9220F331F822BD80132
:1044C00050968C9350979091A60292959170892B5B
:1044D00050968C935097309A50962C9131E0809161
:1044E000DA01821301C030E08091E40182FB992758
:1044F00090F9932B90FB82F98093E4012093DA01E9
:10450000F8011182108284E090E02FCC54964C92F6
:10451000442009F450CE8091A70281FD4DCE982F02
:104520009E7F80FF91609093A70246CEA280B380C9
:104530009BCE882319F0A480B58096CEA080B18050
:1045400093CEF40121914F01222309F495CEE88DF9
:10455000F98D8085918530E0F501E20FF31F3490ED
:10456000311005C0FC01E20FF31FE4913E2EF32D44
:10457000FF73F8AB37FE05C061E08E899F890E940A
:10458000920536FE05C065E28E899F890E949205DC
:1045900068A98E899F890E9492056ECE8D9188238D
:1045A00009F49BCE8150990BFC0143E0F595E7950A
:1045B0004A95E1F7EA0DFB1D87709927A90102C012
:1045C000440F551F8A95E2F7CA019081892B808399
:1045D00084CE332009F4C5CE8091A50280FDC1CEE2
:1045E00080E0BACE82E0B9CE2A98CECE2998D0CE3D
:1045F0005C98D2CE5A98D4CE5B98D6CEF80130A330
:10460000278F32A321A354A343A3D8019196ED9100
:10461000FC91929759969C91B1E0E43EFB0711F40E
:104620008F5F10CFD8015E96FC93EE935D9761E0AB
:10463000F08055967C91F71260E0962BD801599640
:104640009C93599761E0708156969C91791360E034
:10465000D8015A969C915A97962B5A969C935A97A2
:1046600061E0708157969C91791360E0D8015B9668
:104670009C915B97962B5B969C935B973196929659
:10468000FC93EE939197C1CF5598E6CE5798EBCE19
:104690005698F3CE80E001CFCF93DF93EC018AEE02
:1046A00092E09093E6018093E50184EC92E000971C
:1046B00031F419821882CE01DF91CF91089521E063
:1046C0002093CD0227E73EE13093C5022093C40238
:1046D0002CE733E23093C7022093C6029983888384
:1046E0009093C2028093C1021092CC021092CB022E
:1046F00084EC92E0FCDADFCFFC0187819085816059
:1047000090878783CF01F3CACF93DF93DC01FB014E
:10471000C681D781209741F417968C911797811104
:1047200011C0DF91CF91089589819A81019709F095
:1047300057C08B819C81049709F052C081E0179685
:104740008C931797818592850197A1F58385948530
:10475000C097B1F440815181308525819289868945
:1047600019965C934E9318971A963C931A971B963A
:104770002C931B971C969C931C971D968C931D97AE
:1047800083859485C197B1F440815181308525811D
:10479000928986891F965C934E931E9750963C9300
:1047A000509751962C93519752969C9352975396AB
:1047B0008C93539781859285099709F0B2CF5696CD
:1047C0008C9156978C3008F0ACCF908121E0280F67
:1047D00056962C935697A80FB11D57969C93A1CF30
:1047E0000D80DE81C02D96CF05978ECFCDB7DEB779
:1047F00060970FB6F894DEBF0FBECDBF5D98559899
:104800005F9857985E9856982098289A509A519A8F
:10481000399A389A259A239A3B9A439A3D9A459A0F
:104820003C9A449A8DB581608DBD82E084BD83E061
:1048300085BD89EF87BD10926E001092A90210927B
:10484000A8021092C002219A229A529A539A549A1C
:104850002FEF89EF90E0215080409040E1F700C0B9
:1048600000008091A7028C7F8093A7028E010F5FCA
:104870001F4F80E1D8011D928A95E9F740E150E091
:1048800068E070E0C8014ED18A811092A502880FBD
:1048900086709091A602907E892B8093A60280E07C
:1048A00090E00E94CD0380E094E00E94CD0380E080
:1048B00098E00E94CD0380E09CE00E94CD038981B6
:1048C0000E947B05C801E8DE82E691E090936A02CF
:1048D000809369020E94810CD12EA99B0FC0A99AD6
:1048E0008091A902882351F081508093A9028111FF
:1048F0004EC08091C00281608093C0028091BF024F
:10490000882349F08091C00280FF25C08E7F80936C
:10491000C0021092BF021091BE021150E12EF12C84
:10492000EE0CFF1CF701E655FD4F7F018081918160
:10493000009799F3DC01ED91FC91309771F30995A3
:10494000D701ED91FC9180819181892B21F4111186
:1049500002C00E94810C8091C302882349F080919B
:10496000C00281FFBACF8D7F8093C0021092C30234
:104970008091C1029091C202DC01ED91FC913097CF
:1049800011F00995AACF802F9D2D86DEA6CF8091AC
:10499000A80281508093A8028111B0CF8091C002FB
:1049A0008260AACF1092B2011092B3011092B401AA
:1049B0001092B70184E591E09093B1018093B0012A
:1049C00080E691E09093B6018093B5011092B90111
:1049D0001092B8011092BA011092BB011092BC0162
:1049E0001092BD011092BF011092BE011092C00141
:1049F0001092C1011092C2011092C3011092C50120
:104A00001092C4011092C601E7ECF1E08CE0DF01E6
:104A10001D928A95E9F71092D3011092D601109257
:104A2000D7011092D8011092D90188E491E09093B7
:104A3000D5018093D4011092DA011092DB01ECEDE4
:104A4000F1E088E0DF011D928A95E9F78091E401A9
:104A5000887F81608093E40110926A0110926B015B
:104A600010926C018EE391E090936901809368014C
:104A7000EFE6F1E08EE3DF011D928A95E9F788E326
:104A800091E090936E0180936D01909376018093F5
:104A9000750190937E0180937D01909386018093B0
:104AA000850190938E0180938D0190939601809360
:104AB000950190939E0180939D019093A601809310
:104AC000A5011092AD011092AF011092AE0181E0EC
:104AD000EDE6F1E02AE631E036832583982F8F5FFB
:104AE000978394819B7F948338968930A9F78BE6CE
:104AF00092E00E94A3058BE792E00E94A3058BE859
:104B000092E00E94A3058091E5019091E6019093C7
:104B10006802809367020895EE0FFF1F0590F491DD
:104B2000E02D0994DC01CB01FC01F999FECF06C010
:104B3000F2BDE1BDF89A319600B40D92415050405B
:104B4000B8F70895F999FECF92BD81BDF89A9927DB
:104B500080B50895262FF999FECF1FBA92BD81BD69
:104B600020BD0FB6F894FA9AF99A0FBE01960895EF
:104B700081E090E0F8941AC06817790768F4FB01A7
:104B8000DC01E40FF51FA40FB51F02C002900E92C6
:104B900041505040D8F7089500C0FB01DC0102C02D
:104BA00001900D9241505040D8F70895F894FFCFEE
:104BB000E5073307E507330780073307E5073307C2
:104BC000D3073307E5073307E3073307E507330761
:104BD0003808330752083307E5073307E5073C0772
:104BE00033073E0733076A07330753073307A40722
:104BF0003307B4073307D8073307F3073307180819
:104C000033073A08330740083307E5070709A708C1
:104C10000709A7080509A7080709A7084409A7085D
:104C20005909A7080709A7080709A708B209A7088B
:104C30000709A7080709A708F709A7080F0AA7087F
:104C40000709A708630AA708DB0AA7080709A70836
:104C5000F90AA7080709B008A708B208A708FA08C0
:104C6000A7081509A7082B09A7084709A708B60828
:104C7000A7086A09A7088A09A7089F09A708B80909
:104C8000A708DA09A708F909A708030AA708440A28
:104C9000A708660AA708720AA708E10AA708070971
:104CA0007A0B680B7C0B680BBD0B680BCD0B680B8C
:104CB000DB0B680B120C680B210C680B620C680B89
:104CC000520B0212821102128211FF118211301254
:104CD00082116E12821102128211A212821102122C
:104CE0008211091382111213821102128B11821187
:104CF0008D118211DD1182110F1282116112821148
:104D00007212821195128211A4128211C71282119D
:104D10000B13821102120C1CFD1B0E1CFD1B1B1C15
:104D2000FD1B3A1CFD1B3A1CFD1B541CFD1B611C8A
:104D3000FD1B751C301DD21C301DD21C2D1DD21C1C
:104D4000631DD21C721DD21C301DD21CAE1DD21C84
:104D5000FA1DD21C181ED21C301DDB1CD21CDD1CFF
:104D6000D21C0B1DD21C3D1DD21C651DD21C761DF4
:104D7000D21C8E1DD21CF51DD21CFC1DD21C301D58
:104D800020203B203E204020422044204720492034
:104D90000132010000008006000200000900A006A8
:104DA000002900000800210B000000000000210A7B
:104DB00000000000000021090002000001000000C6
:104DC0000000121600000000EB0D0000000014139C
:104DD0002804B20F00000000271102041C1EF70374
:104DE00000000000A31BA90589158423FBFF000018
:084DF000F423D401B0016801B5
:00000001FF
