:1000000058C200007EC200007CC200007AC200001C
:1000100078C2000076C2000074C2000072C2000004
:1000200070C200006EC200006CC200006AC2000014
:1000300068C2000066C2000064C2000062C2000024
:1000400060C200005EC200005CC200005AC2000034
:1000500058C2000056C2000054C2000052C2000044
:1000600050C200004EC200004CC200004AC2000054
:1000700048C20000B20DEA0DF20D100E180E1E0E51
:10008000F90D010E2D0E200E260ECA0E050F2C0F97
:100090003B0F620F6B0FA90FB00FB80FD20FDC0F21
:1000A0005E1069104310F110A610910E510F580FF9
:1000B0000000000000000000060028000400080006
:1000C0000D0009000A0023001C002200210020006E
:1000D000260027001B001A000B000E0007000F006F
:1000E0001D0005000C0003001E000200100011009E
:1000F0001200130014001900180017001600150054
:100100001F009000950011002400620060000000B4
:100110000000000000005B0058000000670066005F
:10012000450000000000000000000000000000008A
:1001300000000000000000000000000000000000BF
:100140000000000000000000000000000000970018
:10015000940099009800000045006800620061006A
:100160001F001000110012001300140019001800E5
:10017000170016001500000000000000000000003D
:10018000000000000000000000000000000000006F
:10019000000000000000000000000000000000005F
:1001A000000000000000000000000000000000004F
:1001B000000000000000000000000000000000003F
:1001C000000000000000000000000000000000002F
:1001D000000000000000000000000000000000001F
:1001E000000000000000000000000000000000000F
:1001F00000000000000000000000000000000000FF
:1002000000000000000000000000000000000000EE
:1002100000000000000000000000000000000000DE
:1002200000000000000000000000000000000000CE
:1002300000000000000000000000000000000000BE
:1002400000000000000000000000000000000000AE
:10025000000000000000000000000000000000009E
:10026000000000000000000000000000000000008E
:1002700001000000410000000100250041000000D5
:10028000000000000000000000000000000000006E
:10029000000000000000000000000000000000005E
:1002A000000000000000000000000000000000004E
:1002B00000000000000000008600A8008400880004
:1002C0008D0089008A00A3009C00A200A100A0006C
:1002D000A600A7009B009A008B008E0087008F006D
:1002E0009D0085008C0083009E008200500051001C
:1002F0005200530054000000590068005700560097
:100300000000000000000000000055006100000037
:1003100000000000000042005A0000004E004F00A4
:100320004400000000000000000000000000000089
:1003300000000000000000000000000000000000BD
:1003400000000000000000000000000000000000AD
:10035000000000000000000000000000000000009D
:10036000000000000000000000000000000000008D
:10037000000000000000000000000000000000007D
:10038000000000000000000000000000000000006D
:10039000000000000000000000000000000000005D
:1003A000000000000000000000000000000000004D
:1003B000000000000000000000000000000000003D
:1003C000000000000000000000000000000000002D
:1003D000000000000000000000000000000000001D
:1003E000000000000000000000000000000000000D
:1003F00000000000000000000000000000000000FD
:1004000000000000000000000000000000000000EC
:1004100000000000000000000000000000000000DC
:1004200000000000000000000000000000000000CC
:1004300000000000000000000000000000000000BC
:1004400000000000000000000000000000000000AC
:10045000000000000000000000000000000000009C
:10046000000000000000000000000000000000008C
:10047000000000000000000000000000000000007C
:10048000000000000000000000000000000000006C
:10049000000000000000000000000000000000005C
:1004A000000000000000000000000000000000004C
:1004B000451411241FBECFEFD4E0DEBFCDBF11E045
:1004C000A0E0B1E0E4E3FAE202C005900D92A237A9
:1004D000B107D9F722E0A2E7B1E001C01D92AC3725
:1004E000B207E1F712E0C9E5D2E004C02197FE01AE
:1004F0000E94FE14C835D107C9F70E94120D0C9452
:1005000018157ECDFC01128213828481897F8E7F33
:100510008483DF011596B28FA18F7996AE17BF073E
:1005200031F011961C9211971C921596F7CF0895F1
:1005300008950F931F93CF93DF93FC0114821582CC
:1005400016828C010C5F1F4FEC0122960C171D07C1
:1005500061F0899199910097C9F3DC01ED91FC91CB
:100560000280F381E02D0995F1CFDF91CF911F91AA
:100570000F910895CF93DF93DC011696EC911697B7
:1005800021E02E0F16962C931697F0E03196EE0F81
:10059000FF1FEA0FFB1F80819181222319F016961D
:1005A0001C921697009751F0EC01E881F9810480C4
:1005B000F581E02DBD01DF91CF91099480E0DF91BD
:1005C000CF910895CF92DF92EF92FF921F93CF9336
:1005D000DF933BE0309306024038C9F4122F7B01D1
:1005E000EC016C0184E0C80ED11C2296CC16DD060D
:1005F00071F0899199910097C9F3DC01ED91FC911B
:100600000680F781E02DA701612F0995EFCFDF91DB
:10061000CF911F91FF90EF90DF90CF90089521E050
:10062000FC018281811101C020E0822F0895FC012C
:10063000DB011097F9F011962C9111978581968125
:10064000820F911D27FD9A959683858312962C9192
:10065000129787819085821B910927FD939590873A
:1006600087838C918287918513968C91890F8187DE
:1006700081E083870895FB018681813029F4978189
:10068000923019F480E0089581E00895FB0186819D
:10069000813029F49781913019F480E0089581E048
:1006A0000895FC01128213828481897F8E7F848366
:1006B000089508952BE020930602403839F4DC01B8
:1006C000ED91FC910484F585E02D09940895CF9275
:1006D000DF92FF920F931F93CF93DF93CDB7DEB7D7
:1006E00028970FB6F894DEBF0FBECDBFDC0112967F
:1006F0002C911297222309F468C05996ED91FC9130
:100700005A97218123FD61C08C01CE0101966C01B5
:10071000CD01029622FF31C09D012C5E3F4FE217B2
:10072000F30739F42F5031095A963C932E93599779
:1007300005C035965A96FC93EE935997D801599671
:10074000ED91FC915A97218122FBFF24F0F822FFC2
:1007500014C028E0D6011D922A95E9F723EA2983DF
:1007600024E02F8324812D830E941A0C26E044E08C
:10077000B601C8010E94C60C29C0209172012260F6
:1007800020937201D8015996ED91FC915A972181DD
:100790002860218328E0F601322F11923A95E9F77B
:1007A00033E2398333E03A832B835996ED91FC9100
:1007B0005A9724812D830E941A0C41E0B601C8018A
:1007C0000E94550CFF24F39401C0F12C8F2D289624
:1007D0000FB6F894DEBF0FBECDBFDF91CF911F9152
:1007E0000F91FF90DF90CF900895EF92FF920F93BB
:1007F0001F93CF93DF93CDB7DEB728970FB6F8944A
:10080000DEBF0FBECDBFF701211101C0258123300E
:1008100051F52181213221F02081E20FF11DF9CF24
:100820002781308521383105F0F4D80115962C91B7
:10083000DC0115962C931597478114964C93BE01B5
:100840006F5F7F4F28E0DB011D922A95E9F721E8D1
:10085000298326E02A8326812C834F8321E00E946E
:10086000C60C81E001C080E028960FB6F894DEBF88
:100870000FBECDBFDF91CF911F910F91FF90EF90F1
:100880000895EF92FF920F931F93CF93DF93CDB70D
:10089000DEB728970FB6F894DEBF0FBECDBF8C0130
:1008A000FB01433061F110F5413039F1423009F07C
:1008B000AFC0CE0101967C0188E0D7011D928A95D8
:1008C000E9F783E2898383E08A8384E08B83D8011C
:1008D0005996ED91FC915A9784818D83C8010296B7
:1008E000A9D743E0B701C801E0D792C0453079F1FC
:1008F00088F0463009F476C08BC082E001C084E005
:1009000080930702109309020093080267E182E3D3
:1009100084D77EC0FE0131967F0188E0DF011D9201
:100920008A95E9F783EA898384E08F83D801599611
:10093000ED91FC915A9784818D83C80102967AD7F4
:1009400025E044E0B701C8010E94C60C61C0DC018B
:1009500059962D913C915A97818186958170D90144
:1009600011969C91119780FB91F911969C93D80157
:1009700059968D919C915A97DC011C928081D801E7
:1009800059962D913C915A9780FF0AC030930401EB
:1009900020930301809172018D7F8093720113C0B7
:1009A000D90111968C911197877F11968C93D8015C
:1009B00059962D913C915A97D90111968C91119786
:1009C000846011968C93D80159962D913C915A9739
:1009D000D90111968C911197908190FB84F9119611
:1009E0008C9313C0DC0159968D919C915A97DC0130
:1009F00011968C9182FF09C08295817090819170CF
:100A0000891719F01092060203C08BE0809306024A
:100A100028960FB6F894DEBF0FBECDBFDF91CF9101
:100A20001F910F91FF90EF900895EF92FF920F9317
:100A30001F93F701211101C025812930A9F42181DB
:100A4000253021F02081E20FF11DF9CF22812F7096
:100A5000FC0123836283248140FB22F92483F80173
:100A60006581B9D781E001C080E01F910F91FF90AF
:100A7000EF900895AF92BF92CF92DF92EF92FF92E4
:100A80000F931F93CF93DF93413019F04038D9F182
:100A90003DC089017B01EC015C0184E0A80EB11C22
:100AA0006E01A2E0CA0ED11CAC14BD0461F1F601C6
:100AB000819191916F010097B9F3DC01ED91FC9167
:100AC0000190F081E02D2C81A701D8016C9109954E
:100AD000FC01892B49F3D8018C91808311968C916C
:100AE00086958170928180FB92F992836D81CE010F
:100AF000DF91CF911F910F91FF90EF90DF90CF90FA
:100B0000BF90AF9068C78BE080930602DF91CF91D2
:100B10001F910F91FF90EF90DF90CF90BF90AF901B
:100B20000895CF92DF92EF92FF920F931F93CF938E
:100B3000DF93EC01C62ED42E211102C0F7012581CE
:100B4000233011F080E020C0E881F9810284F38530
:100B5000E02DB701CE0109958111F4CFF701818114
:100B6000853021F08081E80EF11CF8CFF7018281F9
:100B70008F708B83CA828C81D0FA82F98C83F801C2
:100B80006581CE0128D781E0DF91CF911F910F9130
:100B9000FF90EF90DF90CF900895CF93DF93FC010B
:100BA0001482168ADC0157968CE0ED0119928A9521
:100BB000E9F71F9786E0ED01982F19929A95E9F7CA
:100BC0001696ED0119928A95E9F7158216828781AA
:100BD000897F8E7F8783DF91CF9108957F928F9257
:100BE0009F92AF92BF92CF92DF92EF92FF920F93BC
:100BF0001F93CF93DF9300D000D000D0CDB7DEB7E6
:100C0000FC01258126137DC07A018C01158A148A86
:100C10005C01F7E1AF0EB11C4C0183E2880E911C20
:100C200090E1C92ED12C77247394A814B904F9F05B
:100C3000F50181915F018823C1F390E09A83898354
:100C40007B827C821D827E82BE016F5F7F4FC701E7
:100C500096D5672B682B692B39F0F8018489958923
:100C60008C299D29958B848BCC0CDD1CDECFB801A3
:100C7000685F7F4FC70183D54B015C01B801625F9C
:100C80007F4FC7017CD5AB01BC01F801848590E0A2
:100C9000A0E0B0E088169906AA06BB0629F484896C
:100CA00095898260958B848BF801858590E0A0E022
:100CB000B0E088169906AA06BB0629F484899589AE
:100CC0008160958B848BF801828990E0A0E0B0E090
:100CD000481759076A077B0729F484899589886032
:100CE000958B848BF801838990E0A0E0B0E04817F1
:100CF00059076A077B0729F4848995898460958B55
:100D0000848B26960FB6F894DEBF0FBECDBFDF9161
:100D1000CF911F910F91FF90EF90DF90CF90BF90F8
:100D2000AF909F908F907F900895FC0185818823DC
:100D300041F0CB01AF014B5F5F4F68E0FAD581E036
:100D4000089580E00895FC012281211102C080E015
:100D50000895AC014E5F5F4F64E0EBD581E00895EC
:100D6000473019F0483029F008958BE0809306024F
:100D70000895AC014E5F5F4F68E0DBC52F923F9254
:100D80004F925F926F927F928F929F92AF92BF929B
:100D9000CF92DF92EF92FF920F931F93CF93DF9347
:100DA000CDB7DEB7C75FD1090FB6F894DEBF0FBE6F
:100DB000CDBFCA51DF4F99838883C65ED0401A01E8
:100DC000822F90E0CE51DF4F99838883C25ED0405E
:100DD000CA51DF4FA881B981C65ED0401296C25178
:100DE000DF4FB983A883CE5ED040FE01EF58FF4F9E
:100DF000C452DF4FF983E883CC5DD04085E3119284
:100E00008A95E9F79E012F5F3F4F8CE1D9011D9232
:100E10008A95E9F7A1E7B0E0AC0FBD1F949687E093
:100E2000FD0111928A95E9F781E0CC56DF4F888366
:100E3000C459D040C851DF4F188219821A821B82D0
:100E4000C85ED040412C512C320100E0CC51DF4F24
:100E5000B983A883C45ED040812C912C590126EA25
:100E600030E02C0F3D1F285F3F4FCC50DF4F3983C0
:100E70002883C45FD040C252DF4FB982A882CE5DC2
:100E8000D04081E790E08C0F9D1F4C96CA50DF4FF9
:100E900099838883C65FD040A054B109C052DF4F08
:100EA000B983A883C05ED040CE51DF4FE881F9817D
:100EB000C25ED040EF2B09F4E6C2D101BC91C4510F
:100EC000DF4FB883CC5ED0408B2F8370823091F19E
:100ED0008330C1F0813009F445C0EFEF2E1A3E0A8D
:100EE000CE51DF4F28813981C25ED0402150310977
:100EF000CE51DF4F39832883C25ED040C12CD12C24
:100F0000760146C0D1011196CD90DD90ED90FC9018
:100F10001497CE51DF4FE881F981C25ED0403597FA
:100F2000CE51DF4FF983E883C25ED040F5E02F0E4B
:100F3000311C2EC0D1011196CD90DC901297E12C7E
:100F4000F12CCE51DF4FE881F981C25ED04033975A
:100F5000CE51DF4FF983E883C25ED040F3E02F0E1D
:100F6000311C16C0D1011196CC90D12CE12CF12C62
:100F7000CE51DF4FE881F981C25ED0403297CE5129
:100F8000DF4FF983E883C25ED040F2E02F0E311CC0
:100F9000C451DF4F1881CC5ED0401C7F143609F459
:100FA000A9C098F5143209F48FC0B0F4183009F4D0
:100FB0000EC148F4143009F051C2D5011296DC92EA
:100FC000CE9211974BC2143109F478C0183109F050
:100FD00045C22601370142C2143309F47DC060F4D2
:100FE000183209F03BC2C851DF4FC882D982EA8269
:100FF000FB82C85ED04032C2143409F473C0143589
:1010000009F02CC2F501C18629C2143909F47AC04D
:1010100078F41038E1F030F4143709F01FC2F5010C
:10102000C0821CC2143809F471C0103981F016C294
:10103000103B69F030F4103A09F4DFC0143AD9F0EB
:101040000DC2143B69F1103C09F42CC107C2C35115
:10105000DF4F1882CD5ED040D701C601817099273D
:10106000AA27BB27C051DF4F88839983AA83BB83FC
:10107000C05FD04084C1C052DF4FA881B981C05E3B
:10108000D040AA16BB0609F4FEC1C5014C962CE15E
:10109000F501DC0101900D922A95E1F75C01DEC1BA
:1010A000C252DF4FE881F981CE5DD040EA15FB05E1
:1010B00009F4E9C1FCE1AF1AB108D0C1F501C2865B
:1010C000D386E486F586CAC1D5011E96CD92DD92FF
:1010D000ED92FC925197C2C1F501C28AD38AE48A8B
:1010E000F58ABCC1D5015696CD92DD92ED92FC9267
:1010F0005997B4C1D5011596CD92DD92ED92FC922F
:101100001897ACC1D5015A96CC92A8C16C2DF501A7
:10111000C38ECB55DF4F8881C55AD040882309F450
:1011200046C0CC56DF4F4881C459D040FE01EF582D
:10113000FF4F20E030E02417C8F4C90154A12F5F0D
:101140003F4F37966513F7CF67E070E00E94DA14DF
:10115000849621E730E02C0F3D1F280F391FCC511A
:10116000DF4F39832883C45ED04021C0423009F468
:101170008AC181E0840FCC56DF4F8883C459D040A8
:10118000842F90E067E070E00E94DA148496A1E773
:10119000B0E0AC0FBD1FA80FB91FCC51DF4FB98312
:1011A000A883C45ED04087E01D928A95E9F781E06C
:1011B000CB55DF4F8883C55AD040F501838DCC5184
:1011C000DF4FA881B981C45ED0408C9347C10830FD
:1011D00009F459C1833019F4F501F282E182E02F5C
:1011E000F0E0EE0FFF1F2CEC30E02C0F3D1FE20F64
:1011F000F31FD182C0820F5F31C181149104B9F015
:10120000E1E7F0E0EC0FFD1F379685819681892B91
:1012100051F0CA50DF4F88819981C65FD040E817EE
:10122000F90791F730C1968285824F0104C0DE0133
:10123000AF58BF4F4D01F401C082D50111968D9179
:101240009C911297928381830023B1F0C453DF4FA6
:1012500088819981CC5CD04094838383FE01E453E0
:10126000FF4F81E0081731F02281338121933193C0
:101270008F5FF8CF0150F2C0C851DF4F888199814C
:10128000AA81BB81C85ED04084159505A605B70527
:1012900008F4E4C054824382BFEF4B1A5B0A6B0A26
:1012A0007B0ADCC08114910409F4EDC0F40185804F
:1012B0009680D4C00150103809F0C0C0C855DF4F27
:1012C0001882C85AD040C855DF4FE881C85AD0406C
:1012D000F0E0EE0FFF1FCC51DF4F28813981C45E53
:1012E000D040E20FF31F81819281CA55DF4F99836D
:1012F0008883C65AD040D5012C91820F911D9283CC
:101300008183CD55DF4F28813981C35AD0402817BA
:10131000390708F49C01CD55DF4F39832883C35A20
:10132000D040C051DF4F88819981AA81BB81C05FC5
:10133000D040892B8A2B8B2BB9F4CA51DF4FA8815F
:10134000B981C65ED0401296ED91FC911397019041
:10135000F081E02DBE016A557F4FC251DF4F888179
:101360009981CE5ED0400995C351DF4FB881CD5EE3
:10137000D040BF5FC351DF4FB883CD5ED040D501B1
:101380005A968C91C351DF4FB881CD5ED040B817CB
:1013900008F064C08AE1F501CC50DF4FA881B98123
:1013A000C45FD04001900D928A95E1F7C755DF4F99
:1013B000D982C882C95AD040C455DF4F99828882E9
:1013C000CC5AD040F501838DC555DF4F8883CB5A69
:1013D000D0400023C9F0C453DF4F88819981CC5C91
:1013E000D040CF54DF4F99838883C15BD040FE014A
:1013F000E453FF4F81E0081709F45CCF2281338169
:10140000219331938F5FF7CFC851DF4F8881998146
:10141000AA81BB81C85ED04084159505A605B70595
:1014200008F449CFCF54DF4F59824882C15BD04086
:101430009FEF491A590A690A790A3DCF103939F4E0
:10144000A1E0C855DF4FA883C85AD0403CCFB2E0D6
:10145000C855DF4FB883C85AD04035CFC451DF4F8D
:101460008881CC5ED0408C7009F01ECDC851DF4F12
:10147000188219821A821B82C85ED040412C512CDE
:10148000320100E011CDCA51DF4FE881F981C65E1B
:10149000D0408481882329F081E08683CF0105969E
:1014A00002C080E090E0C950DF4F0FB6F894DEBF75
:1014B0000FBECDBFDF91CF911F910F91FF90EF90A5
:1014C000DF90CF90BF90AF909F908F907F906F9064
:1014D0005F904F903F902F9008956115710541F0F6
:1014E000DC01159688E0FB0101900D928A95E1F7E9
:1014F000089525E52CBD469825E02A95F1F70000D2
:101500009EBD0DB407FEFDCF8EBD0DB407FEFDCF11
:1015100085E08A95F1F70000469A089524E52CBDF0
:101520002F989EBD0DB407FEFDCF8EBD0DB407FEF6
:10153000FDCF2F9A089590E59CBD2C9890E023E074
:10154000880F991F2A95E1F78EBD0DB407FEFDCFD8
:101550001EBC0DB407FEFDCF8EB52C9A089590E504
:101560009CBD2C98880F880F880F82608EBD0DB4AB
:1015700007FEFDCF8EB56EBD0DB407FEFDCF2C9AD4
:101580000895282F80E58CBD2C9882E28EBD0DB485
:1015900007FEFDCF8EB5E22FF92F9F01285F3F4F49
:1015A00091919EBD0DB407FEFDCFE217F307C1F781
:1015B0002C9A0895EF92FF920F931F93CF93DF938E
:1015C000CDB7DEB728970FB6F894DEBF0FBECDBFFC
:1015D000FC012281211102C0F12C56C08C01FC01BA
:1015E0002685029620FBFF24F0F820FD17C028E096
:1015F000EDE0F1E0DE01119601900D922A95E1F700
:1016000019D147E0BE016F5F7F4FC8014ED1F8018D
:10161000868581608687FF24F39436C028E0E5E163
:10162000F1E0DE01119601900D922A95E1F7F801A3
:10163000E58400D1109309020093080288E08093AA
:101640000702CE0101969DDF80E11DD112D160E23B
:101650008DE185DF81E090E09093050280930402A4
:1016600080E28093030283E891E0909302018093EB
:1016700001018AE08093820186E1809381018BE100
:1016800080930602E09283018F2D28960FB6F8947E
:10169000DEBF0FBECDBFDF91CF911F910F91FF90A5
:1016A000EF900895AF92CF92EF920F93CF93DF9385
:1016B000CDB7DEB728970FB6F894DEBF0FBECDBF0B
:1016C00089836A834B832C830D83EE82CF82A88625
:1016D00080E58CBD2C9882E28EBD0DB407FEFDCF57
:1016E0008EB5FE0131969E01275F3F4F91919EBDC1
:1016F0000DB407FEFDCFE217F307C1F72C9A289629
:101700000FB6F894DEBF0FBECDBFDF91CF910F9122
:10171000EF90CF90AF90089594E59CBD2D988EBD2D
:101720000DB407FEFDCF8EB52D9A0895FC014096AD
:101730009B01205F3F4FE817F90779F04081442370
:1017400051F0DB01A217B30731F04D9150815413D2
:10175000F9CF1082F7CF3196EECF0895FC01AC019E
:10176000405F5F4FDF01E417F50741F02191211140
:1017700002C06C9308952613F5CFFBCF0895CF9246
:10178000DF92EF92FF921F93CF93DF93FB012381B0
:10179000222329F0DC013C9123132DC001962281E4
:1017A00030E0A081B18140E050E0BA01C12CD12CE1
:1017B0007601C3942150310918F1FD01C3E0F6957B
:1017C000E795CA95E1F7E80FF91FE081F0E0ED0138
:1017D000C770DD2702C0F595E795CA95E2F7E0FFEF
:1017E00004C04C295D296E297F291196CC0CDD1C83
:1017F000EE1CFF1CDFCF30E020E080E090E003C073
:10180000342F252FCB01632F722FDF91CF911F91A2
:10181000FF90EF90DF90CF900895809380018091AA
:101820007F018E7F80937F0186E080930602609324
:1018300082010895CF93DF93EC018A8182FB99277F
:1018400090F982FF03C06BEC70E002C069EC70E0BD
:1018500080917E0181FD02C0911164608BE17FDE89
:1018600068818CE1DF91CF917ACE8FE164DE8F7059
:10187000089589E160DE87FFFCCFF7DF80937C016C
:1018800060E889E16CCECF93C82FEFDF8130E9F3B8
:1018900085E38A95F1F700006C2F8EE160DE85E329
:1018A0008A95F1F70000CF910895AF92CF92EF9211
:1018B0000F93FB0190930902809308024093070263
:1018C00010920B0210920A02A780C680E580048164
:1018D0002381428161818081E5DE80E1D4DFC9DF3F
:1018E00080E8D1DFC6DF87E1809306020F91EF9099
:1018F000CF90AF900895CF93DF93D42FC22F282F8E
:1019000030E0309305022093040260930302862F97
:10191000BADF83E891E09093020180930101D093B4
:101920008201C093810188E080930602DF91CF910C
:101930000895EF92FF921F93CF93DF937C01162FB0
:10194000EA01CA0177DF8A8180FD02C060E101C03F
:1019500060E281FD02C080E401C080E8682B8DE177
:10196000FEDDD0930B02C0930A02F0920902E092CE
:10197000080280E8809307022BE04AE16981812F09
:10198000DF91CF911F91FF90EF90B5CFCF93C42FF0
:10199000909309028093080220930702CB01F1DDA6
:1019A00080E171DF8FE99FE00197F1F700C000004F
:1019B00060DF60E28DE1D3DD26E149E060E08C2F5D
:1019C000CF9199CF60DF89E1B6DD87FFFCCF4DDF96
:1019D00080937C010895AF92CF92EF920F93462FA0
:1019E000A12CC12CE12C00E020E069E080E05ADE6F
:1019F00080E1E8DF60E889E1B2DD80E8E3DF60E80C
:101A000089E1ADDDE0910301F09104018181846001
:101A1000877F818388E1809306020F91EF90CF90BA
:101A2000AF900895CF93DF93CDB7DEB7CF56D109EE
:101A30000FB6F894DEBF0FBECDBF209A219A229A2E
:101A4000259A2D9A279A2F9A249A2C9A269A2E9A7A
:101A50003E9A469A5B9853985F9857985E98569826
:101A60008FE39CE90197F1F700C0000037996FC53B
:101A700082E084BD83E085BD89EF87BD10926E0052
:101A80001092800110927F0180917B018E7F8D7F6B
:101A900080937B0180EA40DE80EE3EDE809177021B
:101AA00090917802892B31F482E592E0909378024C
:101AB00080937702809173018C7F8B7F8093730179
:101AC00080E090E02BDD80E094E028DD80E098E08D
:101AD00025DD80E09CE022DD80E090E11FDD80E0FC
:101AE00093E007DD85E091E09093770180937601A4
:101AF000109206028C01D8018D919D918D01DC011F
:101B0000ED91FC910280F381E02D0995B1E00D305B
:101B10001B0789F73E01E9E56E0E711C4E01F9E4E1
:101B20008F0E911C9E012F5F3F4F1901C4014096FB
:101B3000AE969FAF8EAFAE97DE015196AB96BFAF1C
:101B4000AEAFAB9792DE813009F452C3109106021A
:101B5000812F90E08E31910508F048C3FC01E65CCE
:101B6000FF4F4CC781E080937E0110927D0110925F
:101B7000790100917601109177017801B8E0EB0EC0
:101B8000F11CE016F10661F0F801819191918F014D
:101B9000DC01ED91FC910280F381E02D0995F1CFFC
:101BA00081E08093000110927501809306021092EB
:101BB00009021092080210920B0210920A0210926F
:101BC0000702109272018DE791E0909304018093D7
:101BD00003010EC360E181E1C2DC60E28FE0BFDCA3
:101BE00062E004C060E08FE0BADC63E088EC15DE00
:101BF000FFC280917F0180FFFBC28E7F80937F01B7
:101C0000F2C289E198DC87FFF3C22FDE80937C016A
:101C1000809174018093060260E889E1A0DCE8C24B
:101C200061EC8BE19CDC61E08DE199DC84E043C2F6
:101C30008DE181DC80FDDCC265E038C16BE036C13E
:101C400080917C018111CFC280EA05C080917C0126
:101C50008111C9C280E8B6DEC6C289E16CDC87FFAB
:101C6000C7C203DE182F80937C0160E889E177DC2E
:101C7000163009F452C0111149C0809101019091B0
:101C80000201FC01E358F1407F0186E054DC082F9B
:101C900010E0E00EF11EF1E8EF16F10408F0A6C224
:101CA000909101013091020120E52CBD2C9828E093
:101CB0002EBD0DB407FEFDCF2EB5292FE92FF32F32
:101CC0009E2F921B981738F41EBC0DB407FEFDCF53
:101CD0009EB59193F5CF2C9A64E089E140DC809128
:101CE000040290910502801B910B90930502809352
:101CF00004022091010130910201020F131F109381
:101D0000020100930101181619063CF0809182012E
:101D100080930602809181013AC080910302B3DD75
:101D200067C280910101309102019091040220E587
:101D30002CBD2C9822E12EBD0DB407FEFDCF2EB593
:101D4000282FE82FF32F8E2F821B891740F48081D4
:101D50008EBD0DB407FEFDCF8EB58193F4CF2C9AC6
:101D60006091040287E0FBDB809103028CDD81DD62
:101D7000109205021092040290917C0180918101E1
:101D8000943009F498C19091820190930602809357
:101D900082012EC260E08CE1E2DB89E1CCDB85FFD1
:101DA00003C060E289E1DBDB8FE1C5DB282F207C0B
:101DB00031E009F430E090917201492F41703417FD
:101DC000F9F030FB90F990937201222399F086FF8D
:101DD00007C06BEC8BE1C3DB80917E01826006C0A3
:101DE00069EC8BE1BCDB80917E018D7F80937E016D
:101DF0006CE004C061EC8BE1B2DB6BE08AEFF7CE04
:101E000021111CE010930602F3C18091720181FF41
:101E100002C088E150C1E0910301F0910401818189
:101E200081FB992790F981FD03C069EC70E002C045
:101E30006BEC70E080917E0181FD02C091116460C5
:101E40008BE18DDB60E08CE18ADB8DE080937401B7
:101E5000A12CE8E0CE2E32C080917C018D3019F4A7
:101E60006CE089E1C4CE8111D4CF60E28DE177DBF3
:101E70002EE04EE07AC080917C018D3011F48CE030
:101E80001AC18091830180937801E0910301F09160
:101E90000401818180FF09C061E08DE160DB8CE19C
:101EA0000AC18DE148DB80FDA3C16DE184E69FCED0
:101EB000C09078018FE080937401A12CE12C00E0A8
:101EC00021E068C080917C018111A3CF60E28DE1A7
:101ED00046DB20E16BC080918701809375011091F2
:101EE000000181E0810F80930001A12CC12CE12C25
:101EF00000E020E0412F65E080E0D4DB80E162DD9E
:101F000060E889E12CDB8AE0AFE9BFE01197F1F7E7
:101F100000C000008150C1F780E854DD60E889E12D
:101F20001EDB8AE0EFE9FFE03197F1F700C0000027
:101F30008150C1F7612F8CE112DBE0910301F09138
:101F4000040110838091720182608093720181E1AB
:101F5000B2C082E180937401A12C78E0C72E17C033
:101F600060E28DE1FCDA23E149E060E088E022C034
:101F7000C0908501D0908601F1E8CF16D10408F019
:101F800035C1C092780184E180937401A12CE12CC9
:101F900000E022E040E066E080E884DB80E173DC82
:101FA00087E089C060E28DE1DADA25E149E060E0AE
:101FB00080917801A0DC1CC18091720182608093C5
:101FC000720180917801B12CA12C63E8C62E61E0EA
:101FD000D62E90E0960123583140281739070CF08F
:101FE00069C0D60111962C91223009F445C02430E5
:101FF00009F044C08CE19FDAAC968FAFAC9740906B
:10200000760150907701F2013896E096FFAFEEAF7F
:10201000E097E0962EAD3FADE09742165306F9F0FB
:10202000D2018D919D912D01009799F3E0910301CB
:10203000F0910401418146954170DC01ED91FC91E4
:102040000190F081E02D76010B2D1A2D2091750164
:10205000AC966FADAC9709958823D9F2C9C01092A0
:102060007501E0910301F0910401818180FD22C09E
:102070008460877F81831EC0BC2CAD2CF60120813B
:10208000C20ED11CA7CF9091790120917601309199
:102090007701E92FF0E0EE0FFF1FE20FF31FA081A1
:1020A000B1819F5F943009F48EC0909379011097AD
:1020B00009F08CC08BE0809306029AC080917C016D
:1020C000811107C089E137DA87FF92C060E889E1B2
:1020D00046DA00910A0210910B0201151105B1F0C8
:1020E0008FE129DA84FB222720F9D80112969C91EE
:1020F000129720FB90F985FB882780F980FB91F9E6
:1021000012969C9310920B0210920A02AEDB8093FF
:102110007C01843019F063E871E002C060E070E097
:10212000809108029091090210920902109208020F
:102130002091030130910401DC01ED91FC910480B8
:10214000F581E02D40910702099552C000910A02E5
:1021500010910B020115110599F08FE1ECD984FB68
:10216000222720F9F801928120FB90F985FB88272E
:1021700080F980FB91F9928310920B0210920A026F
:1021800074DB80937C01843029F053E8E52E51E024
:10219000F52E02C0E12CF12C0091080210910902E9
:1021A0001092090210920802D801ED91FC91C680AC
:1021B000D7808CE1C0D9282F40910702B701C80110
:1021C000F601099515C01092790171CFED91FC913E
:1021D00011970084F185E02DCD010995811108C08A
:1021E00069CF80EA50DB8091820165CF10920602B0
:1021F00080913902882309F4C8C080E1D3011D927F
:102200008A95E9F710913C0211FF03C061EEC3010A
:10221000A5DA15FF03C065EEC301A0DA10FF03C005
:1022200060EEC3019BDA14FF03C064EEC30196DACB
:1022300012FF03C062EEC30191DA16FF03C066EE1F
:10224000C3018CDA0DE312E031E4E32E32E0F32E29
:10225000F80161918F01662311F0C3017FDAE01666
:10226000F106B1F780E1F301D40101900D928A9556
:10227000E1F780E1ECE0F2E0D10101900D928A9566
:10228000E1F76CE072E0C40151DAB301C1014EDA4A
:1022900084017401F0E1EF0EF11CD8016D918D0104
:1022A000662351F0613E29F480917301846080932C
:1022B00073018CE092E052DAE016F10671F780913A
:1022C000730182FB882780F9D1019D91911116C07D
:1022D000AB96EEADFFADAB97EA17FB07B1F7909168
:1022E000730180FB92F990937301F301B301605F76
:1022F0007F4F512C90E030E020E029C0913E09F45E
:1023000080E0ECE0F2E02081921301C0108231966F
:102310002CE132E02E173F07B1F7DACF582F5B7F61
:1023200041E0523E09F040E0242B41E0503E09F0EC
:1023300040E0342B41E0873209F040E0942B41E04B
:10234000883409F040E0542A6E177F0721F081910C
:102350008823D1F3E3CF332321F0222311F091110D
:1023600002C080E00BC080917B0181FD06C0982FE8
:10237000909590FB80F980937B0181E090917B01A7
:1023800080FB91F990937B0101C0512C8091570201
:10239000882329F0E0906602F090670202C0E12CE9
:1023A000F12C80E1D4011D928A95E9F780917301A7
:1023B00082FF05C020EBC22E22E0D22E04C090EB9B
:1023C000C92E90E0D92E0CE012E0F80121918F0186
:1023D000222301F130E0220F331FF601E20FF31F39
:1023E00085919491009729F4F901E055FF4F85916B
:1023F0009491A82EF82FFF73BF2E87FF03C061E0D2
:10240000C401ACD9A6FE03C065E2C401A7D96B2DF7
:10241000C401A4D92CE132E020173107B1F688E4D9
:10242000D1011D928A95E9F748E450E062E170E03D
:10243000C101B0D2610100E010E081E090E0002E27
:1024400002C0880F991F0A94E2F78E219F21892BE1
:1024500021F0F6016281C40181D90F5F1F4FFFEFA8
:10246000CF1ADF0A0031110541F786E0D1011D9234
:102470008A95E9F7D4018D918823B9F090E001970E
:10248000FC0113E0F595E7951A95E1F7E20DF31DD0
:102490008770992721E030E002C0220F331F8A9510
:1024A000E2F7C9019081892B8083AE968EAD9FADF6
:1024B000AE97A817B907F9F62D8191E0AC969FAFBA
:1024C000AC97322F307124FD03C0AC961FAEAC9791
:1024D00089818170482EA980BA80A3E0BA228B81BD
:1024E00090E0CA80D12CD594C794D594C794AC0100
:1024F00066E0440F551F6A95E1F7C42AD52AB3E078
:10250000DB22EC80F12CA70174E0440F551F7A9573
:10251000E1F78C01E4E015950795EA95E1F7042BC6
:10252000152B1370822F90E0880F991F880F991F29
:10253000A6E0F594E794AA95E1F7E82AF92A33236F
:1025400009F42AC18091730181FD26C101C0FFCF2A
:1025500082E0442041F09091730190FD02C08160BF
:1025600002C0882321F090E094610E948E0AC50188
:102570000E948E0AC60194600E948E0AC80198606B
:102580000E948E0AC7019C600E948E0A8E8190E094
:1025900090610E948E0A80917301AC96EFADAC976A
:1025A000E0FB81F940FA80F98093730110E0F401B7
:1025B00081E09081911101C080E0182B3196AE9698
:1025C0002EAD3FADAE97E217F30791F78091510220
:1025D000882309F45EC085E0D1011D928A95E9F750
:1025E00045E050E067E070E0C101D4D1298130E0DE
:1025F00080914B0290914C02B901EDD1062F809150
:102600004D0290914E02B901E6D1162F8C8188239C
:1026100019F080914F0201C080E09D819111819558
:10262000082E000C990B6A8170E0D5D19091500270
:102630008B81811104C080917B0180FF09C091FBD7
:10264000222720F9892F8170880F9C7F982B922B4D
:102650009095977098606295607F692B8EEA8627C7
:1026600090E00E94790A8AEE0827802F90E091601E
:102670000E94790A87E71827812F90E092600E94D4
:10268000790A10925102552009F48BC081E093E041
:102690008AC0552019F081E093E002C080E093E009
:1026A0000E94790A111181C080E036D860917A01C8
:1026B00081E0860F80937A016695669566956870CD
:1026C00085E10E94AF0A80913902882309F451C044
:1026D00019821A821B821C8244E050E06CE070E098
:1026E000C10158D139814A815B8186E010E000E068
:1026F000F12CECE3F2E0908121E0931320E0F22A48
:1027000021E0941320E0022B21E0951320E0122B0E
:102710003196B2E0E434FB0771F7815051F7F401D0
:102720001182108242E050E060E170E0C40132D1D9
:10273000FF2011F0539A01C05398002311F0579ACB
:1027400001C05798112331F0D4018C91882311F0E6
:10275000569A01C0569899B1892F807295FF07C08B
:10276000F4018081882311F0818101C080E0809391
:102770004402A99BE7C9A99A80918001882309F4A2
:10278000DBC98150809380018111D6C980917F017E
:10279000816080937F01D0C9442009F4E8CE80E0B5
:1027A000DACE80E093E00E94790A84E07ECFCF9376
:1027B000DF93FC01DB011696CD91DC9117972097F2
:1027C00079F089819A81019739F48B819C810497F2
:1027D00019F481E0848304C00D80DE81C02DEFCF29
:1027E0008481882309F44CC019968D919C911A9785
:1027F0000197B1F51B968D919C911C97C097A9F4F8
:102800004D915C91119718963C91189715962C91C3
:10281000159752969C91529756968C915697518740
:10282000408732872387948785871B968D919C915B
:102830001C97C197A9F44D915C91119718963C9102
:10284000189715962C91159752969C9152975696DB
:102850008C91569757874687308B218B928B838B31
:1028600019968D919C911A97099751F486898C300D
:1028700038F491E0980F968BE80FF11D8C91878BBF
:10288000DF91CF910895029792CFCF93DF9380E1AC
:10289000ECE0F2E0DF011D928A95E9F7E5E7F2E06E
:1028A00087E691E0918380831482158216821092CC
:1028B000780210927702E2E5F2E0148283E591E07B
:1028C0009183808381E691E09383828315821682CF
:1028D000118610861286138614861586178616862C
:1028E000108A118A128A138A158A148A168A8CE031
:1028F000E9E6F2E0EF0119928A95E9F7E6E4F2E001
:102900001282138281E491E0918380831682158282
:1029100010861782118612861386E7E3F2E0128290
:1029200013828FE291E09183808388E0ACE3B2E090
:10293000ED0119928A95E9F71586E5E4F2E08081C8
:102940008E7F8083ECE1F2E01282138281E291E0DB
:1029500091838083A1E2B2E084E1ED0119928A952E
:10296000E9F7B28FA18FF087E78381E08187168234
:10297000F587E48782E086871386F28BE18B83E01C
:10298000838B108AF78BE68B84E0808F158ADF912A
:10299000CF910895DC01CB01FC01F999FECF06C06F
:1029A000F2BDE1BDF89A319600B40D92415050400D
:1029B000B8F708950024552704C0080E591F880F42
:1029C000991F009729F076956795B8F37105B9F7C7
:1029D000802D952F089597FB072E16F4009406D0AE
:1029E00077FD08D011D007FC05D03EF49095819575
:1029F0009F4F0895709561957F4F0895EE0FFF1FCB
:102A00000590F491E02D0994AA1BBB1B51E107C06E
:102A1000AA1FBB1FA617B70710F0A61BB70B881F6E
:102A2000991F5A95A9F780959095BC01CD010895FD
:042A3000F894FFCF48
:102A34000183017D014602370275021C02210B004D
:102A44000000000000210900020000010000000055
:102A540000150582024104980267030000000091FA
:102A6400055103B0065A03DA0A46036D0A00000052
:102A7400009105510359035A03A3063B03170300AE
:102A8400000000BE06CD059506EE05D713FEFF0037
:102A940000431400000000F50399023A05E202BA6B
:022AA40002002E
:00000001FF
