:1000000055C200007BC2000079C2000077C2000028
:1000100075C2000073C2000071C200006FC2000010
:100020006DC200006BC2000069C2000067C2000020
:1000300065C2000063C200000C942E305FC2000055
:100040005DC200005BC2000059C2000057C2000040
:1000500055C2000053C2000051C200004FC2000050
:100060004DC200004BC20000000000000000000074
:100070000000000000000000000000000000000080
:100080000000000000000000000000000000000070
:1000900000000000005561494A00005B58004E4FC7
:1000A000440000000000000000000000000000000C
:1000B0000000000000000000000000000000000040
:1000C0000000000000000000000000000000000030
:1000D0000000000000000000000000000000000020
:1000E0000000000000000000000000000000000010
:1000F0000000000000000000000000000000000000
:1001000000000000000000000000000000000000EF
:1001100000000000000000000000000000000000DF
:1001200000000000000000000000000000000000CF
:1001300000000000000000000000000000000000BF
:1001400000000000000000000000000000000000AF
:10015000000000000000000000000000000000009F
:100160000000000000000000000000000628040855
:100170000D090A231C22212026271B1A0B0E070F0C
:100180001D050C031E021011121314191817161551
:100190001FA495412462605E5D0000425A9067662C
:1001A0004591000000000000000000000000000079
:1001B0000000000000000097949998004568626173
:1001C0001F10111213141918171615000000000043
:1001D000000000000000000000000000000000001F
:1001E000000000000000000000000000000000000F
:1001F00000000000000000000000000000000000FF
:1002000000000000000000000000000000000000EE
:1002100000000000000000000000000000000000DE
:1002200000000000000000000000000000000000CE
:1002300000000000000000000000000000000000BE
:100240000000000000000000250100002501000062
:10025000000000000000000000000000000000009E
:1002600000000000000000003031323334353637F2
:100270003839414243444546004D6F7573652073DC
:10028000657474696E67733A2000230D20201B2467
:10029000261C21210624241D070D240F230D2407CD
:1002A0000F06281C201C0F0E1B270D0724537461FA
:1002B000727420706F6C6C696E6700446F6E6500BD
:1002C000496E697469616C697A6520726F6F742018
:1002D0006465766963652E2E2E0048696768207311
:1002E000706565642064657669636520666F756E08
:1002F00064004C6F7720737065656420646576696F
:10030000636520666F756E6400436865636B206487
:1003100065766963652E2E2E00446F6E65004D4133
:10032000582052657365742E2E2E0055534220526C
:100330006573657400436F6E666967757261746991
:100340006F6E2064657363726970746F723A206CAB
:10035000656E3D0020737065656420646576696331
:100360006520666F756E6420617420706F727420F2
:100370000048696768004C6F77003A200048554292
:100380002040002C20486561702073746172743DB8
:10039000002C2048656170207074723D004849440B
:1003A0005061727365723A3A506172736544657355
:1003B00063726970746F722053503D00293A2000B7
:1003C000484944207265706F727420286C656E3DD8
:1003D00000080901050406020A20200048494420BB
:1003E0004A6F79737469636B207265706F72743AC7
:1003F000200048494420646576696365206973205C
:100400007265636F676E697A656400484944206469
:100410006576696365206973204E4F542072656369
:100420006F676E697A656400484944204465736368
:10043000726970746F723A20004849442072656195
:10044000642064657363726970746F72206C656E8A
:100450003D004849442070726F6265204020004B87
:100460006579626F617264207265706F72743A2090
:100470000068016800680168006801680168016837
:100480000168016801680168016801680168016824
:100490000168016801680168015A78206B6579621A
:1004A0006F6172643A200000DF33DB3411241FBE19
:1004B000CFEFD8E0DEBFCDBF11E0A0E0B1E0EAE4CD
:1004C000FDE602C005900D92A037B107D9F722E0F2
:1004D000A0E7B1E001C01D92AD38B207E1F712E02C
:1004E000C5E5D2E004C02197FE010E940A35C4355B
:1004F000D107C9F70E94B6310C944E3581CD2091B9
:10050000C00025FFFCCF6093C60008950F931F9392
:10051000CF93DF938C01EB01FE0164912196C8011A
:10052000611105C0DF91CF911F910F910895E7DF11
:10053000F3CFCF93DF939B01FC014096AB01405F6B
:100540005F4FE817F90719F4DF91CF910895619192
:10055000D901EF0121976623A1F3A417B50789F309
:100560006D9178817613F9CF1882F7CFFC01409610
:10057000E817F90709F408952081261301C01082B5
:100580003196F6CF9C0180E58CBD459882E28EBD08
:100590000DB407FEFDCF8EB5C9010896F901408163
:1005A0002F5F3F4F4EBD0DB407FEFDCF821793075F
:1005B000A9F7459A089590E59CBD459828E0829F4B
:1005C000C001112482608EBD0DB407FEFDCF8EB533
:1005D0006EBD0DB407FEFDCF459A089590E59CBD14
:1005E000459828E0829FC00111248EBD0DB407FEFE
:1005F000FDCF1EBC0DB407FEFDCF8EB5459A089504
:1006000024E52CBD43989EBD0DB407FEFDCF8EBDE5
:100610000DB407FEFDCF439A0895EEE6F0E0108298
:100620008093AA01809177028E7F8093770282E087
:1006300080830895EEE6F0E010828093A901809116
:1006400077028D7F8093770282E080830895FC019A
:10065000128213828481887F848315821682089592
:10066000DC01ED91FC9181E0309731F02081318106
:10067000232B11F080E008950895CF93DF93EC01D0
:1006800088819981009729F0DC011296ED91FC9107
:10069000099519821882DF91CF910895FB01868117
:1006A000813029F49781913019F480E0089581E038
:1006B0000895CF93DF93EC01CADF8989887F816039
:1006C000898B1F82DF91CF910895DC01ED91FC9120
:1006D00081E0309731F020813181232B11F080E0CF
:1006E00008950895CF93DF93EC0188819981009755
:1006F00029F0DC011296ED91FC910995198218827E
:10070000DF91CF910895CF93DF93EC018881998198
:10071000009729F0DC011296ED91FC910995198260
:100720001882DF91CF910895FC0117821282138203
:100730008481807F8483108614860895CF93DF930D
:10074000EC0188819981009729F0DC011296ED91E6
:10075000FC91099519821882DF91CF910895FC01CF
:1007600011821082128213821482158216820895D9
:1007700081E00895DB011696ED91FC91309731F000
:100780008681813019F49781923009F080E00895D4
:10079000CF93DF93EC01FB01808191819983888362
:1007A00085818A8382818B83228533852C8364852E
:1007B00075856D832617370771F080899189468585
:1007C0005785841B950B621B730B0E94E3346E8369
:1007D000DF91CF91089561E0FACFFC01128213827C
:1007E0008481807F848315AA17AA16AADF01159633
:1007F000F596AE17BF0709F4089514968C911497D7
:100800008B7F14968C93149712961C9212971696BF
:10081000F0CFCF93DF93EC0188819981009729F085
:10082000DC011296ED91FC91099519821882DF91F5
:10083000CF910895FC0182819381892B71F0809181
:10084000AD019091AE0120813181821B930B909379
:10085000AE018093AD011382128208958FE1BEDE56
:100860008F700895CF93DF93EC018A8169EC82FF4A
:1008700005C0809105016BEC82FF6FEC8BE19BDE84
:1008800068818CE1DF91CF9196CEDC01ED91FC91F6
:1008900081E0309731F020813181232B11F080E00D
:1008A000089508950F931F93CF93DF93FC01C081A8
:1008B000D18100E010E08C819D81009799F4E8815E
:1008C000F981CE01099588819981892B31F401152F
:1008D000110519F0F80115821482DF91CF911F9153
:1008E0000F9108958E01EC01E6CFCF93DF93EC01D9
:1008F00088819981009729F0DC011296ED91FC9195
:10090000099519821882DF91CF910895CF92DF92D5
:10091000EF92FF920F931F93CF93DF93FC01EB01B4
:100920005A81A52FB0E08B81882321F09081891313
:1009300061C03196288139814423C9F1C9010197E9
:100940008A0F9B1FEC0113E0D695C7951A95E1F726
:10095000CE0FDF1F8770992761E070E08B0102C026
:10096000000F111F8A95E2F7C80198818923882317
:10097000F1F002C0660F771F5A95E2F77195619505
:100980007109072E000C880B990BA20FB31FC12C05
:10099000D12C7601C3942A173B0769F4DF91CF91DC
:1009A0001F910F91FF90EF90DF90CF90089560E03E
:1009B00070E0CB01EACFE90153E0D695C7955A958F
:1009C000E1F7CE0FDF1F488150E0E901C770DD2756
:1009D00002C055954795CA95E2F740FF04C06C29BF
:1009E0007D298E299F292F5F3F4FCC0CDD1CEE1CEB
:1009F000FF1CD1CF60E070E0CB01D0CF90E59CBD73
:100A0000459892E19EBD0DB407FEFDCF9EB5FB015A
:100A10009E2F961B981710F0459A089590819EBDC1
:100A20000DB407FEFDCF9EB59193F2CF90E59CBD2E
:100A3000459898E09EBD0DB407FEFDCF9EB5962F5C
:100A4000272F392F361B381710F0459A08951EBCF2
:100A50000DB407FEFDCF3EB5E92FF22F31939E2F47
:100A60002F2FEFCF8F929F92AF92BF92CF92DF92B4
:100A7000EF92FF920F931F93CF93DF9300D000D09C
:100A800000D0CDB7DEB79E012F5F3F4F46E0F901A2
:100A900011924A95E9F7FC01AC01405F5F4F61E0BC
:100AA00070E0E417F50709F072C08D81382F3071BE
:100AB00011E0311101C010E00981017089809A8034
:100AC00023E092222B819A819695969540E4249F6B
:100AD00050011124A92A93E0B9229C81E0E19E9F54
:100AE0006001112422952F70C22AF3E0DF2224E056
:100AF000829F700111249295969596959370E92A9C
:100B0000311160C0002349F08091450280FD05C08D
:100B100080E0816090E0946173DDC40171DDC50106
:100B200094606EDDC60198606BDDC7019C6068DD76
:100B30008E8181FF53C02A9A8E8180FF51C0299AED
:100B40008E8183FF4FC05C9A8E8182FF4DC05A9A7E
:100B50008E8184FF4BC05B9A110F102B8091450250
:100B60008C7F182B109345020F900F900F900F90D1
:100B70000F900F90DF91CF911F910F91FF90EF9009
:100B8000DF90CF90BF90AF909F908F90089581910C
:100B9000882309F486CF8150990BDC0113E0B595C9
:100BA000A7951A95E1F7A20FB31F877099278B01BC
:100BB00002C0000F111F8A95E2F7C8019C91892B92
:100BC0008C936FCF8091450281FD9CCF002321F053
:100BD00080FD02C082E09DCF82E09CCF2A98ACCFFE
:100BE0002998AECF5C98B0CF5A98B2CF5B98B4CF6B
:100BF000EBE0F2E092E0EB31F90711F480E00895C8
:100C000091919813F7CF81E00895CF93DF93D82F78
:100C1000C92F6DE074DC6AE08D2F9C2F70DC8D2F66
:100C20009C2FDF91CF910895FC019C01205F3F4FE5
:100C3000DF01E217F30709F408958191811102C0E1
:100C40006C9308958613F4CFFBCFCF92DF92EF928F
:100C5000FF920F931F93CF93DF9300D000D00F929A
:100C6000CDB7DEB76C01CB01FE0131967F010AE002
:100C700010E09E012A5F3F4FB8010E94E334805D7F
:100C80008193CB01E217F307B9F78F0180E0F801F8
:100C900062918F01603311F4882319F0C6012FDCB3
:100CA00081E0E016F10699F7C6010F900F900F90C2
:100CB0000F900F90DF91CF911F910F91FF90EF90C8
:100CC000DF90CF9008950F931F93CF93DF938C0104
:100CD000EB01FB01EF2FFF27E295EF70E859FD4F85
:100CE0006491C8010CDCED2FFF27EF70FF27E85956
:100CF000FD4F649104DCFE0134E0F695E7953A95EA
:100D0000E1F7EF70FF27E859FD4F6491C801F7DB69
:100D1000FE01EF70FF27E859FD4F6491DF91CF91FD
:100D20001F910F91ECCBCF93C62FE62FE295EF707A
:100D3000F0E0E859FD4F6491E2DBCF70EC2FF0E07A
:100D4000E859FD4F6491CF91DACBCF92DF92EF92C9
:100D5000FF920F931F93CF93DF937C018B01FB01D5
:100D600080819181C12CD12CF80122813381C2165E
:100D7000D30650F0C701DF91CF911F910F91FF90E3
:100D8000EF90DF90CF900895EC016991C701CBDF20
:100D900060E2B5DBFFEFCF1ADF0ACE01E5CFEF92BD
:100DA000FF920F931F93CF93DF93EB018C017B0195
:100DB000E40EF51ECE010E942035F80161918F01ED
:100DC000861729F0F999FECFCE010E942835219689
:100DD000EC16FD0679F7DF91CF911F910F91FF90EF
:100DE000EF90089520E1FC0111922A95E9F708950A
:100DF0000F931F93CF93DF9300D000D000D00F92BA
:100E0000CDB7DEB78C0190DCF80113A212A214A2B8
:100E10004CE050E06FEF70E0C80185960E944735C6
:100E2000CE0101969CDC87E0FE013196D8011D962B
:100E300001900D928A95E1F7CE01019690DC87E052
:100E4000FE013196D801549601900D928A95E1F7F2
:100E5000F80181A98B7F81AB27960FB6F894DEBF8E
:100E60000FBECDBFDF91CF911F910F9108950F93CA
:100E70001F93CF93DF9300D000D000D00F92CDB757
:100E8000DEB78C0151DCCE01019669DC87E0FE0102
:100E90003196D8011D9601900D928A95E1F7CE0109
:100EA00001965DDC87E0FE013196D80154960190F1
:100EB0000D928A95E1F7CE01019651DC87E0FE01A3
:100EC0003196D8015B9601900D928A95E1F7F80171
:100ED000B99683E0DF011D928A95E9F7F80110A623
:100EE00014A685A5807F85A727960FB6F894DEBF48
:100EF0000FBECDBFDF91CF911F910F910895CF937A
:100F0000DF93AC01C091AD01D091AE01CE01840F51
:100F1000951F9093AE018093AD0160E070E0CE012B
:100F20000E944735CE01DF91CF91089525E52CBD74
:100F3000A0E0B0E0AC01BD013AE0440F551F661FD0
:100F4000771F3A95D1F72CEF52272FE96227842B90
:100F5000952BA62BB72B46982AE02A95F1F700C0CF
:100F6000AD01662777274EBD0DB407FEFDCF492F93
:100F70005A2F6B2F77274EBD0DB407FEFDCF8EBDC8
:100F80000DB407FEFDCF8AE08A95F1F700C0469ABE
:100F90002AE02A95F1F700C00895FC018285938527
:100FA00080FF0CC08630910538F49AE201C0969516
:100FB0008A95EAF790FD13C00E943635823091057C
:100FC00039F08430910559F0892BB1F7F783E68326
:100FD0001182108284E090E093878287089584854F
:100FE000882349F08091AD019091AE010F979093C5
:100FF000AE018093AD0108950F931F93CF93DF93BC
:10100000EC018B018FE090E07ADFFC01892B41F449
:1010100019821882CE01DF91CF911F910F9108950F
:1010200081E084878DEC97E09183808385E298E06E
:10103000938382830087118715821482F983E88362
:1010400013861286CF01A9DFE5CFFC018285938547
:10105000816093878287CF01A0CF1F93CF93DF93C7
:10106000EC01EF85F889E0FF25C0EC30F105E8F4EC
:10107000E530F10528F4ED7F319751F00E943635C7
:10108000359785E501C08695EA95EAF780FFF6CFAA
:1010900089898823E1F08091AD019091AE0182971A
:1010A0009093AE018093AD0112C03D97E730F105FA
:1010B00040F3E4CFE331F10508F7E65AFA4C0C941B
:1010C0000A359A87898782E090E0988B8F87DF9135
:1010D000CF911F910895EC85FD85108280E197E204
:1010E0009D8B8C8B1E8AEC85FD8590818B85981756
:1010F00090F060EA8EE15FDA89E170DA87FF76C00E
:1011000060E889E158DA1886EE81FF811182108249
:1011100080E190E0DACF8E89882341F01886EE8155
:10112000FF811182108284E090E0CFCF60E08EE1F9
:1011300042DA89E153DA87FF1FC060E889E13BDAD0
:101140008DDB182F8B8B863071F28430C1F48C8943
:101150009D8901979D8B8C8B892B09F0C4CF60EA08
:101160008EE129DA89E13ADA87FF22C060E889E175
:1011700022DA81E08E8BB7CF86E090E0A6CF811196
:10118000EECF86E02BDA8F8B1B8F8F89181798F0A4
:1011900064E089E110DA9F89911122C060EA8EE152
:1011A0000ADA89E11BDA87FDE1CF8CE090E08DCF90
:1011B00088E090E08ACF81E011DA682F8C8F8FEA87
:1011C00091E0B1DD60E29BD98C8D8887EE81FF8153
:1011D000118210828AE090E078CF1B8D1F5FD4CF00
:1011E000EC85FD858081890F80837DCF8EE090E046
:1011F0006CCF1982188282E190E067CFFC0187856D
:1012000090898160908B8787CF0127CFCF93DF9321
:10121000EC018889998980FF0CC08830910538F4E9
:101220009AEA01C096958A95EAF790FD41C00E941E
:10123000363584309105D9F0C0F5009709F445C0E2
:101240000297A9F7EC85FD85108289859A859D8B8B
:101250008C8B80E197E2988F8F8BEC85FD85908158
:101260008B85981708F050C06F858EE1A4D989E16D
:10127000B5D987FF2DC060E889E19DD9EFDA8E8B63
:10128000863059F3843059F59E85911108C02F8915
:10129000388D21503109388F2F8B232BF1F68E8317
:1012A0001982188286E090E015C0069709F0BFCF3A
:1012B0008A89882389F08091AD019091AE014D9784
:1012C0009093AE018093AD0107C0D887CF83BACF8A
:1012D00084E090E0998B888BDF91CF910895811104
:1012E000DECF86E07BD9282F30E03A8F298F232B61
:1012F00019F06C897D899ADB64E089E15CD9298DDC
:101300003A8D2115310511F48E89C9CF8C899D89BB
:10131000820F931F9D8B8C8BEC85FD858081820FC6
:1013200080839BCFBF92CF92DF92EF92FF920F9379
:101330001F93CF93DF93EC01B62EC72ED42EF22E3F
:10134000132F8DE190E0DBDDFC01892B69F419821C
:101350001882CE01DF91CF911F910F91FF90EF90F6
:10136000DF90CF90BF90089581E0828B86E099E076
:10137000918380838EEC99E093838283B186C286C9
:10138000D386F48615870687E78615821482F9834B
:10139000E883118A108ACF0139DFDBCFFC01808915
:1013A00091898160918B808BCF0130CFCF93DF9378
:1013B000EC018B859C8580FF10C08130910589F1FF
:1013C00003978730910538F495E501C096958A9585
:1013D000EAF790FD26C00E9436358430910529F049
:1013E000D8F4009759F10297B1F738DA813049F112
:1013F00089859A85C7D860E18EE1DDD889E1EED88C
:1014000087FF26C060E889E1D6D828DA8E83198262
:10141000188288E090E017C08630910579F308972C
:10142000D1F68D85882389F08091AD019091AE0130
:1014300042979093AE018093AD0107C0D887CF83C8
:10144000D4CF84E090E09C878B87DF91CF91089583
:1014500086E090E0F8CF0F931F93CF93DF93EC01DA
:101460008B0182E190E04BDDFC01892B41F4198274
:101470001882CE01DF91CF911F910F91089581E0E5
:10148000858786ED99E09183808389EB9AE0938349
:1014900082830187128715821482F983E883148678
:1014A0001386CF0183DFE5CF0F931F93CF93DF9395
:1014B000EC018E859F8580FF0DC08530910509F474
:1014C00040C030F48D7F019709F43EC00E9436354C
:1014D0000797FACF8430910539F108F5009709F1A3
:1014E0000297A1F78C859D85BDD96A857B858E0184
:1014F0000E5E1F4FC801AFDFC801C7D9811114C0EC
:1015000084E090E09F878E87EE81FF818A899B89A6
:1015100095838483DF91CF911F910F910895069752
:10152000D3CFDF83CE83DECFCE014296DED960E219
:101530008DE141D81982188286E090E09F878E87DE
:10154000E9CFCE014296D1D98889882319F38091B9
:10155000AD019091AE0145979093AE018093AD019E
:10156000D9CFFC0186859785816097878687CF01D3
:101570009BCFFC0183859485816094878387CF010D
:1015800015CFCF92DF92EF920F93CF93DF93EC01C1
:10159000EE85FF85E0FF0AC03197E731F10520F4C1
:1015A000E359FA4C0C940A350E943635E731F105BF
:1015B000D8F7EC57FA4C0C940A3598878F8388E259
:1015C0008D8B88E0FE017696DF011D928A95E9F702
:1015D00080E88E8B86E08F8B80E091E0998F888FFA
:1015E0008D8590E09D8F8C8FBE016A5E7F4F6E016E
:1015F000BFE1CB0ED11CC6012EDFC60146D9811139
:1016000011C084E090E09F878E87EF81F8858F8DF1
:1016100098A195838483DF91CF910F91EF90DF9014
:10162000CF900895EF8DF8A196819C8B81E09D303D
:1016300009F480E08A8BCE014F9657D98A898111AF
:1016400015C08D8981508D8B811105C080E0FAC055
:101650004F964BD97DC089E10E940D0381E08093B4
:10166000A80186E090E09F878E87D5CF8C89811175
:10167000EDCF60E28DE10E94DB0269857A85E12C85
:1016800000E09E012D5E3F4F4D856E0182E2C80E47
:10169000D11CC60147DEC601F8D8811109C088E017
:1016A00090E09F878E87EF81F8858AA19BA1B1CFBB
:1016B000EAA1FBA186818C8BCE01829616D98C89FA
:1016C0008111C4CF8B89882309F4C0CF60EA8EE1F1
:1016D0000E94DB0289E10E94EE0287FF26C060E8DB
:1016E00089E10E94DB02E985FA8580818E8F6B8516
:1016F0007C85DB01ED91FC910190F081E02D6E0184
:10170000B5E2CB0ED11CC6010995C6010E9430037B
:1017100081110EC08CE090E09F878E87EF81F88565
:101720008DA19EA176CF829694CF8AE090E09BCF48
:10173000CE0185960E943D0388EC0E940D0381E056
:101740008093A8018EE090E08ECF85960E943D03A5
:101750008889882309F45FCF8091AD019091AE0113
:10176000C6979093AE018093AD0155CF60E08CE1B8
:101770000E94DB028E8D9B89981709F46EC090E859
:101780009AA796E09BA720E031E03DA72CA71FA6D3
:101790001EA690E099AB88ABBE01665D7F4F6E01DF
:1017A00088E2C80ED11CC60156DEC6016ED8811172
:1017B00009C080E190E09F878E87EF81F88588A53A
:1017C00099A527CFE8A5F9A586818C8BCE018896AF
:1017D0008CD88C8981113ACF60E28DE10E94DB02C6
:1017E00069857A85E12C00E09E012D5E3F4F4E8D8C
:1017F0006E01A2E3CA0ED11CC60194DDC60145D814
:1018000081110BC082E190E09F878E87EF81F88580
:101810008AA99BA9FECE88961CCFCE01C29665D818
:1018200060EA8EE10E94DB0289E10E94EE0287FFFE
:1018300011C060E889E10E94DB0281E02B899E8D66
:10184000291304CF8E831982188286E190E00BCF92
:10185000C296FFCE84E190E006CF81E0F3CFDF9225
:10186000EF92FF920F931F93CF93DF93EC01D62E4D
:10187000E72EF42E052F122F86E390E040DBFC01CB
:10188000892B59F419821882CE01DF91CF911F91D3
:101890000F91FF90EF90DF90089581E0808B81ECB5
:1018A0009AE09183808385E69CE093838283D1864E
:1018B000E286F3860487158715821482F983E8830C
:1018C00017861686CF015DDEDFCFFC018685978502
:1018D000816097878687CF0154CEAF92BF92CF9217
:1018E000DF92EF92FF920F931F93CF93DF9300D07D
:1018F00000D0CDB7DEB76C01DC011B96ED91FC91F9
:101900001C97E0FF0AC03197E732F10520F4E55655
:10191000FA4C0C940A350E943635E732F105D8F7B7
:10192000EE53FA4C0C940A35FC019087878384E0CF
:1019300090E0D60150969C938E931F9780E091E0A3
:1019400053969C938E9352978091AD019091AE01E6
:1019500055969C938E93549793959093AE01809354
:10196000AD01F601878590890197908B8787892B38
:1019700071F480E0F6018683C60142960E941A0443
:10198000D60111961C921E9286E290E0D7C089EC97
:1019900090E0F60194A783A70184F285E02D84816D
:1019A00082FF11C08BEC90E0D6019C969C938E93A5
:1019B0009B978091050182FD06C08FEC90E09C967C
:1019C0009C938E939B97F60163A58BE10E94DB02AB
:1019D000D60119966D917C91DB01ED91FC910190FE
:1019E000F081E02D8601035D1F4FC8010995C801F4
:1019F0000E94300381111DC084E090E0F6019487BD
:101A000083870780F085E02DD6019D968D919C916E
:101A1000958384830F900F900F900F90DF91CF915B
:101A20001F910F91FF90EF90DF90CF90BF90AF90FC
:101A30000895C6018D960E943D0388EC0E940D0317
:101A400081E08093A80186E090E0F6019487838787
:101A5000E1CF8D960E943D0301C160E08CE10E94C0
:101A6000DB02D60119964D915C91FA01848128E040
:101A700082FF20E4D60154966D917C918601005D31
:101A80001F4FC801ECDEC8010E94650381110DC023
:101A900088E090E0F601948783870780F085E02D49
:101AA000D601D0968D919C91B3CFD601D096ED9171
:101AB000FC91D19786819A968C93C601C0960E941C
:101AC0007203F60182A5811140C041855285648967
:101AD000758928E086010E5C1F4FC801C0DEC80171
:101AE0000E946503811111C08AE090E0F60194879D
:101AF00083870780F085E02DD601D2968D919C9149
:101B000087CFC0960E947203A9C0D601D296ED91EC
:101B1000FC91D397868199968C93C601C2960E94B8
:101B20007203F60181A5811110C082E30E940D03AA
:101B300081E08093A8018CE090E0D6011C969C93F4
:101B40008E931B9767CFC296DDCFD6011F968D91DE
:101B50009C915097892B09F40CCF5496ED91FC91F0
:101B60005597848156968C9356978091000191E009
:101B7000980F9093000157968C930E942E04813009
:101B800091F1D601D8961C92D89785E0D9968C937E
:101B9000D99757968C91579790E0DB969C938E93AC
:101BA000DA97DD961C921E92DC97DF961C921E92AD
:101BB000DE97B601685C7F4F86010A5C1F4FC80143
:101BC0004ADCC8010E944504811110C080E190E008
:101BD000F601948783870780F085E02DD601D6969D
:101BE0008D919C9115CF8EE090E02FCFD601D696A7
:101BF000ED91FC91D797868158968C93C601C69635
:101C00000E94750488EE93E0F601908B8787F601B9
:101C1000878590890197908B8787892B99F060E859
:101C20008EE10E94DB0289E10E94EE0287FF2AC05A
:101C300060E889E10E94DB020E942E04F601808F99
:101C40008111E5CF8AE00E940D0381E08093A80115
:101C500084E190E072CFC6960E947504C601429658
:101C60000E941A04F6018585882309F4D3CE809159
:101C7000AD019091AE01825791099093AE0180938E
:101C8000AD01C8CE82E190E058CF58968C9158971C
:101C900081116FCE57966C918CE10E94DB02D601C8
:101CA0001996ED91FC911A9757968C91828388E052
:101CB000E6E0F1E0B6016C5B7F4FDB0101900D9235
:101CC0008A95E1F786010E5B1F4FC801C4DBC8018E
:101CD0000E944504811109C086E190E0F6019487D5
:101CE00083870780F085E02D89C0C6018E5B9F4FFA
:101CF000DC01ED91FC912681F601208F0E94750494
:101D000060E28DE10E94DB025601FCE4AF0EB11CE3
:101D1000D60154966D917C91E12C00E096012F5EE6
:101D20003F4F49E0C501FEDAC5010E94450481111B
:101D30000FC088E190E0F601948783870780F085E3
:101D4000E02DD5018D919C9163CE8E5B9F4F84CF0A
:101D5000C601845B9F4FDC01ED91FC912681F60169
:101D6000208F0E94750460EA8EE10E94DB0289E107
:101D70000E94EE0287FF0DC060E889E10E94DB024D
:101D8000F6018189811108C081E0F4CD845B9F4F09
:101D900063CF8AE190E0D1CED6010488F589E02DA9
:101DA000828193815A969C938E93599720E8B6012D
:101DB0006F5A7F4FFB01208326E03196208320E07D
:101DC00032E031963183208332961182108232962E
:101DD000918380838601015B1F4FC8013CDBC801F2
:101DE0000E94450481110CC08CE190E0D6011C9644
:101DF0009C938E931B971796ED91FC91D801A2CFDF
:101E0000C601815B9F4F0E94750460E28DE10E94D4
:101E1000DB025601B9E5AB0EB11CF6016489758988
:101E2000E12C00E096012F5E3F4F418DC5017ADA2B
:101E3000C5010E94450481110EC08EE190E0D601DB
:101E40001C969C938E931B971796ED91FC9179CFDE
:101E5000815B9F4F01CFC601875A9F4F0E94750437
:101E600060EA8EE10E94DB0289E10E94EE0287FFB8
:101E70009AC060E889E10E94DB02D60151968C91FC
:101E8000882309F481CF65E373E08FEA91E00E9433
:101E90008602F601618D728D0E9425060E9405065C
:101EA000D60159962D913C915A9754964D915C913B
:101EB0005A8349833C832B83BE016F5F7F4F0E940F
:101EC000A5060E940506D6015496ED91FC91559702
:101ED0005C96FC93EE935B975E96FC93EE935D9716
:101EE000828193818E0F9F1F90969C938E935F9714
:101EF000F60112A211A214A213A216A215A210A6F4
:101F000017A2478D50A1D6015D96ED91FC915E9789
:101F100091962D913C91E417F50708F4AFC0232B5F
:101F200009F044C00091AB011091AC01C60142968A
:101F30000E941A04F601E759FF4F1183008332967D
:101F4000118300833296085F1F4F11830083F601CF
:101F5000E559FF4F0190F081E02DD601A359BF4F05
:101F60008D919C91E817F90709F40ECFD601A95974
:101F7000BF4FED93FC9360817181860101591F4F22
:101F8000DB01ED91FC910280F381E02DC801099500
:101F9000C8010E94300381119CC084E290E09ECE73
:101FA000875A9F4F59CE80E290E04FCD8091AB0190
:101FB0009091AC01F601E15AFF4F918380833296F4
:101FC000918380833296089691838083F601EF593E
:101FD000FF4F0190F081E02DD601AD59BF4F8D919B
:101FE0009C91E817F90709F483CFD601A35ABF4F94
:101FF000ED93FC93608171817601B5E6EB0EF11CE7
:10200000F601418552854E5F5F4FDB01ED91FC91FA
:102010000190F081E02D8601055E1F4FD601569696
:102020002C91C7010995C7010E94650381110AC05F
:1020300082E290E0F601948783870780F085E02DA7
:10204000D70180CEC6018B599F4FDC01ED91FC91E9
:1020500026818601045A1F4FF80120830E947203D3
:10206000D8018C91811144CFF601EF59FF4F808147
:1020700091810296A9CF8B599F4F44CD81818430A5
:1020800081F4232B09F092CFD6019296FC93EE9324
:10209000919780818E0F9F2F911DF601968F858FCE
:1020A00032CF853071F48281D60187FF05C09496C6
:1020B000FC93EE939397EDCF9696FC93EE939597C2
:1020C000E8CF813231F7D6019896FC93EE9397973B
:1020D000E0CFC60181599F4F0E943D03F601E559AB
:1020E000FF4F8081918102969183808330CF815907
:1020F0009F4FB0CC0F931F93CF93DF93EC018B01D5
:1021000082E790E00E947F07FC01892B41F419824D
:102110001882CE01DF91CF911F910F91089581E038
:1021200085878DE69CE09183808384EA90E19383A8
:1021300082830187128715821482F983E8831486CB
:102140001386CF01CADBE5CFFC01838594858160CE
:1021500094878387CF01C1CB0F931F93CF93DF93D6
:10216000EC01E985FA85E0FF26C0EB30F10579F056
:10217000E0F4E830F10548F48AEA01C08695EA9572
:10218000EAF780FD04C00E9436353997E1F78B8568
:10219000882309F457C08091AD019091AE014F970B
:1021A0009093AE018093AD014DC0ED30F10509F47F
:1021B00014C13F97EBCFEF30F10528F7E751FA4C08
:1021C0000C940A3598878F83109203016BE273E0B9
:1021D0008FEA91E00E9486020E9405068091AB0181
:1021E0009091AC019B8B8A8B9D8B8C8B08969F8BDF
:1021F0008E8BEC89FD898E899F89E817F90739F55F
:1022000011E01093000160E085E10E94DB0260E1D3
:1022100081E10E94DB0260E28FE00E94DB0268E065
:1022200085E10E94DB026EE173E08FEA91E00E949B
:10223000860288EC0E940D031093A80184E090E0D0
:102240009A878987DF91CF911F910F910895F98B1C
:10225000E88B80819181DC01ED91FC910480F58116
:10226000E02D09958C899D8902969D8B8C8BC1CF21
:1022700060E085E10E94DB0260E08FE00E94DB020B
:1022800069E173E08FEA91E00E9486020E940506F0
:1022900088EC0E940D0381E08093A80186E090E025
:1022A000CFCF61EC8BE10E94DB0260E289E10E940A
:1022B000DB0264E08DE10E94DB0284E68E8769E048
:1022C00073E08FEA91E00E9486028E8581508E87AE
:1022D0008823A1F08FE10E94EE02982F907C9F87C7
:1022E000911109C082E00E940D0381E08093A80152
:1022F00088E090E0A5CF9E85911107C080E08E8395
:10230000198218828EE090E09BCF86FF1AC06BEC9A
:102310008BE10E94DB0280910501846080930501BE
:1023200062EF72E08FEA91E00E9486020E94050649
:1023300088EC0E940D0381E08093A8018AE090E080
:102340007FCF69EC8BE10E94DB02809105018B7FDE
:10235000809305016AED72E0E5CF60EC72E08FEAF0
:1023600091E00E9486020E94050661E071E08E0104
:10237000045E1F4FC801BEDEC8010E9465038111C3
:102380000BC08CE090E09A878987EF81F8858C8D6F
:102390009D8D9583848356CFEC8DFD8D868191E054
:1023A00089278D87CE014C960E9472038D858111FD
:1023B000A5CF60E289E10E94DB026BEB72E08FEA5D
:1023C00091E00E9486020E9405066DEA72E00E947A
:1023D00086020E94050681E092CF4C960E9472030D
:1023E000D6CECF93DF93EC018FE190E00E947F0780
:1023F000FC01892B31F419821882CE01DF91CF9133
:10240000089581E083878CEA90E19183808384E161
:1024100092E19383828315821482F983E883128682
:102420001186CF0199DEE9CFFC018185928581601B
:1024300092878187CF0190CE0F931F93CF93DF9325
:10244000EC0189859A8580FF11C08530910509F4DA
:1024500083C030F48D7F019709F47EC00E94363529
:102460008730910509F474C00997F6CF843091053F
:10247000C9F078F4009799F0029781F782E00E9402
:102480000D0381E08093A80184E090E09A8789871A
:1024900047C08630910509F448C00897DDCFD8873A
:1024A000CF83ECCF89E10E94EE0285FF07C080E078
:1024B0008E831982188288E090E0E8CF8091AB018A
:1024C0009091AC019A8B898B9C8B8B8B08969E8B01
:1024D0008D8BEB89FC898D899E89E817F90711F4AA
:1024E00081E0E6CFF88BEF8760817181DB01ED91B0
:1024F000FC910680F781E02D8E01095E1F4FC80117
:102500000995C8010E94650381110FC086E090E023
:102510009A878987EF81F8858F89988D9583848341
:10252000DF91CF911F910F910895EF89F88D8681EA
:1025300091E089278E87CE0147960E9472038E858F
:102540008111B5CF8B899C8902969C8B8B8BC1CFD7
:10255000CE0147960E9472038B85882309F38091F0
:10256000AD019091AE014A979093AE018093AD0179
:10257000D7CFFC0181859285816092878187CF01C9
:102580005BCF0F931F93CF93DF9300D0CDB7DEB710
:102590008091A801882349F08091770280FF27C0AD
:1025A0008E7F809377021092A801E0914702F0910C
:1025B0004802309729F58AE190E00E947F078C015C
:1025C000892B89F081E0F80183878CE192E1918386
:1025D000808389EB92E19383828315821482128631
:1025E0001186C80129DF109348020093470210E0CA
:1025F000812F0F900F90DF91CF911F910F91089530
:1026000080819181892B29F087E492E00E94520415
:10261000EECF168111110AC0CE010196E2DE89814A
:102620009A819093480280934702E1CF87E492E039
:102630000E947203DDCF0F931F93CF93DF93EC01C2
:102640008D859E8580FF11C08530910509F45CC0A1
:1026500030F48D7F019709F45BC00E9436358730D6
:10266000910509F455C00997F6CF8430910569F1B9
:1026700020F5009739F1029781F78B859C850E94A0
:10268000320469857A858E010E5E1F4FC8010E9453
:102690002B0AC8010E944504811117C084E090E014
:1026A0009E878D87EF81F8858A899B8995838483AE
:1026B000DF91CF911F910F9108958630910589F098
:1026C0000897C9CFD887CF83D8CFEA89FB8986817D
:1026D000898BCE0142960E94750460E88EE10E94CB
:1026E000DB0289E10E94EE0287FF1FC060E889E1FA
:1026F0000E94DB0281E09989911180E08E8319822A
:10270000188288E090E013C0CE0142960E947504C2
:102710008F85882369F28091AD019091AE01469733
:102720009093AE018093AD01C3CF86E090E09E8789
:102730008D87BECFEF92FF920F931F93CF93DF93BE
:10274000EC017B018A0186E190E00E947F07FC0199
:10275000892B51F419821882CE01DF91CF911F91FC
:102760000F91FF90EF90089581E087878BE193E1CF
:102770009183808383E894E193838283E186F28668
:102780000387148715821482F983E88316861586D9
:10279000CF0151DFE1CFEF92FF920F931F93CF93C1
:1027A000DF93EC018A859B8580FF0DC08530910504
:1027B00009F466C030F48D7F019709F465C00E946A
:1027C00036350797FACF8430910509F446C008F0F2
:1027D0003FC0009709F43EC0029789F78CE10E9440
:1027E000EE028E878BE10E94EE028F8788E0BE01A9
:1027F000605F7F4FFB0111928A95E9F783E2888B36
:1028000083E0898B84E0E82EF12CFB8AEA8AE88554
:10281000F985858190E09D8B8C8B42E751E08E019C
:10282000085E1F4FC80186DFC8010E946503811141
:1028300014C0FB86EA86EE81FF81888D998D958391
:102840008483DF91CF911F910F91FF90EF900895B6
:102850000697B3CFDF83CE83C1CFCE0148960E94C7
:1028600072036E858CE10E94DB026F858BE10E9412
:10287000DB021982188286E090E09B878A87E1CF8D
:10288000CE0148960E9472038C858823D1F28091F4
:10289000AD019091AE014B979093AE018093AD0145
:1028A000D0CF0F931F93CF93DF93EC018B018BE17C
:1028B00090E00E947F07FC01892B41F41982188265
:1028C000CE01DF91CF911F910F91089581E0848710
:1028D0008BEC93E1918380838BE794E193838283F4
:1028E0000087118715821482F983E8831386128684
:1028F000CF0151DFE5CFFC0182859385816093870D
:102900008287CF0148CFFC018585968581609687B7
:102910008587CF0190CECF92DF92EF920F931F93D6
:10292000CF93DF93EC018A899B8980FF15C08530A6
:10293000910509F471C030F48D7F019709F470C0DE
:102940000E9436358730910509F498C0863091058C
:10295000B9F38D7F0997F2CF8630910509F46DC0E8
:1029600068F58E01085E1F4F8230910539F0843082
:10297000910551F1892B21F7D987C8878F859889CF
:102980000E9432046C857D85C8010E942B0AC80113
:102990000E944504811118C084E090E09B8B8A8BD3
:1029A000E885F985888D998D95838483DF91CF9112
:1029B0001F910F91EF90DF90CF900895883091058F
:1029C00009F447C00A97BACFE88DF98D86818F8BBD
:1029D000C8010E94750460E28DE10E94DB026A85F5
:1029E0007B85E12C09899E012A5E3F4F4E856E0151
:1029F0008AE1C80ED11CC6010E949209C6010E943C
:102A0000450481111AC086E090E09B8B8A8BE88593
:102A1000F9858A8D9B8DC8CFCE0148960E9475049A
:102A20008C89882319F28091AD019091AE014E9767
:102A30009093AE018093AD01B9CFEA8DFB8D868175
:102A40008F8BCE014A960E94750460EA8EE10E9447
:102A5000DB0289E10E94EE0287FF13C060E889E192
:102A60000E94DB028E89882389F08A859B859F835B
:102A70008E83198218828AE090E005C0CE014A96C2
:102A8000CDCF88E090E09B8B8A8B90CF80E090E068
:102A9000EECFFC01828993898160938B828BCF0179
:102AA0003ACFBF92CF92DF92EF92FF920F931F9394
:102AB000CF93DF93EC01B62EC72ED42EE52EF22E47
:102AC0008EE190E00E947F07FC01892B69F4198256
:102AD0001882CE01DF91CF911F910F91FF90EF905F
:102AE000DF90CF90BF90089581E0848B8BE894E1D4
:102AF0009183808389E495E193838283B286C38640
:102B0000D486E586F6860787108B118A1582148293
:102B1000F983E883138A128ACF01FDDEDACF0F939F
:102B20001F93CF93DF93EC01EA85FB85E0FF0AC09A
:102B30003197E331F10520F4E850FA4C0C940A3552
:102B40000E943635E331F105D8F7E55FF94C0C9476
:102B50000A359F838E8308851985F801828181114A
:102B60000BC01982188282E190E09B878A87DF91EF
:102B7000CF911F910F910895848183FDF2CF8860DA
:102B8000848388E0EEE0F1E0DE011E9601900D9274
:102B90008A95E1F70E5F1F4F28E0AE01425F5F4F5D
:102BA000BE016A5E7F4FCE0182967BDFEAA1FBA168
:102BB000309779F080819181892B59F084E090E001
:102BC0009B878A87AE81BF811596FC93EE931497FD
:102BD000CECFEAA1FBA18681978199A388A3CE01DC
:102BE00082960E940904E8A1F9A1309709F4B9CFAF
:102BF000A885B9858281D5968C9380E08CA3E885E1
:102C0000F98595A9891708F0ACCF282F30E041E06D
:102C100050E0BA0102C0660F771F8A95E2F77EA3E3
:102C20006DA383E28E8783E08F8788E090E0998BA5
:102C3000888B2F5F3F4F3B8B2A8B1D8A1C8AAF01ED
:102C40004E5F5F4FBE01625F7F4F8E01055D1F4F7C
:102C5000C80170DDC8010E94650381111CC086E0B7
:102C600090E09B878A87EE81FF818BA59CA5958349
:102C700084837DCF82960E9409048C85882309F481
:102C800076CF8091AD019091AE01C6979093AE0141
:102C90008093AD016CCFCE018B960E94720382E3CC
:102CA0000E940D0381E08093A80188E090E05DCF51
:102CB0008B960E947203E1CF8CA190E0019623E2F3
:102CC0002E8723E02F8724E030E0398B288B9B8BE5
:102CD0008A8B1D8A1C8A488559854E5F5F4FBE01CD
:102CE000625F7F4F8E01025D1F4FC80123DDC80167
:102CF0000E946503811109C08AE090E09B878A8762
:102D0000EE81FF818EA59FA5B2CFCE018E960E9447
:102D1000720382E30E940D0381E08093A8018CE09E
:102D200090E023CF8E96C5CF8CA190E0019623EA48
:102D30002E871F86198A188A9B8B8A8B84E090E0E5
:102D40009D8B8C8B088519850E5F1F4F24E0AE018B
:102D5000425F5F4FBE016A5E7F4FCE01C196A1DE2A
:102D6000E9A9FAA9309739F080819181892B19F06E
:102D70008EE090E025CFE9A9FAA98681978198A7EE
:102D80008FA3CE01C1960E940904EFA1F8A580810E
:102D900080FF68C06DE773E08FEA91E00E948602D1
:102DA000E885F985628170E00E9425066AE773E094
:102DB0000E948602EFA1F8A5818166E773E081FD9C
:102DC00002C061E773E08FEA91E00E94860264E549
:102DD00073E08FEA91E00E9486026CA170E00E948D
:102DE00025060E940506A885B985D6968D919C91E9
:102DF000D7972DA13EA1822B932BD7969C938E9390
:102E0000D697ECA176E0E79FF0011124CF0105965B
:102E10008A0F9B1F9AA789A7EA0FFB1FAFA1B8A52E
:102E200011969C91818591FB82F98187178269A512
:102E30007AA58E010D5C1F4FC8015CD9C8010E94A4
:102E4000650381110BC080E190E09B878A87EE814A
:102E5000FF818BA99CA90BCFC1960DCFCE01C39644
:102E60000E9472038CA18F5FC9CEC39622CF0F93AD
:102E70001F93CF93DF93EC018B0186E390E00E94D8
:102E80007F07FC01892B41F419821882CE01DF9162
:102E9000CF911F910F91089581E084878FE895E18C
:102EA0009183808381E697E19383828300871187F2
:102EB00015821482F983E88313861286CF012FDEF0
:102EC000E5CFFC0182859385816093878287CF015E
:102ED00026CEEF92FF920F931F93CF93DF93EC01D7
:102EE0008B859C8580FF0DC08530910509F46CC0F1
:102EF00030F48D7F019709F46BC00E943635079737
:102F0000FACF8430910509F44EC0A0F40097A1F0E7
:102F1000029799F780E08F87E985FA8595A9891747
:102F200070F081E08E831982188286E090E09C87A1
:102F30008B8732C00697DFCFD887CF83EBCF98E05F
:102F4000AE01405F5F4FDA011D929A95E9F793EA6F
:102F5000988B94E0E92EF12CFF8AEE8A90E001969E
:102F60009D8B8C8B8F010E5F1F4F24E0BE01685E2E
:102F70007F4FCE01829695DDEAA1FBA1309799F0B3
:102F800080819181892B79F0FC86EB86AF81B885B1
:102F90001596FC93EE931497DF91CF911F910F91AB
:102FA000FF90EF900895EAA1FBA18681978199A3F4
:102FB00088A3CE0182960E940904E8A1F9A18F8519
:102FC000309799F48F5FA7CFCE0182960E940904B3
:102FD0008D85882309F38091AD019091AE0185978D
:102FE0009093AE018093AD01D7CF90819170E98528
:102FF000FA8521E030E0082E02C0220F331F0A9428
:10300000E2F746A957A92423352341E0232B09F4ED
:1030100040E09417B9F280E085CF0F931F93CF93D0
:10302000DF93EC018B0185E290E00E947F07FC01B9
:10303000892B41F419821882CE01DF91CF911F9123
:103040000F91089581E0858789E697E191838083D8
:1030500087E398E193838283018712871582148224
:10306000F983E88314861386CF0133DFE5CFFC01B3
:1030700083859485816094878387CF012ACF0F93BE
:103080001F93CF93DF93EC0189859A8580FF11C050
:103090008530910509F45BC030F48D7F019709F408
:1030A0005AC00E9436358730910509F454C00997FB
:1030B000F6CF84309105A9F160F5009779F1029778
:1030C00081F71F8689E0888B888590E09A8B898BB1
:1030D0001C8A1B8A1E8A1D8ABE01615F7F4F8E017A
:1030E000035F1F4FC8010E942B0AC8010E944504BC
:1030F000811117C084E090E09A878987EE81FF8173
:103100008D859E8595838483DF91CF911F910F914B
:1031100008958630910569F00897C1CFDF83CE838B
:10312000D0CFCE010D960E94750460E88EE10E941A
:10313000DB0289E10E94EE0287FF1AC060E889E1A4
:103140000E94DB021982188288E090E013C0CE0151
:103150000D960E9475048B858823B1F28091AD0194
:103160009091AE0149979093AE018093AD01CCCF81
:1031700086E090E09A878987C7CF1F93CF93DF932C
:10318000EC01162F89E190E00E947F07FC01892B5A
:1031900039F419821882CE01DF91CF911F910895E1
:1031A00081E083878FE398E19183808381EB9BE1CA
:1031B00093838283108715821482F983E8831286B1
:1031C0001186CF015CDFE7CF0F931F93CF93DF937F
:1031D000EC018889998980FF0DC08530910509F43B
:1031E00084C030F48D7F019709F483C00E94363586
:1031F0000797FACF8430910509F471C0A0F40097C5
:10320000A1F0029799F789859A85DC0112962C9195
:10321000222371F080E08E831982188286E090E08C
:10322000998B888B57C00697DFCFD887CF83EBCF9A
:10323000EE85FF85668177817D8B6C8B208531855E
:103240003F8B2E8B6115710529F3232B19F32D85E7
:10325000211103C0FB0125812D872D852330D1F657
:10326000DC01ED91FC910084F185E02D099581113F
:10327000D1CFE985FA85AE89BF8912968C918F707E
:103280008383AB85BC858C91828312969C918481CB
:1032900092FB82F98483AC89BD8912968C918683D6
:1032A000EE85FF850190F081E02D65818E01085E3D
:1032B0001F4FC80162DFC8010E94300381110FC097
:1032C00084E090E0998B888BEF81F885888D998DCB
:1032D00095838483DF91CF911F910F910895CE0143
:1032E00048960E943D0381E096CFCE0148960E9409
:1032F0003D038A89882371F38091AD019091AE01DD
:103300004B979093AE018093AD01E4CFBF92CF92E3
:10331000DF92EF92FF920F931F93CF93DF93EC0115
:10332000B62EC72ED42EE52EF22E8BE190E00E9411
:103330007F07FC01892B69F419821882CE01DF9185
:10334000CF911F910F91FF90EF90DF90CF90BF90A2
:10335000089581E0828B84EE98E19183808383ECF1
:1033600099E193838283B186C286D386E486F5860B
:103370000687178715821482F983E883118A108AD9
:10338000CF0122DFDBCFFC01808991898160918BA5
:10339000808BCF0119CF0F931F93CF93DF93EC0155
:1033A0008889998980FF0DC08530910509F4ADC0E9
:1033B00030F48D7F019709F4ACC00E943635079731
:1033C000FACF8430910509F488C090F4009791F009
:1033D000029799F7E985FA858281882371F080E068
:1033E0008E831982188286E090E0998B888B70C05A
:1033F0000697E1CFD887CF83EDCF62E574E08FEAFF
:1034000091E00E948602EB85FC8560810E94930614
:103410000E940506AE85BF851696ED91FC91179723
:10342000FD8BEC8B18962D913C9119973F8B2E8B31
:103430001C968D919C911D97998F888F309779F26A
:10344000232B69F2892B59F28D85811102C0858168
:103450008D878D85833019F689859A85FC012081B9
:103460003181F90120853185BD01F9010995882354
:1034700009F4B5CFE985FA85AC89BD8912968C919E
:103480008087AE85BF850D90BC91A02D15966C915F
:103490006A8FA88DB98D17968D919C9118979387F7
:1034A000828716968C9181878E01055E1F4FC80119
:1034B00064DEC8010E94300381110FC084E090E0F7
:1034C000998B888BEF81F8858B8D9C8D9583848378
:1034D000DF91CF911F910F910895CE014B960E94DD
:1034E0003D03E985FA85AE89BF8912968C918F706C
:1034F0008383AB85BC858C91828312969C91848159
:1035000092FB82F9848381E06BCFCE014B960E94BF
:103510003D038A898823E1F28091AD019091AE014B
:103520004E979093AE018093AD01D2CFBF92CF92D0
:10353000DF92EF92FF920F931F93CF93DF93EC01F3
:10354000B62EC72ED42EE52EF22E8EE190E00E94EC
:103550007F07FC01892B69F419821882CE01DF9163
:10356000CF911F910F91FF90EF90DF90CF90BF9080
:10357000089581E0828B8BEC99E19183808383EDC8
:103580009AE193838283B186C286D386E486F586E8
:103590000687178715821482F983E883118A108AB7
:1035A000CF01F9DEDBCFFC01808991898160918BAD
:1035B000808BCF01F0CE0F931F93CF93DF93EC015D
:1035C0008889998980FF0DC08530910509F473C001
:1035D00030F48D7F019709F472C00E943635079749
:1035E000FACF8430910509F461C088F4009789F01E
:1035F000029799F7E985FA858281882369F01E820E
:103600001982188286E090E0998B888B4AC00697D1
:10361000E2CFD887CF83EECF6E857F85DB0116960C
:103620002D913C9117973D8B2C8B18968D919C91E9
:103630009F8B8E8B2115310511F3009701F34D857A
:10364000411104C0D90115962C912D872D85293063
:10365000B1F6DC0112968C918F7083838B859C85EB
:10366000DC012C91228312969C91848192FB82F939
:103670008483DB01ED91FC9165818E01085E1F4F13
:10368000C8017BDDC8010E94300381110FC084E0B6
:1036900090E0998B888BEF81F885888D998D958343
:1036A0008483DF91CF911F910F910895CE014896A9
:1036B0000E943D03A5CFCE0148960E943D038A8912
:1036C000882379F38091AD019091AE014B9790934F
:1036D000AE018093AD01E5CFBF92CF92DF92EF9222
:1036E000FF920F931F93CF93DF93EC01B62EC72E5B
:1036F000D42EE52EF22E8BE190E00E947F07FC0194
:10370000892B69F419821882CE01DF91CF911F9124
:103710000F91FF90EF90DF90CF90BF90089581E0E0
:10372000828B8BED9AE19183808389EA9BE193837D
:103730008283B186C286D386E486F586068717879C
:1037400015821482F983E883118A108ACF0133DF4E
:10375000DBCFFC01808991898160918B808BCF01C7
:103760002ACFFC0181859285816092878187CF0174
:1037700086CCCF92DF92EF920F931F93CF93DF937C
:10378000EC018F85988980FF0DC08530910509F483
:103790007AC030F48D7F019709F479C00E943635E4
:1037A0000797FACF8430910509F445C0E8F50097F2
:1037B000E9F1029799F78D859E850E943204ED8587
:1037C000FE85828160E280FF60E181FF32C080E897
:1037D000682B8DE10E94DB02ED85FE856A857B8585
:1037E000E18001E09E012D5E3F4F4C856E0185E139
:1037F000C80ED11CC6010E949209C6010E94450450
:10380000811119C084E090E0988B8F87E885F98555
:103810008D899E8995838483DF91CF911F910F912C
:10382000EF90DF90CF9008950697B6CFD987C887DD
:10383000C2CF80E4CDCFED89FE8986818C8BCE010D
:1038400045960E9475040D851E858FE10E94EE024B
:10385000982F85FB882780F9880F92959170892B86
:10386000F80192819C7F892B82838C898430E1F4DA
:1038700080E090E09F838E831982188286E090E03A
:10388000988B8F87C9CFCE0145960E947504898990
:10389000882311F28091AD019091AE0148979093E9
:1038A000AE018093AD01B8CF8A859B85E3CFDF92CF
:1038B000EF92FF920F931F93CF93DF93EC01D62EDD
:1038C000E72EF42E890188E190E00E947F07FC0139
:1038D000892B59F419821882CE01DF91CF911F9163
:1038E0000F91FF90EF90DF90089581E0818B89EB3D
:1038F0009BE1918380838DE391E293838283D286DF
:10390000E386F4860587168715821482F983E88397
:10391000108A1786CF012DDFDFCF2F923F924F9273
:103920005F926F927F928F929F92AF92BF92CF924F
:10393000DF92EF92FF920F931F93CF93DF93CDB758
:10394000DEB72B970FB6F894DEBF0FBECDBF8C014C
:10395000DC011B968D919C9180FF0DC085309105F7
:1039600009F4AFC130F48D7F019709F4AFC10E9413
:1039700036350797FACF8430910509F45AC068F5B7
:10398000009769F1029799F7D8011996ED91FC918A
:103990008281811128C081E0F80186831182108222
:1039A00086E090E0948783872B960FB6F894DEBF6D
:1039B0000FBECDBFDF91CF911F910F91FF90EF9080
:1039C000DF90CF90BF90AF909F908F907F906F903F
:1039D0005F904F903F902F9008950697C6CFF801C3
:1039E00010870783D1CF9F012E5F3F4F4285B801DB
:1039F000615F7F4F7801F3E5EF0EF11CC70157DFE0
:103A0000D701ED91FC913097A1F080819181892BB4
:103A100081F084E090E0D8011C969C938E931B97D4
:103A200017968D919C91DC011596FC93EE9314975B
:103A3000BBCFC8018D5A9F4FDC01ED91FC912681CF
:103A400037816801BFE4CB0ED11CF601318320839E
:103A50000E948303D6018D919C91892B09F49BCF01
:103A60008091B0018823F9F06DE08FEA91E00E9427
:103A70007F026CED73E00E948602D8011996ED91E9
:103A8000FC91228530E0F601408151815A834983BF
:103A90003C832B83BE016F5F7F4F0E94A50669EDBB
:103AA00073E00E9486024801F1E58F0E911C80E1CF
:103AB00090E0D4018D939C93F801E184F284D701C6
:103AC00093961C921E929297C7018596E95AFF4FD2
:103AD000918380832801B9E54B0E511CF20191833B
:103AE00080833701F1E36F0E711CF801E55AFF4F37
:103AF00071826082180125E5220E311CD201AD9041
:103B0000BC906A147B0409F0F2C0F70181A980FF20
:103B10002CC041E0B701635F7F4FD6018D919C912E
:103B20000E948604F801E35AFF4F6083D701519643
:103B30008C915197681309C092968D919C9193979F
:103B4000826093969C938E939297D70152969C9104
:103B500052978081981309C092968D919C9193976A
:103B6000816093969C938E939297F70181A981FF30
:103B70002CC041E0B7016C5E7F4FD6018D919C91C6
:103B80000E948604F801E25AFF4F6083D7015896DD
:103B90008C915897681309C092968D919C91939738
:103BA000886093969C938E939297D70159969C9197
:103BB00059978081981309C092968D919C91939703
:103BC000846093969C938E939297F70181A982FFCC
:103BD000E2CEB701655E7F4F40E0D6018D919C91AA
:103BE0000E948604462F572FF801E15AFF4F518358
:103BF0004083F70121A130E0249FC001259F900D53
:103C0000349F900D1124D801AF59BF4F11969C934A
:103C10008E938836F1E09F070CF0BDCE8C3321E007
:103C200092072CF08856914011969C938E9380E0D9
:103C300098012D593F4F9DE2792E480144E6840EAC
:103C4000911C580196E6A90EB11C7801E8E6EE0E2B
:103C5000F11C6801FAE6CF0ED11CF901808388308F
:103C600008F099CE482E512C789EC0011124BC0139
:103C700066517109F401718360834796F501918360
:103C800080834D915C91119746175707B4F0481700
:103C900059079CF4A2014F525C4FF70151834083B6
:103CA000FA014491F6014083F80161857285FB01B8
:103CB00082A193A1842B93A382A3F90180818F5FBA
:103CC000CCCFC8018D5A9F4F0E948303D8011D9607
:103CD0008C91882309F468CE8091AD019091AE015A
:103CE0008C5691099093AE018093AD015DCED101C8
:103CF000AD92BC92F50180818F3F99F1D701199661
:103D00002C9190E09A838983B1E0BB832C831D8240
:103D1000BE831F8241E0BE016F5F7F4FF60180814D
:103D200091810E948604688779878A879B87672BA1
:103D3000682B692B71F0D70192968D919C91939786
:103D4000F40120813181822B932B93969C938E9347
:103D50009297D4018D919C911197880F991F8D9303
:103D60009C93BFEFAB1ABB0AF201B182A082C6CE10
:103D70000F931F93CF93DF93EC018B018CE690E0C0
:103D80000E947F07FC01892B41F419821882CE0121
:103D9000DF91CF911F910F91089581E085878DE884
:103DA0009CE19183808382EE9EE1938382830187ED
:103DB000128715821482F983E88314861386CF0153
:103DC000ACDDE5CFFC018385948581609487838792
:103DD000CF01A3CD2F923F924F925F926F927F922D
:103DE0008F929F92AF92BF92CF92DF92EF92FF920B
:103DF0000F931F93CF93DF93CDB7DEB72B970FB6FB
:103E0000F894DEBF0FBECDBF8C01DC011B96ED9197
:103E1000FC911C97E0FF0AC03197EF30F10520F4C8
:103E2000E25EF94C0C940A350E943635EF30F1050C
:103E3000D8F7E35DF94C0C940A35FC019087878331
:103E4000D8011996ED91FC918281882309F40AC169
:103E50008285813408F006C18781882309F402C174
:103E600085A580FFFFC081FFFDC083FDB5C088E050
:103E7000B8016A5A7F4FDB011D928A95E9F781E20A
:103E8000DB018C938BE011968C9381E090E011968E
:103E900011969C938E931296808590E08D939C93BF
:103EA0007801BEE5EB0EF11CAF014E5F5F4FC7011D
:103EB0000E949A13C7010E946503811126C084E005
:103EC00090E0F801948783870780F085E02DD70183
:103ED0008D919C91958384832B960FB6F894DEBFC9
:103EE0000FBECDBFDF91CF911F910F91FF90EF904B
:103EF000DF90CF90BF90AF909F908F907F906F900A
:103F00005F904F903F902F900895C801825A9F4F25
:103F10000E94720382E00E940D0381E08093A80159
:103F200086E090E0F80194878387D6CF825A9F4F2E
:103F30000E947203D8011D968C91882369F28091AA
:103F4000AD019091AE01885691099093AE01809396
:103F5000AD01C2CF1996ED91FC91808590E021E2F0
:103F6000B8016A5A7F4FDB012C932AE011962C93FB
:103F7000119611961C921E92129611969C938E93F6
:103F800012961D921C927801B1E6EB0EF11CAF0166
:103F90004E5F5F4FC7010E949A13C7010E946503DD
:103FA000811103C088E090E08CCFC8018F599F4FEA
:103FB0000E94720382E00E940D0381E08093A801B9
:103FC0008AE090E0AFCF8F599F4FB2CF1996ED9115
:103FD000FC9185A5886085A7D8011996ED91FC9183
:103FE0009F012E5F3F4F4285B801615F7F4F78018F
:103FF000B4E6EB0EF11CC7015ADCD701ED91FC9140
:104000003097A1F080819181892B81F08CE090E044
:10401000D8011C969C938E931B9717968D919C911B
:10402000DC011596FC93EE93149756CFC8018C597A
:104030009F4FDC01ED91FC91268137815801BFE44F
:10404000AB0EB11CF501318320830E948303D8019C
:104050001996ED91FC9181E08487F5018081918131
:10406000892B69F481E0F8018683118210828EE049
:1040700090E059CF8C599F4F0E9483035BCF809172
:10408000B001882329F160EC73E08FEA91E00E948F
:104090008602D8011996ED91FC9162850E949306E3
:1040A0006CEB73E00E948602D8011996ED91FC91A9
:1040B000228530E0F501408151815A8349833C8358
:1040C0002B83BE016F5F7F4F0E94A5060E940506ED
:1040D000D8011996ED90FC90F501C080D180B70110
:1040E000635F7F4F41E0C6010E9486042801F1E52D
:1040F0004F0E511CD2016D937C93B7016C5E7F4FC4
:1041000041E0C6010E9486041801B3E52B0E311C64
:10411000F10171836083D7019D968C9160E082FFED
:1041200007C041E0B701655E7F4FC6010E9486046B
:104130004801B5E58B0E911CF4016083D701979679
:104140001C9280E03801B6E66B0E711CD3018C9393
:10415000F801E184F2848330F8F0D70192968D91D2
:104160009C919397F20120813181820F931F939646
:104170009C938E93929794968D919C91D1012D91C1
:104180003C91821B930BF70195A384A386A1D401D4
:104190009C91890F86A366CFC82ED12CF70124A548
:1041A00030E002C0359527958A95E2F720FF2DC0B3
:1041B0002185EC0DFD1D81A590E09A838983F1E0B6
:1041C000FB832C831D82FE831F8241E0BE016F5F53
:1041D0007F4FD5018D919C910E94860468877987D5
:1041E0008A879B87672B682B692B99F0E1E0F0E0C9
:1041F00002C0EE0FFF1FCA94E2F76F01D701979636
:104200008C9197978C2997968C93F30180818F5F7F
:104210009DCFC12CF3CF0F931F93CF93DF93EC016E
:104220008B0188E690E00E947F07FC01892B41F416
:1042300019821882CE01DF91CF911F910F910895BD
:1042400081E085878AEE9EE19183808385E391E218
:10425000938382830187128715821482F983E8830E
:1042600014861386CF01B6DDE5CFFC0183859485E6
:10427000816094878387CF01ADCDFC0187859089CC
:104280008160908B8787CF0174CACF93DF93EC0155
:104290008A859B8580FF0CC08830910538F49AEAA6
:1042A00001C096958A95EAF790FD1AC00E943635AE
:1042B0008430910549F090F40097F9F00297B1F736
:1042C00061E08DE10E94DB028DE10E94EE0280FD43
:1042D00017C01982188286E090E01AC0069731F75D
:1042E0008C858823B9F08091AD019091AE01409703
:1042F0009093AE018093AD010DC0DF83CE83E0CFFC
:1043000082E30E940D0381E08093A80184E090E0A5
:104310009B878A87DF91CF9108950F931F93CF9347
:10432000DF93EC018B0180E190E00E947F07FC01AC
:10433000892B41F419821882CE01DF91CF911F9110
:104340000F91089581E0848785E491E291838083D1
:1043500087EB91E293838283008711871582148211
:10436000F983E88313861286CF018FDFE5CFFC0146
:1043700082859385816093878287CF0186CF4F9214
:104380005F927F928F929F92AF92BF92CF92DF9275
:10439000EF92FF920F931F93CF93DF93CDB7DEB7CA
:1043A000A1970FB6F894DEBF0FBECDBF8C01DC0124
:1043B0001996ED91FC911A97E0FF12C0E830F105D3
:1043C00048F48AEA01C08695EA95EAF780FD0EC4B2
:1043D0000E943635399785E5E730F10598F3F8CF37
:1043E000EF30F105A8F7E45CF94C0C940A35FC01B8
:1043F000908787837E01F1E1EF0EF11CC7010E94D7
:10440000F20690918102292F2270892F8170782ED7
:10441000A92FA470BA2EB92FB0729B2EE92FE0718C
:10442000AE2EF92FF074CF2E892F8870882ED92EBA
:10443000DD1CDD24DD1C990F990F990F987081E028
:10444000211101C080E0880F880F892B91E0B11005
:1044500001C090E09295907F892B91E0911001C06E
:1044600090E09295990F907E892B91E0A11001C068
:1044700090E09295990F990F907C892B91E0C11053
:1044800001C090E0979599279795892B90914502C7
:104490009370892B8093450280914602D0FA80F96F
:1044A00080934602222321F061EEC7010E94140688
:1044B000992021F065EEC7010E941406772021F0B3
:1044C00060EEC7010E941406AA2021F064EEC70125
:1044D0000E941406BB2021F062EEC7010E94140660
:1044E000CC2021F066EEC7010E941406882021F03E
:1044F00063EEC7010E941406DD2021F067EEC701BC
:104500000E94140672E8C72E72E0D72ED6016D9174
:104510006D01662319F0C7010E941406B6E8CB1698
:10452000B2E0DB0699F780E1FE017196ABE1B2E003
:1045300001900D928A95E1F780E1EBE0F2E0ABE2C9
:10454000B2E001900D928A95E1F76BE072E08BE1A9
:1045500092E00E949902B7018BE292E00E949902D8
:104560005BE1C52E52E0D52E60E1962EFE0131961C
:104570007F01BBE2CB16B2E0DB0609F0B1C03BE243
:10458000E32E32E0F32E4BE3C42E42E0D42ECE14C1
:10459000DF0409F01CC18091450283FBEE24E0F8A2
:1045A000E11003C086FBEE24E0F8D8011D96EC92E2
:1045B0008091450284FBFF24F0F8F11003C087FBD3
:1045C000FF24F0F8F801F68687E20E94F805D8018A
:1045D0001F968C9386E20E94F805F801808B8CE48C
:1045E0000E94F805D80151968C9383EE0E94F8053D
:1045F000F801828BE110F6C0D80153961C925397B4
:1046000054961C927801B5E1EB0EF11CC7010E9493
:10461000F206C7010E94F2068091460285FB8827B8
:1046200080F9909145027E2C8F2C92FD02C095FF5F
:1046300092C1C0904102D0904202811104C0C0904A
:104640003D02D0903E022BE0A22E22E0B22E2BE1C2
:10465000A21622E0B20609F089C1EBEFF1E08BE08F
:1046600092E0DF018A179B0709F0A9C130E0D80169
:1046700095963C93B2E0EB30FB0709F0A6C120E031
:10468000F80126A3E72DF82DA8014B5D5F4FDF0150
:104690004A175B0709F09FC190E0D80197969C9359
:1046A000E417F50709F09DC180E0F80180A73323E6
:1046B00009F4DAC12111D8C1992309F4D5C188239D
:1046C00009F4D2C161E08BEF91E00E94B60289E16A
:1046D0000E941A0381E080938A0288E090E0ABC0D8
:1046E000D6017D906D01772009F443CFB3E57B12AD
:1046F00008C090914602892F8F7E94FF806180933D
:1047000046028091450284FF02C083FD04C080916F
:10471000460280FF56C0F701292D11922A95E9F72C
:1047200040E150E068E070E0C7010E941035298147
:104730008A80E6ECE70D5701E83008F042C0F0E06F
:10474000E55BF94C0C940A3519828A818370880FD5
:1047500090914602997F892B809346028981281780
:10476000A1F0E1E7F4E08BE392E02491DC012C93EB
:1047700001963196A4E0EB37FA07B9F740E150E033
:1047800068E070E0C5010E94CF068A81881609F4AE
:10479000F0CE40E150E068E070E0C5010E94CF0635
:1047A000E8CE81E08983D1CF82E0FCCF83E0FACFED
:1047B0001A82CBCF81E08A83C8CF82E0FCCF83E02E
:1047C000FACF672D8BE092E00E941406D2CEF7015B
:1047D00061917F01662309F4DACE8BE092E00E94BA
:1047E000B602D5CEFF2009F407CF882309F451C0C3
:1047F0008BEF91E00E94F206F80112AAE0E0F0E0EF
:10480000E657FD4FD801D596FC93EE93D49764916B
:10481000F80166AB63AB8BEF91E00E9414068BEF5F
:1048200091E00E9432058BE40E941A0381E080939C
:104830008A0284E090E0D8011A969C938E9319978F
:10484000EBC0FC0163A98BEF91E00E94B6028BEFF5
:1048500091E00E9432058BE40E941A0381E080936C
:104860008A0286E090E0E7CFD296EC91D297EF5F94
:10487000D296EC93D297E33208F4C1CF1D968C9177
:104880001D97882309F4B8CE1E968C91882309F4CD
:10489000B3CEF8019785938B8089848B911103C0E7
:1048A000882309F44BC07801B9E3EB0EF11C85E0D5
:1048B000F70111928A95E9F745E050E068E170E070
:1048C000C7010E941035D80153968C9153978823C5
:1048D00039F0DB968C91DB9791E08927DB968C93FE
:1048E000F8018489882321F085AD91E0892785AF7F
:1048F00069E772E08FEA91E00E948602FA82E9821B
:1049000025E030E03C832B83BE016F5F7F4F0E9428
:10491000A5060E94050645E050E068E170E0C70189
:104920000E94CF06D8011D968C911D97882309F40B
:1049300069CE1E968C91882309F464CE82E40E948D
:10494000F805882309F45ECE8091B00191E08927B3
:104950008093B00157CEC0903F02D09040028111A9
:1049600072CEC0903B02D0903C026DCEF501819199
:104970005F01882309F46BCE2091430230914402F9
:1049800090E0F601E80FF91F9490911004C0F9012E
:10499000E80FF91F9490F92DFF73F9A397FE04C057
:1049A00061E0C7010E94140696FE04C065E2C701DB
:1049B0000E94140669A1C7010E94140648CE2D91D9
:1049C000213009F04FCE31E052CE8191853209F08D
:1049D00051CE21E055CE8D91813009F059CE91E034
:1049E0005CCE8191853209F05BCE81E05ECE65E2DE
:1049F0008BEF91E00E94140661E0C80145960E9489
:104A0000B60289E10E941A0381E080938A028AE05B
:104A100090E0F80192878187A1960FB6F894DEBFE7
:104A20000FBECDBFDF91CF911F910F91FF90EF90FF
:104A3000DF90CF90BF90AF909F908F907F905F90CE
:104A40004F90089580E1F8017596ABEFB1E00190C9
:104A50000D928A95E1F789E10E941A0381E0809323
:104A60008A028CE090E0E7CE80E1F8017596ABEF2A
:104A7000B1E001900D928A95E1F7F80111A612A616
:104A800013A614A644E050E06DE170E0C8018996D9
:104A90000E941035D8019E961C921E929D9742E06E
:104AA00050E061E270E0C8018D960E941035F80177
:104AB00017A610AA11AA82E0A8014F5B5F4FB801A8
:104AC0006C5B7F4F21E832E02801F6E44F0E511C69
:104AD000780198E4E90EF11C99E8C92E92E0D92EEC
:104AE0005801A2E4AA0EB11CFA018083883089F52E
:104AF000D8011D968C911D97882339F01E968C91B4
:104B00001E97882311F051968C91F80197A5892B57
:104B100087A7882309F464C0559AD801D0968C9150
:104B2000882309F45FC0579AF80181A9882309F402
:104B30005BC085A5882309F457C0569A81E0D80147
:104B400016968C93169711961C921E928EE090E00A
:104B500073CEFB0131832083D2012D933C93F70167
:104B6000D182C082D201ED91FC91D8019F969C9197
:104B7000B2E0E938FB0711F48F5FB6CFD501ED93B2
:104B8000FC93992493947080D80199968C90781016
:104B9000912C9929D8019F969C939F97992493943F
:104BA00080809A969C918912912CD801D0969C91E4
:104BB000D0979929D0969C93D097992493948080EC
:104BC0009B969C918912912CD801D1969C91D1975A
:104BD0009929D1969C933196D201ED93FC93C2CF43
:104BE00055989BCF5798A0CF5698A8CFF8018385AA
:104BF000882309F411CF8091AD019091AE018B54BF
:104C000091099093AE018093AD0106CFFC0181859F
:104C10009285816092878187CF01B1CBAF92BF929D
:104C2000CF92DF92EF92FF920F931F93CF93DF9378
:104C3000EC01E989FA89E0FF2AC0EE30F10510F5B0
:104C4000E730F10530F4CF0101970597C8F00E94D5
:104C50003635379785E501C08695EA95EAF780FFF6
:104C6000F6CF8B89882309F492C08091AD01909191
:104C7000AE018C5A91099093AE018093AD0187C02B
:104C80008AE2E9CF3F97E730F10520F3E0CFE53145
:104C9000F105E8F6ED5AF94C0C940A3598878F83A4
:104CA0006DE973E08FEA91E00E9486022EB76DB73E
:104CB000722F0E94630661E973E00E948602609190
:104CC000AD017091AE010E94630663E873E00E943B
:104CD00086026DE872E00E9463060E940506DE010E
:104CE000AF5ABF4FCE01459611969C938E93FE010D
:104CF000ED5AFF4F118210828F859889AE014B5A71
:104D00005F4F9C012C5D3F4FFA01318320839E0150
:104D100029583F4FF90110822F5F3F4FF90111824F
:104D200010822E5F3F4FF9011182108221E3FC01B6
:104D300011922A95E9F70D90BC91A02D8FE0FD010D
:104D400011928A95E9F7DA01ED91FC9183E0DF0198
:104D50001D928A95E9F7EF85F88981E083A38D8517
:104D60009E85892B11F480E05FC3AB85BC8584E010
:104D700090E09A8B898BEF81F8850D90BC91A02DE6
:104D8000B583A48334961796FC93EE931697DF9120
:104D9000CF911F910F91FF90EF90DF90CF90BF9038
:104DA000AF900895EB85FC850190F081E02D808522
:104DB000DE01A458BF4F8C932D853E8521503109CB
:104DC0003E872D878370823009F4CFC0833031F065
:104DD000813009F01BC182E190E002C086E090E0E2
:104DE0009A8B898BAF81B8851596FC93EE931497B7
:104DF0001496B783A683CBCFEB85FC85A081B181C8
:104E0000FC01E358FF4F18964C91189750E060E072
:104E100070E0408351836283738388E090E09A8BD3
:104E2000898BEF81F885ACCFEB85FC8520813181C2
:104E3000F901808590E0A0E0B0E0BA2FA92F982F6B
:104E40008827FE01EF57FF4F80839183A283B383AE
:104E500034974081518162817381842B952BA62BDD
:104E6000B72B80839183A283B3838AE090E09A8BEF
:104E7000898BEF81F885358324833496D90183CFDC
:104E8000EB85FC8520813181F901808590E0A0E0EF
:104E9000B0E0DC0199278827FE01EB57FF4F8083A4
:104EA0009183A283B383389740815181628173815A
:104EB000842B952BA62BB72B80839183A283B3835E
:104EC0008CE090E0D4CFEB85FC850190F081E02D63
:104ED000808590E0A0E0B0E0B82FAA279927882726
:104EE000FE01E757FF4F80839183A283B3833C97F2
:104EF0004081518162817381842B952BA62BB72B26
:104F000080839183A283B3838D859E8504979E873A
:104F10008D878E0104581F4FF8019081892F8C7F57
:104F2000843709F4D4C108F093C0843209F4A5C1D0
:104F300008F07EC0843109F492C108F06FC084305B
:104F400009F47FC1883009F4F4C1F80180818C70C4
:104F5000811105CFFE01E858FF4F11821082329671
:104F60001182108233971082FACE8EE090E038CF13
:104F7000EB85FC85A081B181FC01E358FF4F1896B9
:104F80004C91189750E060E070E040835183628359
:104F9000738380E190E043CFEB85FC850190F08145
:104FA000E02D808590E0A0E0B0E0BA2FA92F982FE7
:104FB0008827FE01E357FF4F80839183A283B38349
:104FC00070974081518162817381842B952BA62B30
:104FD000B72B80839183A283B3838D859E850297AF
:104FE00096CFFC01E358FF4FAB85BC850D90BC917B
:104FF000A02D18968C9190E0A0E0B0E08083918382
:10500000A283B3838D859E85019781CFFE01E358EE
:10501000FF4F10821182128213827BCF883109F0F8
:1050200094CFFE01E358FF4F80819181359706C1EF
:10503000843309F430C1843409F43BC1883209F067
:1050400084CFFE01E358FF4F808191813397F6C0F2
:10505000803A09F498C108F0B0C0803909F057C00F
:1050600080E07E01F5E9EF0EF11C6E0191E5C90EBD
:10507000D11CD7018C93F60120813181D9011D9675
:105080009C91891708F061CF8DE0F901DE01A556EA
:10509000BF4F01900D928A95E1F7FE01ED5AFF4F47
:1050A00080819181EA5BFF4F91838083F90186853E
:1050B000FE01E856FF4F8083DE01A958BF4F6C9177
:1050C000662309F402C2E154F10980819181E95B10
:1050D000FF4F9183808371E0761708F4DFC1FE01F2
:1050E000E655FF4F708361506C93D8018C918C7F93
:1050F000FE01E855FF4F808331961082803809F415
:1051000003C2803909F429C282E0808310C2813948
:1051100008F044C0803809F4A3CF843809F015CFD3
:10512000FE01E358FF4FF0809E012F5A3F4FD901F7
:10513000ED91FC911197F6864F855889FA0180A967
:105140001496882309F4E3C011961C921E925E0106
:10515000F1E9AF0EB11CF5011082FA0163A1F5016E
:105160007081761708F4BFC087E0643009F45CC131
:1051700081E0860FFA0183A370E0FB01EE0FFF1FB1
:10518000E60FF71FB4964E0F5F1F11965C934E9378
:1051900083E0FA0111928A95E9F7B9C0843909F0E0
:1051A000D4CEFE01EF5AFF4F0190F081E02DDE01D9
:1051B000A358BF4F8C918587C8CE843B91F130F4C2
:1051C000843A99F0803B09F44BCFBFCE803C09F084
:1051D000BCCEFE01ED5AFF4FA081B181109709F4BA
:1051E00091C115968D919C9129C0CE018F5A9F4FE8
:1051F000DC01ED91FC919E012E5B3F4FE217F3071E
:1052000009F47AC1DF011F962FE001900D922A95D3
:10521000E1F7FC0120813181215F3F4F3183208301
:1052200094CEFE01EF5AFF4F808191819E012B5E4B
:105230003F4F8217930709F461C10F9791838083D1
:1052400084CEFE01EF5AFF4F0190F081E02DDE0188
:10525000A358BF4F8D919C919283818376CEFE019E
:10526000EF5AFF4F0190F081E02DDE01A358BF4FB0
:105270008D919C919683858368CEFE01EF5AFF4FF6
:105280000190F081E02DDE01A358BF4F8D919C91DC
:10529000908787835ACEFE01EF5AFF4F0190F0812D
:1052A000E02DDE01A358BF4F8D919C91928781879D
:1052B0004CCEFE01EF5AFF4F0190F081E02DDE0150
:1052C000A358BF4F8D919C91948783873ECEFE015A
:1052D000EF5AFF4F0190F081E02DDE01A358BF4F40
:1052E0008C91808332CEC72ED12CC601880F991F96
:1052F0008C0D9D1D6A01C80ED91EF601E4A0FE109A
:1053000014C08496840F951F11969C938E93EF85FD
:10531000F88981E080AB4D915C91F901A081B18168
:105320001E968C91DA018C9310CE7F5FF50170830D
:1053300016CFDE01A958BF4FFC90E0E1FE1609F43C
:10534000DFC09E0123583F4FF901408151816281A6
:1053500073819370933049F4CE018F5A9F4FFC01B3
:1053600080819181FC017283618381E08F0D8C9338
:10537000EF2DF0E0EE0FFF1FEC0FFD1FE95AFF4F7E
:1053800051834083E2CDDE01AD5ABF4F2D913C9158
:1053900011978F8598892115310571F511969C9388
:1053A0008E93ED91FC91DE01A358BF4F8C918083C9
:1053B0009C970D90BC91A02D11968D919C919283FC
:1053C0008183BE0169587F4FDB012C91222309F4B0
:1053D0004CC0CE01895A9F4FDC018D919C919483E2
:1053E000838331E0321750F1FE01EC56FF4F3083DA
:1053F0002150FB012083A9CDFE01EE56FF4F3183E2
:105400002083FC0137964C9645815681452B31F41B
:105410001196FC93EE9336832583C3CFE817F907E3
:1054200059F4ED93FC9385E08E831982188284E110
:1054300090E09A8B898BABCC3796E6CF832F90E0A8
:10544000FC01EE0FFF1FEC0FFD1FE95AFF4F4081DB
:105450005181FC013197EE0FFF1FEC0FFD1FE95A40
:10546000FF4F518340833F5FBDCFAE0148585F4F30
:10547000DA018D919C919E0126583F4FD9012D91C3
:105480003C912817390708F460CD9C012F5F3F4FEE
:10549000DA012D933C939483838357CD872F90E03B
:1054A000FC01EE0FFF1FEC0FFD1FE95AFF4F40817B
:1054B0005181FC013197EE0FFF1FEC0FFD1FE95AE0
:1054C000FF4F518340837F5F07CEFE01E858FF4FB7
:1054D00080819181DE01A658BF4F4D915C914817A4
:1054E000590708F402CEAC014F5F5F4F51834083F0
:1054F000B69691838083F9CD81E096CF82E094CFF8
:1055000086E092CF84E090CFFE01EB5AFF4F0190EE
:10551000F081E02D81819281DE01AA56BF4F8D93EB
:105520009C93D9012C91820F911D92838183FE015E
:10553000E358FF4F808180FD0CC089859A85DC018E
:10554000ED91FC910190F081E02DBE016A567F4FF4
:105550000995F70180818F5F8CCD81E0D6CD5F9278
:105560006F927F928F929F92AF92BF92CF92DF9273
:10557000EF92FF920F931F93CF93DF93EC018A85F5
:105580009B858C010170112701151105C1F0873031
:10559000910509F496C168F48530910509F41CC1A0
:1055A0008630910521F08D7F019709F419C10E9481
:1055B00036358930910509F489C10B97F6CF8630CD
:1055C000910509F41CC108F06FC08230910541F0CB
:1055D0008430910509F488C0892B49F7DF83CE8395
:1055E000E885F9858281882309F464C1848183FD7B
:1055F00061C188608483828593859F878E8769E3F4
:1056000074E08FEA91E00E9486026E857F850E9499
:1056100025060E94050681E8888B86E0898B8884B0
:105620009984D40119968C9119971A8A8B8B1896A4
:105630008C9190E09D8B8C8B8E859F859F8B8E8B24
:105640006401B2E0CB0ED11C5E01E0E1AE0EB11CF4
:105650007E01F8E1EF0EF11C85E190E00E947F07EA
:10566000FC01892B39F5198E188EC7010E94300371
:1056700081113AC084E090E09B878A87EE81FF81A8
:10568000888D998D95838483DF91CF911F910F91A0
:10569000FF90EF90DF90CF90BF90AF909F908F9052
:1056A0007F906F905F9008958830910509F4ACC0A9
:1056B0000A977BCF81E0808B84E59AE09183808399
:1056C00081EB9AE09383828391868086B386A2865B
:1056D000D586C48615821482F98FE88F17861686C0
:1056E000CF010E94540AC1CFCE0148960E943D03CB
:1056F000FE8482E290E00E947F07FC0155245394CF
:10570000518A8DE298E0918380838EEF98E09383B5
:105710008283F386CE014A969587848756861782C0
:105720001682FC8FEB8F108A1786CF010E942D08FE
:1057300068E274E08FEA91E00E9486020E9405060A
:10574000E884F98485E0E80EF11C3E019DE1690ED4
:10575000711CCE84DF845E01ABE1AA0EB11C8CEA21
:1057600090E00E947F07FC01CE01825B9F4F4C01BD
:105770003097B9F4DC011D921C92D401ED91FC919B
:105780003097E9F180819181892BC9F186E090E021
:105790009B878A87AE81BF811596FC93EE93149701
:1057A00073CF538A8EE096E29183808381EC9CE2F2
:1057B00093838283F286E186B486A386D686C586E5
:1057C000708A678615821482D401ED93FC93128A45
:1057D000118ACF0123DAD1CFCE0148960E943D0332
:1057E0008C85882309F450CF8091AD019091AE0152
:1057F000815591099093AE018093AD0145CFCE01C3
:10580000825B9F4F0E949E038B8D9C8D2A8D30E082
:105810004E855F852417350708F463C0A885B985D0
:1058200019964C911997FE01EF5BFF4FBE01635B28
:105830007F4F218132815081451362C0E1E0F0E069
:10584000A90147705527452B11F4E0E0F0E043E053
:10585000369527954A95E1F78F01020F131F1A9687
:105860000C931A97FB012081222319F00F5F1A96DF
:105870000C93009729F0DC011296ED91FC910995AB
:105880008FEA91E00E940506E885F98587818111FC
:105890003DC06BE074E08FEA91E00E9486020E94B6
:1058A000050688859985DC01ED91FC910480F581E0
:1058B000E02D0995198218828AE090E09B878A87FB
:1058C000E3CECE01825B9F4F0E949E038B8D9C8D09
:1058D000009709F485CFDC011296ED91FC910995B2
:1058E0007FCF28E030E03B872A87EE81FF819583D8
:1058F00084833496DC011796FC93EE931697C4CEFE
:1059000033966E177F0709F094CFA9CF62EF73E04B
:105910008FEA91E00E9486020E940506CBCF0F938A
:105920001F93CF93DF93EC018B0181E590E00E9400
:105930007F07FC01892B41F419821882CE01DF9187
:10594000CF911F910F91089581E084878FEA9AE2A9
:105950009183808389EB9CE2938382830087118704
:1059600015821482F983E88313861286CF01F7DD4E
:10597000E5CFFC0182859385816093878287CF0183
:10598000EECDFC01818992898160928B818BCF0160
:1059900045C9CF93DF93EC01EF85F889E0FF12C092
:1059A000E830F10548F48AEA01C08695EA95EAF7FD
:1059B00080FD78C00E943635399785E5E730F105DE
:1059C00098F3F8CFEF30F105A8F7E859F94C0C94AB
:1059D0000A359F838E838D859E850E943204E885DB
:1059E000F98588E0DE01539601900D928A95E1F7E2
:1059F0000E942E04813089F0CE0143960E94C2029B
:105A000060E18EE10E94DB0281E00E940D0381E0F3
:105A10008093A80186E090E002C084E090E0988B3B
:105A20008F87DF91CF91089588E090E0F8CF89E1EA
:105A30000E94EE0287FFF8CF60E889E10E94DB0256
:105A400060E88DE10E94DB026B857C858A850E947F
:105A5000FE046A8587E00E94DB0260E28EE10E941C
:105A6000DB0289E10E94EE0287FF16C060E889E14F
:105A70000E94DB0260E88EE10E94DB0289E10E9465
:105A8000EE0287FF0CC060E889E10E94DB02198208
:105A900018828EE090E0C3CF8AE090E0C0CF8CE027
:105AA00090E0BDCF8989882309F4BBCF8091AD01F7
:105AB0009091AE0181979093AE018093AD01B1CFEB
:105AC000FC01878590898160908B8787CF0161CFAA
:105AD000CF92DF92EF92FF920F931F93CF93DF93BA
